:100000000C94F9000C9421010C9421010C94210111
:100010000C9421010C9421010C9421010C942101D8
:100020000C9421010C9421010C9421010C94F20BED
:100030000C9421010C9421010C9421010C942101B8
:100040000C94A80B0C9421010C9493170C946D172D
:100050000C9421010C9421010C9421010C94210198
:100060000C9421010C9421010000000024002700C1
:100070002A00010204081020408001020408102018
:10008000010204081020040404040404040402020D
:1000900002020202030303030303436F6E6E6563F0
:1000A00074696F6E20746F204154454D20537769F9
:1000B0007463686572206861732074696D6564207B
:1000C0006F7574202D207265636F6E6E6563746941
:1000D0006E6721004154454D205F686173496E6928
:1000E0007469616C697A6564203D205452554500FD
:1000F000727049443A20004154454D2061736B6948
:100100006E6720746F20726573656E642000202D09
:100110002041434B2100727049443A2000546C49FD
:100120006E00414D4950004D526353004D50727066
:10013000004D525072004D504345004175785300B8
:100140004674625300467462500044736B5300441B
:10015000736B50004B654F6E00544D7850005472D5
:1001600050730054725072005472535300507276A0
:10017000490050726749005669644D005F766572A8
:1001800000414D4C76005F70696E00546C537200F4
:10019000414D4C760000000000250028002B000097
:1001A0000000080002010000030407000000000036
:1001B0000000002066726F6D20706F727420005313
:1001C000656E64696E6720636F6E6E656374207020
:1001D00061636B657420746F204154454D207377C3
:1001E000697463686572206F6E2049502000292071
:1001F000C91C11241FBECFEFD8E0DEBFCDBF12E077
:10020000A0E0B1E0E6ECFBE402C005900D92AE3553
:10021000B107D9F725E0AEE5B2E001C01D92A23CDE
:10022000B207E1F710E0C8EFD0E004C02197FE016B
:100230000E94AE23C73FD107C9F70E945F1D0C94EF
:10024000D6250C940000CF93DF931F92CDB7DEB775
:100250006983DC01ED91FC910280F381E02D41E0A6
:1002600050E0BE016F5F7F4F09950F90DF91CF91F6
:100270000895DC01ED91FC91068CF78DE02D099538
:1002800091E089270895862F089581E086270895B3
:10029000089580E090E00895FC0184850C949818FE
:1002A000CF93DF931F92CDB7DEB741E050E0BE01A0
:1002B0006F5F7F4FFC0184850E94981818161906FD
:1002C0001CF4898190E002C08FEF9FEF0F90DF91C7
:1002D000CF910895FC018485843011F00C94761838
:1002E00080E090E0089508958CBD9DBD08958F92A3
:1002F0009F92AF92BF92CF92DF92EF92FF920F93B5
:100300001F93CF936C015B017A01FC01C485C4305B
:1003100041F481E090E0F6019383828380E090E0F5
:100320004EC08A014130584010F000E018E080E5EE
:1003300090E00E9474018C2F0E94501B4C0163E0DE
:1003400070E08C2F0E944E13873111F08C3121F414
:100350008016910660F302C000E010E080E590E0B6
:100360000E9474019801A50160E070E08C2F0E944A
:10037000EB1A60E270E08C2F0E94DB1A62E070E002
:100380008C2F0E944E1384FD10C063E070E08C2F10
:100390000E944E13811104C08C2F0E948C19B9CF7A
:1003A00080E590E00E947401E9CF40E162E070E0F6
:1003B0008C2F0E944413012B09F4ABCFC701CF91BE
:1003C0001F910F91FF90EF90DF90CF90BF90AF9073
:1003D0009F908F900895CF92DF92FF920F931F937B
:1003E000CF93DF93FC012485243009F077C06A01A4
:1003F000EB018C01F12C8F2D0E945B1A811103C03F
:10040000F801F48607C08B7F8831D1F3F394F4E0D0
:10041000FF12F1CFF8018485843009F45FC0209188
:100420000001309101012F5F3F4F11F420E030ECCB
:10043000309301012093000140910001509101018E
:1004400020E061E00E94A019F801F4848A818F3FC6
:1004500051F48B818F3F91F48C818F3F79F48D81A2
:100460008F3F61F438C0811109C08B81811106C0B2
:100470008C81811103C08D81882369F1C114D1045D
:1004800051F180E590E00E947401BE016E5F7F4FE4
:100490008F2D90E0982F882744E050E0845F9B4F99
:1004A0000E945A11B6018F2D0E94AC1364E070E0D7
:1004B0008F2D0E94DB1AC8010E94FD13873189F03D
:1004C00061E070E080E090E00E94620BC8010E9451
:1004D000FD138111F0CF84E0F801848780E090E083
:1004E00002C081E090E0DF91CF911F910F91FF90CA
:1004F000DF90CF9008952F923F924F925F926F922C
:100500007F928F929F92AF92BF92CF92DF92EF92A3
:10051000FF920F931F93CF93DF93CDB7DEB765970D
:100520000FB6F894DEBF0FBECDBF7C016B013A0160
:10053000FB0120E080E090E06AE03191332309F193
:1005400040ED430F4A3080F4689FA001699F500D31
:100550001124CA01C097830F911D37FD9A958F3FD3
:10056000910559F350F313C03E3289F4233079F0EA
:10057000D301A20FB11D12968C932F5F80E090E003
:10058000DCCF233021F4F301858381E021C0F70122
:10059000428153816481758180913B0390913C033A
:1005A000A0913D03B0913E03481759076A077B07A6
:1005B00009F49EC10E949C0B8701085F1F4F6F705A
:1005C00077277C5FC8010E947112813019F080E0AA
:1005D00090E0F3C182E292E09A838983F7018281FD
:1005E0009381A481B5818B839C83AD83BE8345E3D6
:1005F00050E0BE016F5F7F4FC8010E94BD13892B81
:1006000019F4C12CD12C6FC10E949C0BF701778388
:1006100066837627672776277A83698342E050E0EE
:10062000BE016F5F7F4FC8010E94241281E090E0FD
:100630009E878D8742E050E0BE01635F7F4FC80117
:100640000E94241280E091E09E878D8742E050E076
:10065000BE01635F7F4FC8010E9424121E861D8663
:1006600042E050E0BE01635F7F4FC8010E94241248
:1006700042E050E0BE01635F7F4FC8010E94241238
:1006800042E050E0BE01635F7F4FC8010E94241228
:100690005601F5018081882311F1F6015F018191F6
:1006A000811115C045018C189D081814190494F483
:1006B0008F8641E050E0BE01615F7F4FC8010E941C
:1006C0002412A401B601C8010E94241203C08E3274
:1006D00029F7E8CF6501FFEFCF1ADF0ADACF1F86CF
:1006E00041E050E0BE01615F7F4FC8010E942412CB
:1006F000C12CDD24D394DE86CD8642E050E0BE01DD
:10070000635F7F4FC8010E942412DE86CD8642E0DF
:1007100050E0BE01635F7F4FC8010E942412C801F0
:100720000E947413892B09F46CCF63E0A62EB12CC0
:10073000F2E06F0E711C0E949C0B1B012C01C80182
:100740000E94331918161906A4F00E949C0BDC01B4
:10075000CB0182199309A409B50989389341A105F0
:10076000B105D0F462E370E080E090E00E94620B9B
:10077000E6CFF7014281538164817581808D918D2F
:10078000A28DB38D481759076A077B0741F4848D02
:10079000958DC59721F406C02FEF3FEF9AC02EEF3D
:1007A0003FEF97C0F70181A192A10C970CF4A6C06E
:1007B0004CE050E0BE016F5F7F4FC8010E94EB1814
:1007C0008B8190E0982F88272C81822B9A8B898BA4
:1007D000298130E0322F22274A81242BF7014681DC
:1007E00057814217530709F086C097FF84C08F7066
:1007F0009270892B09F0DEC0CF80D12CDC2CCC2468
:100800008885C82AC114D10409F4D1C0812C912C47
:100810008D8190E0982F88272E81822B881699064B
:1008200008F46FC0812C912C41E050E0BE016D5E58
:100830007F4FC8010E94EB188B89982F907C09F09C
:1008400093C0811186C08B898111EECF42E050E0C8
:10085000BE01615F7F4FC8010E94EB1842E050E08B
:10086000BE01635F7F4FC8010E94EB18C8010E9460
:100870000A19C8010E940A19C8010E940A19C80170
:100880000E940A1942E050E0BE016F5E7F4FC8012E
:100890000E94EB188F8598898115914009F069C0F5
:1008A0002D853E853227232732272130310509F057
:1008B00060C089899A898115944009F075C044E027
:1008C00050E0B301C8012C8B3D8B0E94EB182C89A2
:1008D0003D896901F1E0AF1AB10829F02FEFC21686
:1008E000D20609F428CFC8010E945C12C60165C077
:1008F0008EEF9FEF62C02CEF3FEFEBCF2DEF3FEF7E
:10090000E8CF41E050E0BE01635F7F4FC8010E9425
:10091000EB188D85811113C08D858111F2CFC8012F
:100920000E940A19C8010E940A19C8010E940A19E6
:10093000C8010E940A19FFEF8F1A9F0A69CF8D859F
:100940009FEF980F9D87882339F3C8010E940A19E9
:10095000F6CF8B899FEF980F9B8B882309F473CF79
:10096000C8010E940A19F5CFC8010E940A191B8A02
:100970006ACF412C512C89899A89982789279827F1
:100980004816590638F4C8010E940A198FEF481A10
:10099000580AF1CFEFEF8E1A9E0A8C149D0409F0CD
:1009A00043CF26EF3FEF95CF27EF3FEF92CF2AEFD0
:1009B0003FEF8FCF2BEF3FEF8CCF65960FB6F894BC
:1009C000DEBF0FBECDBFDF91CF911F910F91FF9082
:1009D000EF90DF90CF90BF90AF909F908F907F90DF
:1009E0006F905F904F903F902F900895CF92DF923D
:1009F000EF92FF920F931F93CF93DF93CDB7DEB7A4
:100A0000E1970FB6F894DEBF0FBECDBF7C016A013F
:100A100002E212E01A8309831B821C821D821E825D
:100A2000CE01099668AB79AB0E94C1121DA30CA33D
:100A30001EA21FA218A619A6809133039091340319
:100A4000A0913503B09136038CA79DA7AEA7BFA791
:100A50008B839C83AD83BE8318861F82AE014C5D61
:100A60005F4F68A979A9CE0101960E947B0281306F
:100A70009105B1F4D701ED91FC910684F785E02D45
:100A80001BA70AA78EA19FA1A8A5B9A58CA79DA762
:100A9000AEA7BFA7A601BE01665D7F4FC70109953E
:100AA000E1960FB6F894DEBF0FBECDBFDF91CF91B8
:100AB0001F910F91FF90EF90DF90CF900895EF92EC
:100AC000FF920F931F93CF93DF93CDB7DEB7289795
:100AD0000FB6F894DEBF0FBECDBF8C016CE272E0A2
:100AE0000E94B01684E992E00E94FF1518161906BC
:100AF000CCF584E992E00E94DD158E3399F584E906
:100B000092E00E94DD157C018CE3E81659F18FEF2D
:100B1000E816F806A1F31A8219821C821B821E8233
:100B20001D82B801CE0101960E94EA0AEF82188662
:100B300041E050E0BE01695F7F4FCE0101960E9407
:100B4000600A811104C0CE0101960E948E0ABE0186
:100B50006F5F7F4FC8010E94EA0ACE0101960E9492
:100B6000AB16CDCF84E992E00E94FF151816190646
:100B70002CF484E992E00E94DD15F4CFC8010E94B4
:100B8000741AC80128960FB6F894DEBF0FBECDBF09
:100B9000DF91CF911F910F91FF90EF9008950F93E8
:100BA0001F93CF93DF93EC0188819981009729F0FF
:100BB0002A813B812617370788F48B016F5F7F4FAF
:100BC0000E94E124009761F0998388831B830A8344
:100BD0002C813D81232B11F4FC01108281E001C0A6
:100BE00080E0DF91CF911F910F9108952F923F9256
:100BF0004F925F926F927F928F929F92AF92BF922D
:100C0000CF92DF92EF92FF920F931F93CF93DF93D8
:100C1000CDB7DEB729970FB6F894DEBF0FBECDBFB4
:100C20005C018091F803882321F01092F8030E9460
:100C3000CD1B0E949C0B9B01AC012A0D3B1D411D4D
:100C4000511D2E833F8348875987FF24F394FCE08E
:100C5000EF2EAE014F5F5F4F4A0189E593E00E949E
:100C600033196C018091720390917303892B09F4FD
:100C7000A8C14CE050E061E973E089E593E00E948F
:100C8000EB188091930390E0982F8827209194038C
:100C9000822B90938403809383030091910380912E
:100CA0009B0390E0982F882720919C03822B9093A0
:100CB0008A038093890388329105B0F4FC0163E0D4
:100CC000F695E7956A95E1F7E95AFC4F8770992701
:100CD00021E030E002C0220F331F8A95E2F7C901FC
:100CE000809594A9892384AB802F877090E0982FFA
:100CF000882720919203822BC816D90609F051C18A
:100D000010E043E0159507954A95E1F70E949C0B8A
:100D10006093850370938603809387039093880381
:100D20001092F903180132E02322332401FF1BC083
:100D3000F09282030E94A41B80E880939103E092CA
:100D40009203809183039091840390939303809303
:100D50009403109295031092960383E080939A0374
:100D60008CE00E946C1B80917F0381110FC04CE0CE
:100D7000C416D10459F48091890390918A0382307A
:100D8000910520F0F0927F038093800380917F0390
:100D9000882309F489C000FF39C080918103811143
:100DA00002C002FD33C00E94A41B80918903909170
:100DB0008A0320E820939103E09292032091830319
:100DC000309184033093930320939403909395037D
:100DD000809396038CE00E946C1B80917C03823090
:100DE00008F47BC086E191E00E94AC1B409189032E
:100DF00050918A0360E070E02AE084E992E00E946A
:100E0000DA168EE091E00E94511C67C003FF4CC0CF
:100E100080918103882309F447C0009197031091C2
:100E200098030E94A41BE092920380918303909107
:100E300084039093930380939403109295031092EC
:100E4000960358E05093910300939B0310939C03E7
:100E50008CE00E946C1B80917C038230F0F187EF64
:100E600090E00E94AC1B812F90E0902B2C01092E6A
:100E7000000C6608770897FF13C0E0919402F09188
:100E800095020190F081E02D6DE284E992E00995F0
:100E900044275527BA01441955096609770912C034
:100EA0002AE0B301A2010FC080917C038230A8F038
:100EB00080EF90E00E94AC1B4091890350918A031F
:100EC00060E070E02AE084E992E00E94DA166AE2CB
:100ED00072E084E992E00E94C516232809F0BDCE95
:100EE0008DE0C816D10408F4B8CE0CE010E048E05C
:100EF00050E061E973E089E593E00E94EB1880918E
:100F0000910390E0982F882720919203822B909351
:100F1000F2038093F1031092F4031092F303F401AF
:100F200025E011922A95E9F72091950329832091D4
:100F300096032A83209197032B83209198032C8377
:100F40000997C8F0E0915703F09158030190F081A0
:100F5000E02DB40187E593E0099560E687E593E02D
:100F60000E94420D8111F9CF8091F1039091F2031B
:100F7000080F191F11C08091720390917303892B80
:100F800049F040E650E061E973E089E593E00E94B2
:100F9000EB18F1CF00ED17E00C151D0508F4A7CFF5
:100FA0005CCE8091720390917303892B09F455CE26
:100FB00040E650E061E973E089E593E00E94EB18B8
:100FC000F0CF80918103811154C080917F038823E9
:100FD00009F44FC08091F90381114BC04091800307
:100FE00081E090E0182F8417B0F58932910599F1CE
:100FF000FC0123E0F595E7952A95E1F7E95AFC4FC6
:1010000024A930E0512F577002C0359527955A9585
:10101000E2F7019620FFE6CF0E94A41B30E4309354
:101020009103E092920380918303909184039093C3
:101030009303809394031092950310929603109259
:101040009703115010939803F09299038CE00E943B
:101050006C1BF092F9038091F90381110AC0F092A0
:10106000810380917C03882321F084ED90E00E942D
:10107000511CA114B104B1F4C0908503D090860333
:10108000E0908703F090880348E8C40E43E1D41E43
:10109000E11CF11C0E949C0B6C157D058E059F05C3
:1010A00070F417C00E949C0B2E813F8148855985A2
:1010B000621773078407950708F4CFCDDDCF8091C1
:1010C0007C03882321F08AE990E00E94511C0E9451
:1010D000CD1B29960FB6F894DEBF0FBECDBFDF91B2
:1010E000CF911F910F91FF90EF90DF90CF90BF9025
:1010F000AF909F908F907F906F905F904F903F90B8
:101100002F900895CF92DF92EF92FF920F931F934B
:10111000CF93DF93CDB7DEB7A1970FB6F894DEBFBC
:101120000FBECDBF8C010E944A216B017C01F801EA
:1011300082819381A481B5818E8F9F8FA8A3B9A34B
:1011400007E513E081E08093F8031092F903CE01E4
:1011500001960E94C1128B819C81F8019583848342
:101160008D819E81AF81B88586839783A087B18763
:1011700089859A85AB85BC8582879387A487B58747
:101180008D859E859787868789899A89AB89BC8951
:10119000828B938BA48BB58B8D899E89978B868B45
:1011A0008F89988D918F808F898D828F8A8D9B8D6D
:1011B000948F838F8E8D9F8DA8A1B9A181A392A3B7
:1011C000A3A3B4A3C701B60120E63BE340E050E08F
:1011D0000E946C22DC01CB018C549C43AF4FBF4F6B
:1011E000F801968F858F16A617A610AA11AA15A228
:1011F0001092F5031092F603A1960FB6F894DEBF95
:101200000FBECDBFDF91CF911F910F91FF90EF9057
:10121000DF90CF900895CF92DF92EF92FF920F93DD
:101220001F93CF93DF93CDB7DEB7C254D1090FB66A
:10123000F894DEBF0FBECDBFFC0182819381A481F3
:10124000B58123968CAF9DAFAEAFBFAF239721E0A2
:1012500023962FAF239723964CAD5DAD6EAD7FAD3A
:1012600023974BAB5CAB6DAB7EAB89AF9AAFABAFAB
:10127000BCAF8DA79EA7AFA7B8AB28AB4DA55EA509
:101280006FA578A94FA358A769A77AA72EAB4BA93A
:101290005CA96DA97EA949A35AA36BA37CA38B8FDC
:1012A0009C8FAD8FBE8F42E252E05C8B4B8B3FEF49
:1012B0003D8B3E8B3F8B188E5E874D872AA7CFA034
:1012C000D8A4E9A4FAA4CF86D88AE98AFA8A2CA3FA
:1012D00009A11AA12BA13CA109871A872B873C875A
:1012E0005A8349838B839C83AD83BE836CE271E018
:1012F00080E090E00E94620B1FB7F89480915E023C
:10130000811127C0E0E9F0E08491ECE7F0E09491EE
:10131000E82FF0E0EE0FFF1FE859FF4FA591B491C1
:10132000EC91E92321F461E08AE00E94EE1761E08C
:101330008AE00E94260B8CB580618CBD8CB58064E0
:101340008CBD61E08DE00E94260B61E08BE00E9485
:10135000260B80915E028F5F80935E021FBF229AF0
:1013600080E590E00E94740160E880E090E00E94D7
:10137000891165E58BE190E00E94891165E58AE1BC
:1013800090E00E9489110E94730180E090E49093A4
:1013900085028093840280E090E690938D02809392
:1013A0008C0280E098E4909387028093860280E02C
:1013B00098E690938F0280938E0280E090E5909360
:1013C00089028093880280E090E790939102809355
:1013D000900280E098E590938B0280938A0280E0EF
:1013E00098E7909393028093920280E590E00E94A8
:1013F000740146E050E062E071E089E090E00E9414
:101400005A1144E050E0BE016D5F7F4F8FE090E0E5
:101410000E945A1144E050E0BE01615F7F4F81E0BD
:1014200090E00E945A1144E050E0BE016B5E7F4F95
:1014300085E090E00E945A110E94730181E08C8740
:1014400089859A85AB85BC8580933303909334035B
:10145000A0933503B0933603CE5BDF4F0FB6F894FD
:10146000DEBF0FBECDBFDF91CF911F910F91FF90D7
:10147000EF90DF90CF9008950F931F93CF93DF935A
:101480002091490330914A032115310519F4FC01DB
:10149000108211C0EB0121972C173D0708F4E901D8
:1014A0008C016091450370914603AE010E94C725EF
:1014B000C00FD11F1882DF91CF911F910F91089516
:1014C000EF92FF920F931F93CF93DF93FC01248140
:1014D00035816115710511F480E019C04115510580
:1014E000A9F07B01EC018A01020F131FB8010E94D1
:1014F000CF05882389F3288139818C819D81B701AB
:10150000820F931F0E94C0251D830C8381E0DF9111
:10151000CF911F910F91FF90EF900895CF93DF939C
:10152000EC0188819981009711F00E944924198269
:1015300018821D821C821B821A82DF91CF9108952E
:10154000CF93DF93EC0142E050E06DE272E00E9445
:10155000600A811103C0CE010E948E0ACE01DF9184
:10156000CF910895EF92FF920F931F93CF93DF9344
:10157000EC017B018A01BA010E94CF05811104C0F0
:10158000CE010E948E0A07C01D830C83B70188819B
:1015900099810E94C025CE01DF91CF911F910F91BB
:1015A000FF90EF900895CF93DF93EC0161157105E3
:1015B00059F0FB0101900020E9F73197AF01461B7C
:1015C000570B0E94B20A02C00E948E0ACE01DF9120
:1015D000CF910895CF93DF93EC01FB018617970716
:1015E00061F0608171816115710529F04481558137
:1015F0000E94B20A02C00E948E0ACE01DF91CF91F2
:1016000008953FB7F89480916D0290916E02A09179
:101610006F02B091700226B5A89B05C02F3F19F04C
:101620000196A11DB11D3FBFBA2FA92F982F882762
:10163000820F911DA11DB11DBC01CD0142E0660FBD
:10164000771F881F991F4A95D1F70895CF93DF938D
:1016500090E0FC01EE58FF4F2491FC01EA57FF4F48
:101660008491882361F190E0880F991FFC01E8596B
:10167000FF4FC591D491FC01EB56FE4FA591B4915B
:10168000611109C09FB7F8948881209582238883CF
:10169000EC912E230BC0623061F49FB7F89438812F
:1016A000822F809583238883EC912E2B2C939FBFD0
:1016B00006C08FB7F894E8812E2B28838FBFDF9167
:1016C000CF9108958F929F92AF92BF92CF92DF9267
:1016D000EF92FF926B017C010E94010B4B015C01B8
:1016E000C114D104E104F104F1F00E94010BDC010A
:1016F000CB0188199909AA09BB09883E9340A10525
:10170000B10570F321E0C21AD108E108F10888EEB2
:10171000880E83E0981EA11CB11CC114D104E10401
:10172000F10419F7DDCFFF90EF90DF90CF90BF90DD
:10173000AF909F908F9008952FB7F89460916902B1
:1017400070916A0280916B0290916C022FBF089594
:101750001F920F920FB60F9211242F933F938F93E6
:101760009F93AF93BF938091690290916A02A09179
:101770006B02B0916C023091680223E0230F2D3789
:1017800020F40196A11DB11D05C026E8230F029685
:10179000A11DB11D209368028093690290936A0293
:1017A000A0936B02B0936C0280916D0290916E02D7
:1017B000A0916F02B09170020196A11DB11D80939E
:1017C0006D0290936E02A0936F02B0937002BF916E
:1017D000AF919F918F913F912F910F900FBE0F90DE
:1017E0001F9018951F920F920FB60F9211242F93EE
:1017F0003F934F935F936F937F938F939F93AF9399
:10180000BF93CF93DF93EF93FF9380916702882379
:1018100011F18091660291E0980F90936602811118
:101820001AC0C091650280916402C817D8F060E0C8
:101830008AE00E94EE1760E080914C010E94EE1752
:1018400010926702809162029091630201969093D8
:1018500063028093620280916602883008F11092E0
:1018600066021EC0EC2FF0E0E85FFE4F9081809191
:101870006102D1E0D80FD093610261E070E001C055
:10188000660F8A95EAF7692380914C010E94EE1752
:10189000D63008F310926102CF5FC0936502DBCFB0
:1018A000FF91EF91DF91CF91BF91AF919F918F9178
:1018B0007F916F915F914F913F912F910F900FBE4C
:1018C0000F901F901895809167028111FCCF0895A9
:1018D000EF92FF920F931F93CF93DF936C3108F039
:1018E000C9C0C62F092F182FD3E0D60F0E94630C52
:1018F0002D2F209580E1289FA00111244227242F1D
:1019000030E0F22FEE27EF6FC90144E095958795FF
:101910004A95E1F7E827F92753E0220F331F5A953C
:10192000E1F7E227F327AD2FB0E064E0B595A79586
:101930006A95E1F7A15ABE4F8C9180931001DF7038
:10194000AD2FB0E0A15ABE4F8C9180931101312F81
:1019500063E171E0412F502F842F831B8C17E8F532
:101960008A01DA012D91AD01822F8E27B0E18B9F84
:1019700070011124E8268E2D90E0F82EEE24EF2F32
:10198000FF27EE29FF297C01D4E0F594E794DA954E
:10199000E1F7EE25FF25A3E0880F991FAA95E1F74F
:1019A000E827F927CB010197A22FB0E0D4E0B59545
:1019B000A795DA95E1F7A15ABE4F2C91DC012C9343
:1019C000D8018C91A82FAF70B0E0A15ABE4F8C9176
:1019D000DB018C936E5F7F4FBFCF61E06C0F660FB2
:1019E000E095F095C62FD0E0C05FDE4FDF0184E0C8
:1019F000B695A7958A95E1F7AF70BB27A15ABE4F60
:101A00008C918883A1E0A60FB0E0A05FBE4FEF01EC
:101A1000CF70DD27C15ADE4F88818C93A2E0A60FDC
:101A2000B0E0A05FBE4FEF01CD2FDD27C295CF7094
:101A3000C15ADE4F88818C93A3E0A60FB0E0A05F6F
:101A4000BE4FEF2FFF27EF70FF27E15AFE4F808137
:101A50008C93645F6093640210926502109261023D
:101A60001092660261E08AE00E94EE1781E08093A6
:101A7000670201C080E0DF91CF911F910F91FF902D
:101A8000EF900895EF92FF920F931F93CF93DF9300
:101A9000613608F060E6FC01E656FF4FC081D18157
:101AA00028977C012CE9E20EF11CF701208131819D
:101AB000C21BD30B1C161D0604F5062F10E0BC013B
:101AC000665C7F4F02960C171D075CF0AE010E940A
:101AD000EB18F70180819181C80FD91FD183C08392
:101AE0000CC0A8010E94EB18F70160817181060FFC
:101AF000171F1183008381E001C080E0DF91CF9147
:101B00001F910F91FF90EF900895CF93DF93EC0119
:101B100060E6CE010E94420D8111FACFDF91CF9194
:101B20000895AF92BF92CF92DF92EF92FF920F9300
:101B30001F93CF93DF93EC018B0160E971E0C80143
:101B40000E947F21892B11F464E20AC06BE871E0E6
:101B5000C8010E947F21892B11F46FE501C060E666
:101B6000CE010E94420D66E871E0C8010E947F210B
:101B7000892B39F58FAD843529F4FE01E056FF4FEE
:101B800010821FC0813351F4FE01E95AFF4F80815A
:101B9000843311F081E011C084E00FC0823351F42E
:101BA000FE01E95AFF4F8081843311F082E005C0C5
:101BB00085E003C0803529F483E0FE01E056FF4F45
:101BC000808361E871E0C8010E947F21892B09F0C0
:101BD0007AC0EAACF12CFE2CEE248BADE82A29E188
:101BE000E216F10408F06FC0FE01EB55FF4F8FAD18
:101BF00090E0982F88276E0130E4C30ED11CD601E7
:101C00002C91822B91838083329613968C9190E055
:101C1000982F882711962C91822B9183808332965E
:101C20001B968C9190E0982F882711962C91822BEF
:101C3000918380836E2D660FCE010E94420DB12CE0
:101C4000DE01AD55BF4F8B2D90E08E159F05D8F569
:101C5000880F991FFE01E80FF91F83AD22AD90E0B8
:101C6000922B2D913C9111972817390751F5E0FEE1
:101C700004C062E0CE010E94420DA12C8A2D90E0AA
:101C80008E159F0500F560E1CE010E94420DAB105C
:101C900016C0FE01E555FF4F8BAD90E0982F8827C9
:101CA0002CAD822B9183808332968FAD90E0982F5C
:101CB0008827D6012C91822B9183808304C0A39422
:101CC000DDCFB394C0CF6CE771E0C8010E947F21E3
:101CD000892B69F4FE01E155FF4F8AAD90E0982F02
:101CE00088272BAD822B9183808332963FC267E792
:101CF00071E0C8010E947F21892B29F4FE01ED5477
:101D0000FF4F8AAD44C062E771E0C8010E947F21A5
:101D1000892B69F42AAD223008F08DC2CE01820FE2
:101D2000911D820F911DFC01EC54FF4F13C06DE615
:101D300071E0C8010E947F21892BA9F42AAD2230CD
:101D400008F079C2CE01820F911D820F911DFC0116
:101D5000E854FF4F2CAD30E0322F22274DAD242B1D
:101D60003183208368C268E671E0C8010E947F2148
:101D7000892B79F48AAD823008F05DC2FE01E80F4C
:101D8000F11DE454FF4F2BAD208332968CAD808340
:101D900052C263E671E0C8010E947F21892B61F481
:101DA0008AAD823008F047C2FE01E80FF11DE05411
:101DB000FF4F81E09BAD59C06EE571E0C8010E9404
:101DC0007F21892B31F58AAD823008F034C290E052
:101DD0009E01280F391FF901EE53FF4F41E05BAD23
:101DE000511101C040E04083F901EC53FF4F2CAD8D
:101DF0002083FC01ED59FF4FEE0FFF1FEC0FFD1F7D
:101E00008EAD90E0982F88272FAD822B9183808311
:101E100012C269E571E0C8010E947F21892B51F44B
:101E20008AAD823008F007C2FE01E80FF11DE653CB
:101E3000FF4FE5C064E571E0C8010E947F21892B56
:101E4000C1F49AAD8BAD923008F0F5C1843008F042
:101E5000F2C1FE0124E0929FE00DF11D1124E80F74
:101E6000F11DE453FF4F81E09CAD911190CF80E0D4
:101E70008ECF6FE471E0C8010E947F21892B09F0A9
:101E80007FC08AAD823008F0D6C190E09E01280F55
:101E9000391FF901EC52FF4F41E05BAD511101C018
:101EA00040E040834CADF901EA52FF4F4083329647
:101EB00041E05DAD511101C040E04083880F991FA2
:101EC0008C0F9D1FFC01E652FF4F4EAD50E0542F8A
:101ED00044276FAD462B518340833496DE01A05CCE
:101EE000BF4F4C9150E0542F442711966C91462BD4
:101EF00051834083D901AE51BF4F41E0FE01EE5BFB
:101F0000FF4F5081511101C040E04C93F901EC5159
:101F1000FF4F21E0DE01AD5BBF4F3C91311101C0AD
:101F200020E02083FC01EA51FF4FDE01AC5BBF4F94
:101F30002C9130E0322F222711964C91242B3183A3
:101F40002083349611962C9130E0322F222711965F
:101F50004C91242B31832083349611962C9130E0C0
:101F6000322F222711964C91242B318320833496D3
:101F700011968C9190E0982F8827C55BDF4F33C175
:101F80006AE471E0C8010E947F21892B41F58AAD86
:101F9000823008F050C1DE01A80FB11DCD01FD0156
:101FA000EA50FF4F21E03BAD311101C020E020831A
:101FB000FC01E850FF4F21E03CAD311101C020E0B1
:101FC0002083FC01E650FF4F21E03DAD311101C0FF
:101FD00020E02083FC01E450FF4F8EADD8CE65E4B5
:101FE00071E0C8010E947F21892B59F48AAD8230AB
:101FF00008F021C1FE01E80FF11DE250FF4F8BAD4B
:10200000C6CE60E471E0C8010E947F21892BE1F413
:102010008AAD823008F00FC1FE01E80FF11DCF013B
:10202000F39521E03BAD311101C020E02083FC019C
:10203000EE5FFE4F21E03CAD311101C020E0208376
:10204000FC01EC5FFE4F2BC06BE371E0C8010E9406
:102050007F21892B69F42AAD263008F0ECC0CE012F
:10206000820F911D820F911DFC01EA5FFE4F72CE1F
:1020700066E371E0C8010E947F21892B91F48AAD4B
:10208000823008F0D8C09E01280F311DF901EE5EA4
:10209000FE4F2BAD208332962CAD208332968DAD32
:1020A00076CE61E371E0C8010E947F21892B81F423
:1020B0008AADFE01E85EFE4F8083319681E09BADE4
:1020C000911101C080E08083FE01E65EFE4F4EC0AC
:1020D0006CE271E0C8010E947F21892BA1F52BAD34
:1020E0002A3008F0A8C030E0FE01E20FF31FE45EE2
:1020F000FE4F81E09CAD911101C080E080834BE0F8
:10210000429FC001439F900D11248A5D9E4F8C0F0A
:102110009D1FDC011D924A95E9F74FAD4B3010F43D
:1021200050E002C04AE050E0BE016E5B7F4FDF919D
:10213000CF911F910F91FF90EF90DF90CF90BF90C4
:10214000AF900C94C72567E271E0C8010E947F211F
:10215000892B91F4FE01EC56FE4F81E09AAD91116E
:1021600001C080E08083FE01EB56FE4F8CAD90E015
:10217000982F88272DAD49CE62E271E0C8010E94F8
:102180007F21892B91F56AAD70E0762F66278BADA4
:10219000682BCE010E94CD1C893108F04CC090E024
:1021A000FE01E80FF91FE956FE4FDE01AE5BBF4F9F
:1021B0002C912083880F991F8C0F9D1FFC01E055E7
:1021C000FE4F12962C9130E0322F222711964C911F
:1021D000242B31832083F29611968C9190E0982FD6
:1021E0008827C95BDF4F288110CE6DE171E0C801FF
:1021F0000E947F21892BF9F48AAD90E0982F8827DF
:102200002BAD822B85319105B0F4FE01EC5EFD4FC4
:102210009183808340E0242F30E02817390758F459
:10222000DE01A20FB31FFD01EA5EFD4FDC962C918B
:1022300020834F5FF0CFDF91CF911F910F91FF90DF
:10224000EF90DF90CF90BF90AF9008952A9A0895B5
:102250002A980895CF92DF92EF92FF920F931F93E7
:10226000CF93DF93EC017A018B016C01C40ED51E74
:10227000CC15DD05A9F00E9428118FE00E943718C7
:102280008D2F0E9437188C2F0E943718219680E0DE
:102290000E943718F80181938F010E942611E8CF20
:1022A000C701DF91CF911F910F91FF90EF90DF90C9
:1022B000CF900895CF92DF92EF92FF920F931F93EA
:1022C000CF93DF93EC017A018B016C01C40ED51E14
:1022D000CC15DD05A1F00E94281180EF0E9437186F
:1022E0008D2F0E9437188C2F0E9437182196F801E5
:1022F00081918F010E9437180E942611E9CFC701F2
:10230000DF91CF911F910F91FF90EF90DF90CF90D1
:1023100008951F93CF93DF9300D0CDB7DEB7182F6A
:102320006A8399830E94281180EF0E94371899814F
:10233000892F0E943718812F0E9437186A81862FB3
:102340000E9437180E94261181E00F900F90DF91B4
:10235000CF911F9108951F93CF93DF93182F66E2BB
:1023600070E00E944E13C82FD0E067E270E0812F2A
:102370000E944E13DC2FCC279E01282BC901DF9130
:10238000CF911F910895CF93DF931F92CDB7DEB702
:102390006983DC01ED91FC910280F381E02D41E045
:1023A00050E0BE016F5F7F4F09950F90DF91CF9195
:1023B0000895FC01818D928D0895FC018489958991
:1023C000089522E232E0FC0131832083FB01408941
:1023D000518962897389FC014283538364837583C5
:1023E0000895DC01ED91FC91048CF58DE02D0994AC
:1023F00080E00895CF93DF931F92CDB7DEB7698356
:10240000DC01ED91FC910280F381E02D41E050E090
:10241000BE016F5F7F4F09950F90DF91CF910895B7
:10242000FC019485FB018485981303C081E09430FE
:1024300009F480E0089521E0FC018485843009F4EA
:1024400020E0822F08950895AF92BF92CF92DF923D
:10245000FF920F931F93CF93DF938C015B01EA01EF
:10246000FC01C688D788F08C80E590E00E9474015A
:102470008F2D0E94501B8C179D0720F48F2D0E94DA
:10248000501BEC019E01A501B6018F2D0E94EB1A95
:102490000E947301F801868997898C0F9D1F978B85
:1024A000868BCE01DF91CF911F910F91FF90DF902E
:1024B000CF90BF90AF900895CF93DF93EC01888DBC
:1024C000843061F00E948C19E88DF0E0EE0FFF1F60
:1024D000EF58FD4F1182108284E0888FDF91CF91F9
:1024E0000895EF92FF921F93CF93DF93FC01208D0D
:1024F000243011F080E01CC07B01EC0110E0812F42
:102500000E945B1A811102C0188F05C08831E1F367
:102510001F5F1430A1F7888D843061F3FD86EC864F
:102520001A8E198E20E0A70162E00E94A01981E0B6
:10253000DF91CF911F91FF90EF9008950F931F931C
:10254000CF93DF931F92CDB7DEB78C01DC01ED9105
:10255000FC910084F185E02D0995892B51F0BE0195
:102560006F5F7F4FF80184850E943E18898190E05B
:1025700002C08FEF9FEF0F90DF91CF911F910F91CE
:102580000895FC011382128288EE93E0A0E0B0E08F
:1025900084839583A683B78389E991E091838083BF
:1025A00082E292E097878687108A118A128A138ABC
:1025B00084E0808F0895CF92DF92EF92FF920F9385
:1025C0001F93CF93DF93CDB7DEB7E1970FB6F894A3
:1025D000DEBF0FBECDBF7C016A0102E212E01A83AA
:1025E00009831B821C821D821E82CE01099668AB64
:1025F00079AB0E94C1121DA30CA31EA21FA218A694
:1026000019A68091330390913403A0913503B091C2
:1026100036038CA79DA7AEA7BFA78B839C83AD83F2
:10262000BE8318861F82AE014C5D5F4F68A979A9F1
:10263000CE0101960E947B0281309105B1F4D70151
:10264000ED91FC910488F589E02D1BA70AA78EA1C6
:102650009FA1A8A5B9A58CA79DA7AEA7BFA7A601B6
:10266000BE01665D7F4FC7010995E1960FB6F894EC
:10267000DEBF0FBECDBFDF91CF911F910F91FF90B5
:10268000EF90DF90CF9008959B0190E00496982FF3
:102690008827642F820F931F0C9489110F931F9327
:1026A000CF93DF931F92CDB7DEB790E00496982FBB
:1026B00088278C01060F171F0E9428118FE00E94A7
:1026C0003718812F0E943718802F0E94371880E01A
:1026D0000E94371889830E94261189810F90DF910B
:1026E000CF911F910F910895CF93FC01C08D80E58C
:1026F00090E00E94740160E270E08C2F0E94DB1A6F
:1027000062E070E08C2F0E944E1384FD19C062E0DD
:1027100070E08C2F0E944E1383FF0BC048E162E0F3
:1027200070E08C2F0E9444130E94730180E090E0BF
:1027300011C00E94730180E590E00E947401E0CF17
:1027400040E162E070E08C2F0E9444130E9473010C
:1027500081E090E0CF910895CF93DF93C82FD62FDB
:10276000472F60E170E00E9444134D2F61E170E05B
:102770008C2FDF91CF910C944413FF920F931F93F2
:10278000CF93DF93FB01DC0157961C921E92569764
:102790005896FC908281811109C08381811106C005
:1027A0008481811103C085818823F9F04115510589
:1027B000E1F08A01EF0180E590E00E947401BE0122
:1027C0006E5F7F4F2F2D30E0922F882744E050E03E
:1027D000845F9B4F0E945A11B8018F2D0E94AC1349
:1027E0000E94730181E090E002C080E090E0DF9100
:1027F000CF911F910F91FF900895FC018485843043
:1028000011F00C945B1A80E008958F929F92AF9222
:10281000BF92CF92DF92EF92FF920F931F93CF93CD
:10282000DF93CDB7DEB72D970FB6F894DEBF0FBE9E
:10283000CDBF7C0100E010E098EE892E93E0992E48
:10284000A12CB12C23E7C22E21E0D22E1C821B82A8
:102850008D829E82AF82B886DA82C9820D87CE01D0
:1028600001960E94FD13811129C0D70114964D9144
:102870005C91159720E061E0802F0E94A01980E50F
:1028800090E00E94740163E070E0802F0E944E137C
:10289000833129F462E070E0802F0E94DB1A0E94ED
:1028A0007301000F111FF801EF58FD4FD701149667
:1028B0008D919C9115979183808305C00F5F1F4F69
:1028C0000430110519F62D960FB6F894DEBF0FBE31
:1028D000CDBFDF91CF911F910F91FF90EF90DF90CF
:1028E000CF90BF90AF909F908F900895CF93DF933C
:1028F000FC0124852430D1F0EC010E94FD138431C9
:1029000081F0882371F0883161F08C3161F4E881C5
:10291000F9810084F185E02DCE01099521E0892B14
:1029200019F420E001C021E0822F01C080E0DF9196
:10293000CF910895CF92DF92EF92FF921F93CF93A2
:10294000DF93FC0114851430A9F1EC0180E590E0DF
:102950000E94740168E070E0812F0E94DB1A0E94DF
:1029600073010E949C0B6B017C01CE010E94FD1340
:102970008823B1F061E070E080E090E00E94620B9B
:102980000E949C0BDC01CB018C199D09AE09BF098B
:10299000883E9340A105B10540F38C850E948C19B7
:1029A000EC85F0E0EE0FFF1FEF58FD4F1182108213
:1029B00084E08C87DF91CF911F91FF90EF90DF90A3
:1029C000CF9008952F923F924F925F926F927F9295
:1029D0008F929F92AF92BF92CF92DF92FF920F930E
:1029E0001F93CF93DF93CDB7DEB761970FB6F894FF
:1029F000DEBF0FBECDBF8C015B014A0181E792E0D3
:102A00009F878E87998B888BF12CC12CD12C38EE27
:102A1000432E33E0532E612C712C43E7242E41E0EA
:102A2000342E1C821B824D825E826F8278863A82AF
:102A30002982FD86E889F98921913191F98BE88B0A
:102A4000D80114968D919C91159728173907B9F4E0
:102A5000CE0101960E94FD13843171F0CE010196E2
:102A60000E94FD138C3159F4CE0101960E946A0137
:102A7000892B09F459C003C0CC24C394D12CF394FE
:102A8000B4E0FB12CECFCD2841F4D801ED91FC91FA
:102A90000084F185E02DC8010995F12C612C712C81
:102AA00088EE282E83E0382E412C512C93E7C92E36
:102AB00091E0D92E1C821B822D823E824F82588645
:102AC000DA82C982FD86EE85FF8521913191FF87EB
:102AD000EE87D80114968D919C9115972817390788
:102AE00031F4CE0101960E94FD13873111F1F39468
:102AF000B4E0FB12DFCFC30161960FB6F894DEBFDE
:102B00000FBECDBFDF91CF911F910F91FF90DF904E
:102B1000CF90BF90AF909F908F907F906F905F907D
:102B20004F903F902F900895CE0101960E949A14E5
:102B3000A6CFA401B501CE0101960E947701680ECF
:102B4000791ED5CF0895CF92DF92EF92FF920F9327
:102B50001F93CF93DF936C017A018B01C0E0D0E02B
:102B6000CE15DF0589F0D8016D918D01D601ED916B
:102B7000FC910190F081E02DC6010995892B11F49B
:102B80007E0102C02196ECCFC701DF91CF911F914A
:102B90000F91FF90EF90DF90CF900895FC01538D3F
:102BA000448D252F30E0842F90E0821B930B541727
:102BB00010F0CF96089501970895FC01918D828DB4
:102BC000981761F0828DDF01A80FB11D5D968C9181
:102BD000928D9F5F9F73928F90E008958FEF9FEF8C
:102BE0000895FC01918D828D981731F0828DE80F48
:102BF000F11D858D90E008958FEF9FEF0895FC0102
:102C0000918D228D892F90E0805C9F4F821B9109CE
:102C10008F739927089584E992E00E94FF1521E0BF
:102C2000892B09F420E0822F0895FC01848DDF01B7
:102C3000A80FB11DA35ABF4F2C91848D90E001962F
:102C40008F739927848FA689B7892C93A089B1891E
:102C50008C9180648C93938D848D981306C0028828
:102C6000F389E02D80818F7D80830895EF92FF921C
:102C70000F931F93CF93DF93EC0181E0888F9B8D9F
:102C80008C8D981305C0E889F989808185FD24C061
:102C9000F62E0B8D10E00F5F1F4F0F731127E02EE4
:102CA0008C8DE8120CC00FB607FCFACFE889F989C1
:102CB000808185FFF5CFCE010E941516F1CF8B8D57
:102CC000FE01E80FF11DE35AFF4FF0820B8FEA89F6
:102CD000FB898081806207C0EE89FF896083E88973
:102CE000F98980818064808381E090E0DF91CF91D9
:102CF0001F910F91FF90EF900895CF93DF93EC0118
:102D0000888D8823C9F0EA89FB89808185FD05C00B
:102D1000A889B9898C9186FD0FC00FB607FCF5CF45
:102D2000808185FFF2CFA889B9898C9185FFEDCF8D
:102D3000CE010E941516E7CFDF91CF91089580E074
:102D400090E0892B29F00E940B1681110C94000051
:102D500008950E94AB25FC01808191810C94492447
:102D6000FC01118210821382128215821482611575
:102D7000710551F0FB0101900020E9F73197AF0197
:102D8000461B570B0C94B20A08956115710579F032
:102D9000FB0101900020E9F73197AF01461B570B6B
:102DA000DC01ED91FC910280F381E02D099480E03B
:102DB00090E008954F925F926F927F92EF92FF9210
:102DC0000F931F93CF93DF93CDB7DEB7A1970FB6C5
:102DD000F894DEBF0FBECDBF7C01FA01CB0119A272
:102DE000223008F42AE08E010F5D1F4F422E512C35
:102DF000612C712CBF01A30192010E94D522F9011F
:102E0000CA01015011096A3014F4605D01C0695CA7
:102E1000D8016C93232B242B252B61F7B801C70114
:102E20000E94C516A1960FB6F894DEBF0FBECDBFA7
:102E3000DF91CF911F910F91FF90EF907F906F9056
:102E40005F904F9008958F929F92AF92BF92CF92D2
:102E5000DF92EF92FF920F931F93CF93DF937C014A
:102E6000EB016C0182E0C80ED11C4701E5E08E0E3B
:102E7000911C00E010E0F60141916F0150E060E02C
:102E800070E02AE0CE010E94DA165C01E881F98147
:102E90000190F081E02D6EE2CE0109958A0D9B1D17
:102EA000080F191FC814D90431F7F701458150E004
:102EB00060E070E02AE0CE010E94DA16800F911FD8
:102EC000DF91CF911F910F91FF90EF90DF90CF9006
:102ED000BF90AF909F908F9008951F920F920FB662
:102EE0000F9211242F933F934F935F936F937F9390
:102EF0008F939F93AF93BF93EF93FF9384E992E0F7
:102F00000E941516FF91EF91BF91AF919F918F9104
:102F10007F916F915F914F913F912F910F900FBED5
:102F20000F901F9018951F920F920FB60F921124B9
:102F30002F938F939F93EF93FF93E091A402F091CF
:102F4000A5028081E091AA02F091AB0282FD12C03D
:102F500090818091AD028F5F8F732091AE028217B6
:102F600051F0E091AD02F0E0EC56FD4F958F80936B
:102F7000AD0201C08081FF91EF919F918F912F91C0
:102F80000F900FBE0F901F901895833081F028F49A
:102F9000813099F08230A1F008958730A9F088300F
:102FA000B9F08430D1F4809180008F7D03C080918E
:102FB00080008F7780938000089584B58F7702C05A
:102FC00084B58F7D84BD08958091B0008F7703C054
:102FD0008091B0008F7D8093B00008951F93CF93B0
:102FE000DF93282F30E0F901E156FE4F8491F9017B
:102FF000EE58FF4FD491F901EA57FF4FC491CC230B
:10300000C9F0162F81110E94C517EC2FF0E0EE0FCA
:10301000FF1FEB56FE4FA591B4918FB7F894111195
:1030200005C09C91ED2FE095E92302C0EC91ED2BBA
:10303000EC938FBFDF91CF911F91089508951F9357
:10304000CF93DF93182F60E270E00E944E13C82FD9
:10305000D0E061E270E0812F0E944E13DC2FCC277C
:103060009E01282BC901DF91CF911F9108958EBD3C
:1030700000000DB407FEFDCF8EB508951F93CF93CA
:10308000DF9300D0CDB7DEB7182F80E590E06983DD
:103090007A830E94740121E041E050E069817A81E5
:1030A000812F0E94611C0E94730181E090E00F90CB
:1030B0000F90DF91CF911F910895CF93DF931F92CF
:1030C000CDB7DEB7FC01218D328D232B49F0BE0137
:1030D0006F5F7F4F808D0E943E18898190E002C013
:1030E0008FEF9FEF0F90DF91CF910895FF920F9395
:1030F0001F93CF93DF93F82E80E590E00E94740138
:10310000C0E0D0E08F2D0E94AB118C01892B21F003
:103110008F2D0E94AB11EC01C017D10799F70E94C7
:103120007301CE01DF91CF911F910F91FF90089510
:10313000AF92BF92CF92DF92EF92FF921F93CF9305
:10314000DF93182F5B017A0180E590E00E94740103
:10315000C0E0D0E0812F0E94AB116C01892B21F0DF
:10316000812F0E94AB11EC01CC15DD0599F720975A
:1031700099F463E070E0812F0E944E138431F1F0E6
:103180008823E1F0C1E0D0E08C3111F4C0E0D0E060
:10319000D195C195D10912C0EC16FD060CF4E701DA
:1031A0001C161D065CF420E0AE01B501812F0E94C3
:1031B000611C60E470E0812F0E94DB1A0E947301A1
:1031C000CE01DF91CF911F91FF90EF90DF90CF90D4
:1031D000BF90AF900895CF93DF93FC01218D328D86
:1031E0002115310519F48FEF9FEF11C0EC01421743
:1031F000530708F0A901888D0E949818181619061F
:1032000094F7298D3A8D281B390B3A8F298FDF913E
:10321000CF9108950F931F93CF93DF931F92CDB754
:10322000DEB7FC01218D328D232B61F08C0141E052
:1032300050E0BE016F5F7F4F808D0E949818181676
:1032400019061CF08FEF9FEF08C0F801818D928D59
:103250000197928F818F898190E00F90DF91CF91BC
:103260001F910F9108950F931F93CF93DF93CDB7C5
:10327000DEB728970FB6F894DEBF0FBECDBF8C0126
:10328000F801818D928D892B49F0D801ED91FC9147
:103290000284F385E02DC8010995F2CF808D0E944C
:1032A0007618181619065CF548E050E0BE016F5F0D
:1032B0007F4FD80158968C910E9498189C0118163F
:1032C0001906DCF489819A81AB81BC81F801808B7D
:1032D000918BA28BB38B8D8190E0982F88272E81C4
:1032E000820F911D958B848B2F8130E0322F222706
:1032F0008885280F311D328F218FC90102C080E0DF
:1033000090E028960FB6F894DEBF0FBECDBFDF91D8
:10331000CF911F910F910895CF93C82F80E590E032
:103320000E94740160E170E08C2F0E94DB1A4FEF65
:1033300062E070E08C2F0E944413CF910C947301D3
:10334000FF920F931F93CF93DF9300D0CDB7DEB7DB
:10335000F82E8A012A8369830E948C1980E590E007
:103360000E9474012A816981462F422B60E070E03F
:103370008F2D0E9444130115110551F40091820212
:10338000109183020F5F1F4F1093830200938202FC
:10339000412F64E070E08F2D0E944413402F65E0C0
:1033A00070E08F2D0E94441361E070E08F2D0E9429
:1033B000DB1A0E94730181E00F900F90DF91CF9193
:1033C0001F910F91FF900895BF92CF92DF92EF92DD
:1033D000FF920F931F93CF93DF9300D000D000D0C4
:1033E000CDB7DEB7FC01208D243009F053C06A014F
:1033F0007B018C01B12C63E070E08B2D0E944E1399
:10340000811103C0F801B08E06C08831D9F3B3949E
:10341000F4E0BF12F0CFF801808D8430D9F196E04E
:10342000EEECF1E0DE01119601900D929A95E1F734
:10343000F70193819F779C8394819D8395819E83DF
:10344000B7016E5F7F4F90E0982F882744E050E0EF
:10345000845F9B4F0E945A11B601F801808D0E9433
:10346000AC13F801808D90E0982F882746E050E05B
:10347000BE016F5F7F4F8A5F9B4F0E945A11F80118
:10348000128E118E20E8A60162E0808D0E94A019A4
:1034900081E001C080E026960FB6F894DEBF0FBE33
:1034A000CDBFDF91CF911F910F91FF90EF90DF90F3
:1034B000CF90BF9008951F93CF93DF931F92CDB706
:1034C000DEB7182F80E590E00E94740163E070E0A1
:1034D000812F0E944E1389830E94730189810F906E
:1034E000DF91CF911F910895CF93DF93FC01448129
:1034F00055816081718184E992E00E94A315EC01FD
:103500006AE272E084E992E00E94C5168C0F9D1F6A
:10351000DF91CF910895CF93DF93BC0184E992E0CE
:103520000E94C516EC016AE272E084E992E00E9412
:10353000C5168C0F9D1FDF91CF910895CF93DF9318
:10354000EC0180914503909146030097C9F0688192
:1035500079816115710591F04091470350914803BD
:103560002C813D814217530748F00E94C0258C8171
:103570009D8190934A038093490318C00E94492477
:103580008881998190934603809345038A819B812A
:1035900090934803809347038C819D8190934A03C5
:1035A00080934903198218821B821A821D821C8211
:1035B000DF91CF910895CF93C82F462F61E070E03F
:1035C0000E94441361E070E08C2F0E944E13811121
:1035D000F9CFCF9108959F92AF92BF92CF92DF9291
:1035E000EF92FF920F931F93CF93DF93982E8B014F
:1035F0005A01690164E270E00E944E13E82EF12C3A
:1036000065E270E0892D0E944E13FE2CEE24E82A1C
:10361000E701C00FD11F9E013770E92CF12CC701C3
:10362000880F991FAC014C575D4F7A01FA018081D8
:103630009181820F931FA9014C0D5D1D41305840AF
:1036400090F000E018E0021B130BA801B5010E94E6
:103650005A11A601401B510BB501600F711FF701F4
:103660008081918102C0A601B5010E945A11CC0D42
:10367000DD1D4D2F64E270E0892D0E9444134C2F14
:1036800065E270E0892DDF91CF911F910F91FF903E
:10369000EF90DF90CF90BF90AF909F900C94441329
:1036A000FF920F931F93CF93DF93F82EC0E0D0E0EB
:1036B0008F2D0E941F188C01892B21F08F2D0E94C5
:1036C0001F18EC01C017D10799F7CE01DF91CF91F8
:1036D0001F910F91FF9008951F93CF93DF9300D018
:1036E00000D000D0CDB7DEB7182F82E292E09A83E7
:1036F00089838091780390917903A0917A03B091A6
:103700007B038B839C83AD83BE8346EB56E2BE0175
:103710006F5F7F4F89E593E00E94BD13412F50E01A
:1037200061E973E089E593E00E94241289E593E062
:103730000E94741326960FB6F894DEBF0FBECDBF5D
:10374000DF91CF911F91089580E6E1E9F3E0DF0179
:103750001D928A95E9F708950F931F93CF93DF93F6
:103760008C01C0E0D0E0F801EC0FFD1F64916623EE
:1037700071F0E0919402F09195020190F081E02DBA
:1037800084E992E00995892B11F02196ECCFCE01C6
:10379000DF91CF911F910F910895CF92DF92EF9219
:1037A000FF9210927E0310927D0310927F0310927D
:1037B0008103109282038BEA93E5909384038093B4
:1037C00083030E949C0B6093850370938603809310
:1037D00087039093880345E050E06FEF70E08BE83B
:1037E00093E00E94B92588E2809380030E944A21D9
:1037F00020E63BE340E050E00E946C226B017C013C
:1038000024EBC20E23ECD21EE11CF11CB60189E5AB
:1038100093E00E94711280917C03882309F18FEB61
:1038200091E00E94AC1BE0917603F0917703019048
:10383000F081E02D64E972E086E793E0099583EB7F
:1038400091E00E94AC1B2AE0B701A60184E992E056
:103850000E94DA166AE272E084E992E00E94C516DC
:103860000E94A41B80E18093910384E180939203E2
:1038700080918303909184039093930380939403A6
:10388000109295031092960381E080939D038AE342
:1038900080939A0384E1FF90EF90DF90CF900C9497
:1038A0006C1BCF93DF930E94AC1BEC016AE272E0C9
:1038B00084E992E00E94C5168C0F9D1FDF91CF9185
:1038C00008958F929F92AF92BF92CF92DF92EF9224
:1038D000FF920F931F93CF93DF93B82E4B018A0172
:1038E000A22E68E270E00E944E13C82FD0E069E279
:1038F00070E08B2D0E944E13DC2FCC27C82B9E012D
:103900003770CB2CD12CC601880F991FAC014457BE
:103910005D4F6A01FA0180819181820F931FA80196
:10392000420F531F4130584098F060E078E07B012F
:10393000E21AF30AA701B4010E942A11A8014E1944
:103940005F09B4016E0D7F1DF6018081918102C077
:10395000A801B4010E942A11A1100EC0C00FD11FEE
:103960004D2F68E270E08B2D0E9444134C2F69E2CA
:1039700070E08B2D0E944413DF91CF911F910F9126
:10398000FF90EF90DF90CF90BF90AF909F908F907F
:10399000089585E493E00C94AB166D30710509F43D
:1039A0007AC0B8F56730710509F46DC0C8F46430A9
:1039B000710509F464C050F46230710509F45DC00A
:1039C0006330710509F079C082E0089565307105B2
:1039D00009F457C06630710509F06FC085E008959D
:1039E0006A30710509F453C050F46830710509F468
:1039F0004CC06930710509F060C088E008956B30F3
:103A0000710509F446C06C30710509F056C08BE0B1
:103A100008956331710509F446C0A8F46031710559
:103A2000F1F148F46E307105C1F16F30710509F0A4
:103A300044C08EE008956131710599F162317105DC
:103A4000E1F581E108956D3484E0780781F140F477
:103A50006431710551F1693E734079F584E108954F
:103A6000613D87E0780729F1623D87E0780719F129
:103A7000613B744011F586E1089581E0089583E08B
:103A8000089584E0089586E0089587E0089589E028
:103A900008958AE008958CE008958DE008958FE000
:103AA000089580E1089582E1089583E1089585E114
:103AB000089587E1089588E1089580E00895CF93FF
:103AC000DF93CDB7DEB7AB970FB6F894DEBF0FBE6E
:103AD000CDBF789484B5826084BD84B5816084BD97
:103AE00085B5826085BD85B5816085BD80916E009C
:103AF000816080936E0010928100809181008260CD
:103B00008093810080918100816080938100809109
:103B100080008160809380008091B10084608093F8
:103B2000B1008091B00081608093B00080917A00F4
:103B3000846080937A0080917A00826080937A001A
:103B400080917A00816080937A0080917A00806809
:103B500080937A001092C10002E212E01A83098376
:103B60008091410390914203A0914303B09144039B
:103B70008B839C83AD83BE83CE0101960E940B098B
:103B80008BE493E00E9405141A8309838091530308
:103B900090915403A0915503B09156038B839C835D
:103BA000AD83BE83CE0101960E94820882E080939D
:103BB0007C030E94CD1B80918103811105C080E0B0
:103BC00090E00E94F605F7CF8CE080934C018EE0E8
:103BD000EDEBF1E0DE01119601900D928A95E1F78F
:103BE0007E0123E0E20EF11C11E0F7016191719179
:103BF0007F0180E090E00E94DE219B01AC0160E04B
:103C000074E284E79BE40E9406239B01AC0160E020
:103C100070E080E89FE30E9406239B01AC016FE601
:103C200072E183E898E30E9406230E9478234B0107
:103C30005C01F2E08F1A9108A108B1082DEF8216FD
:103C40002FEF9206A104B10408F4A5C01F5F17303E
:103C500061F6623071058105910560F161157105AC
:103C6000E1E08E07910530F5112321F110928000DB
:103C700028E02093810020918100122B1093810075
:103C8000709389006093880080916F0082608093B8
:103C90006F0061E080914C010E94260B60E08BE098
:103CA0000E94260B61E08AE00E94260B60E08AE019
:103CB0000E94EE17E091A402F091A50282E08083B9
:103CC000E091A402F091A5021082E091A002F0918F
:103CD000A1021082E091A202F091A30280E1808310
:103CE0001092AC02E091A802F091A90286E08083D4
:103CF000E091A602F091A702808180618083E0912B
:103D0000A602F091A702808188608083E091A602DC
:103D1000F091A702808180688083E091A602F091F3
:103D2000A70280818F7D808380E392E00E948B1ABE
:103D300011E080917902811127C084E992E00E940C
:103D4000FF1518161906ACF7CE0101960E945F0503
:103D5000CE0101960E949E1ACE0101960E94AB16DA
:103D60008091450390914603009719F30E945821D2
:103D70006130710581059105E1F688E392E00E94CA
:103D80008B1A10937902D5CF84E992E00E94FF1537
:103D9000892BD1F304C0163009F066CF8BCF8AE4AB
:103DA00092E00E948B1A80910B0490910C04A0E089
:103DB000B0E080937E0290937F02A0938002B09344
:103DC00081028EE190E00E94F60580910F049091AF
:103DD0001004A0E0B0E080937A0290937B02A0935D
:103DE0007C02B0937D028EE190E00E94F605C090C7
:103DF0007A02D0907B02E0907C02F0907D0280916C
:103E0000510190915201A0915301B0915401C816F3
:103E1000D906EA06FB0609F44FC0B601635D7D4F83
:103E200085E493E00E94D30A63E070E0CE018996B6
:103E30000E943C0A63E0CE0189960E94680C0E94B1
:103E4000630C84E992E00E947D161CA21BA21EA2B4
:103E50001DA218A61FA22AE0AE014F5F5F4FC70147
:103E6000B6010E948821BE016F5F7F4FCE0183960D
:103E70000E94D30A63E472E0CE0101960E94B0165C
:103E80004FA158A56BA17CA1CE0101960E94600AAA
:103E9000811104C0CE0101960E948E0ACE010196C6
:103EA0000E94A00A0E94741ACE0101960E94AB16CD
:103EB000CE0183960E94AB16C0907E02D0907F0206
:103EC000E0908002F090810280914D0190914E012E
:103ED000A0914F01B0915001C816D906EA06FB0621
:103EE00009F44FC0B601695B7D4F85E493E00E9401
:103EF000D30A63E070E0CE0189960E943C0A63E039
:103F0000CE0189960E94680C0E94630C84E992E0BD
:103F10000E947D161CA21BA21EA21DA218A61FA2F3
:103F20002AE0AE014F5F5F4FC701B6010E948821B2
:103F3000BE016F5F7F4FCE0183960E94D30A63E478
:103F400072E0CE0101960E94B0164FA158A56BA158
:103F50007CA1CE0101960E94600A811104C0CE01AD
:103F600001960E948E0ACE0101960E94A00A0E942C
:103F7000741ACE0101960E94AB16CE0183960E9460
:103F8000AB166CE272E085E493E00E94D30A84E908
:103F900092E00E94FF1518161906C4F5EDB6FEB69C
:103FA000CE0101960E945F05CE0101960E949E1AE5
:103FB000CE0101960E94AB1684E992E00E947D1624
:103FC0006091490370914A038DB79EB7861B970B8A
:103FD0000FB6F8949EBF0FBE8DBF0DB71EB70F5F13
:103FE0001F4F6115710531F00115110519F0C80158
:103FF0000E943C0A60914903C8010E94680C0E941B
:10400000630C0FB6F894FEBE0FBEEDBE80917E022B
:1040100090917F02A0918002B091810280934D0126
:1040200090934E01A0934F01B093500180917A027A
:1040300090917B02A0917C02B0917D02809351010E
:1040400090935201A0935301B09354010E949F1684
:10405000AACE0F931F93CF93DF93E8E8F5E0C2E277
:10406000D2E0D183C0831282138214821582E4E9E4
:10407000F2E01382128288EE93E0A0E0B0E0848345
:104080009583A683B78388ED91E09183808385EC47
:1040900090E09587848784EC90E09787868780EC12
:1040A00090E0918B808B81EC90E0938B828B82EC03
:1040B00090E0958B848B86EC90E0978B868B118EAD
:1040C000128E138E148EEEE8F5E0D183C083128237
:1040D000138214821582E4E9F5E0D183C083128251
:1040E000138214821582EAE9F5E0D183C08312823B
:1040F000138214821582E0EAF5E0D183C083128234
:10410000138214821582E6EAF5E0D183C08312821D
:10411000138214821582ECEAF5E0D183C083128207
:10412000138214821582E2EBF5E0D183C083128200
:10413000138214821582E1E3F3E0D183C0831282FB
:10414000138214821582E9E3F3E0D183C0831282E3
:10415000138214821582E8EBF5E0D183C0831282CA
:10416000138214821582E2E8F5E0D183C0831282C3
:1041700013821482158207E513E086E192E0F801CC
:104180009183808389E593E00E94C112F801D0A356
:10419000C78F11A212A213A214A28CE192E0918304
:1041A0008083E1E5F3E0D183C08300EC028318EA69
:1041B0001383148280EF8583EBE4F3E01382128291
:1041C0008CEF91E09183808387E190E095838483F5
:1041D0006CE272E085E493E00E94B016EFE3F3E056
:1041E000D183C0830283138314828FEA8583DF9196
:1041F000CF911F910F9108958F929F92AF92BF928E
:10420000CF92DF92EF92FF92CF93DF93EC01688120
:1042100079818A819B81611571058105910521F460
:1042200064E279ED8BE597E02DE133EF41E050E07A
:104230000E946C2249015A019B01AC01A7EAB1E43A
:104240000E948B226B017C01ACEEB4EFA5019401BE
:104250000E949922DC01CB018C0D9D1DAE1DBF1D5E
:10426000B7FF03C00197A109B04888839983AA8347
:10427000BB83BC01CD019F77DF91CF91FF90EF9081
:10428000DF90CF90BF90AF909F908F9008950E9445
:10429000FC20089585E591E00E94FC20089560933C
:1042A00055017093560180935701909358010895DA
:1042B0001F93FC0199278827BC01E89411911032C3
:1042C000E9F3193010F01E30C8F31B3251F01D32E3
:1042D00049F4689406C00E949721610F711D811DE9
:1042E000911D119110531A30B0F33EF490958095C2
:1042F000709561957F4F8F4F9F4F1F910895FB01E0
:10430000DC018D91059080190110D9F3990B089566
:10431000BB272A3051F4992342F4BDE29095809551
:10432000709561957F4F8F4F9F4F0C94AD21592F02
:10433000482F372F262F660F771F881F991F660F6C
:10434000771F881F991F620F731F841F951F660FA9
:10435000771F881F991F0895BB27FA01A62F6217A0
:10436000710581059105330B30FB66F0AA27660FB6
:10437000771F881F991FAA1FA21710F0A21B639511
:104380003850A9F7A05DAA3308F0A95DA19336F7CC
:10439000B111B1931082CA010C94CE21DC01FC0151
:1043A000672F71917723E1F7329704C07C916D9369
:1043B00070836291AE17BF07C8F30895E89409C0EF
:1043C00097FB3EF490958095709561957F4F8F4F48
:1043D0009F4F9923A9F0F92F96E9BB279395F6955E
:1043E000879577956795B795F111F8CFFAF4BB0FDC
:1043F00011F460FF1BC06F5F7F4F8F4F9F4F16C040
:10440000882311F096E911C0772321F09EE8872FC9
:10441000762F05C0662371F096E8862F70E060E085
:104420002AF09A95660F771F881FDAF7880F9695FE
:10443000879597F9089597F99F6780E870E060E0A5
:1044400008959FEF80EC089500240A94161617062D
:1044500018060906089500240A9412161306140675
:1044600005060895092E0394000C11F4882352F0D8
:10447000BB0F40F4BF2B11F460FF04C06F5F7F4F90
:104480008F4F9F4F089557FD9058440F551F59F077
:104490005F3F71F04795880F97FB991F61F09F3F31
:1044A00079F087950895121613061406551FF2CF5A
:1044B0004695F1DF08C0161617061806991FF1CFAA
:1044C00086957105610508940895E894BB276627D1
:1044D0007727CB0197F90895052E97FB1EF40094DA
:1044E0000E94832257FD07D00E94D52207FC03D0EB
:1044F0004EF40C94832250954095309521953F4F72
:104500004F4F5F4F089590958095709561957F4FBF
:104510008F4F9F4F08950E94F722A59F900DB49F43
:10452000900DA49F800D911D11240895B7FF0C9448
:104530008B220E948B22821B930B08952F923F9215
:104540004F925F926F927F928F929F92AF92BF92A3
:10455000CF92DF92EF92FF920F931F93CF93DF934F
:10456000CDB7DEB7CA1BDB0B0FB6F894DEBF0FBEAC
:10457000CDBF09942A88398848885F846E847D84F9
:104580008C849B84AA84B984C884DF80EE80FD80FB
:104590000C811B81AA81B981CE0FD11D0FB6F89471
:1045A000DEBF0FBECDBFED010895A1E21A2EAA1BFA
:1045B000BB1BFD010DC0AA1FBB1FEE1FFF1FA217D3
:1045C000B307E407F50720F0A21BB30BE40BF50BD0
:1045D000661F771F881F991F1A9469F76095709559
:1045E000809590959B01AC01BD01CF010895A29FDC
:1045F000B001B39FC001A39F700D811D1124911DB7
:10460000B29F700D811D1124911D08950E941A23DF
:104610000C9432220E942B2258F00E94242240F057
:1046200029F45F3F29F00C941B2251110C9466224F
:104630000C9421220E94432268F39923B1F355235D
:1046400091F3951B550BBB27AA27621773078407A5
:1046500038F09F5F5F4F220F331F441FAA1FA9F33B
:1046600035D00E2E3AF0E0E832D091505040E69529
:10467000001CCAF72BD0FE2F29D0660F771F881F8A
:10468000BB1F261737074807AB07B0E809F0BB0B7D
:10469000802DBF01FF2793585F4F3AF09E3F510591
:1046A00078F00C941B220C9466225F3FE4F3983E52
:1046B000D4F3869577956795B795F7959F5FC9F77A
:1046C000880F911D9695879597F90895E1E0660FFB
:1046D000771F881FBB1F621773078407BA0720F074
:1046E000621B730B840BBA0BEE1F88F7E0950895DD
:1046F0000E947F236894B1110C94662208950E9451
:104700004B2288F09F5798F0B92F9927B751B0F0F6
:10471000E1F0660F771F881F991F1AF0BA95C9F745
:1047200014C0B13091F00E946522B1E008950C945C
:104730006522672F782F8827B85F39F0B93FCCF30F
:10474000869577956795B395D9F73EF490958095C2
:10475000709561957F4F8F4F9F4F0895EE0FFF1F0C
:104760000590F491E02D0994CF93DF938230910569
:1047700010F482E090E0E091C005F091C10520E0E6
:1047800030E0C0E0D0E0309711F14081518148170E
:104790005907C0F04817590761F482819381209727
:1047A00019F09B838A832BC09093C1058093C00529
:1047B00026C02115310519F04217530718F49A0144
:1047C000BE01DF01EF010280F381E02DDCCF211576
:1047D000310509F1281B390B2430310590F412966C
:1047E0008D919C9113976115710521F0FB019383C5
:1047F000828304C09093C1058093C005FD01329669
:1048000044C0FD01E20FF31F8193919322503109BF
:104810002D933C933AC02091BE053091BF05232BC8
:1048200041F420915B0130915C013093BF052093EE
:10483000BE052091590130915A012115310541F4ED
:104840002DB73EB740915D0150915E01241B350BA1
:10485000E091BE05F091BF05E217F307A0F42E1B0F
:104860003F0B2817390778F0AC014E5F5F4F2417D4
:10487000350748F04E0F5F1F5093BF054093BE05AC
:104880008193919302C0E0E0F0E0CF01DF91CF91FE
:1048900008950F931F93CF93DF93009709F48CC073
:1048A000FC013297138212820091C0051091C1055C
:1048B0000115110581F420813181820F931F209110
:1048C000BE053091BF052817390779F5F093BF056C
:1048D000E093BE0571C0D80140E050E0AE17BF07BD
:1048E00050F412962D913C911397AD01211531058D
:1048F00009F1D901F3CF9D01DA013383228360816D
:104900007181860F971F8217930769F4EC01288144
:104910003981260F371F2E5F3F4F318320838A81D5
:104920009B8193838283452B29F4F093C105E09307
:10493000C00542C01396FC93EE931297ED01499186
:1049400059919E01240F351FE217F30771F48081FE
:104950009181840F951F029611969C938E9382816C
:10496000938113969C938E931297E0E0F0E0D80128
:1049700012968D919C911397009719F0F8018C0174
:10498000F6CF8D919C9198012E5F3F4F820F931F20
:104990002091BE053091BF052817390769F430977B
:1049A00029F41092C1051092C00502C01382128230
:1049B0001093BF050093BE05DF91CF911F910F911A
:1049C0000895A0E0B0E0E7EEF4E20C94A222EC013E
:1049D000009721F4CB010E94B423B8C0FC01E60F7C
:1049E000F71F9C0122503109E217F30708F4ACC00D
:1049F000D9010D911C91119706171707B0F00530DA
:104A0000110508F49FC0C80104978617970708F49A
:104A100099C002501109061B170B019311936D9356
:104A20007C93CF010E9449248DC05B01A01AB10A7A
:104A30004C01800E911EA091C005B091C10540E0CF
:104A400050E0E12CF12C109709F44AC0A815B905E3
:104A5000D1F56D907C901197630182E0C80ED11C56
:104A6000CA14DB0480F1A3014A195B096A0182E0E0
:104A7000C80ED11C1296BC9012971396AC91B5E05B
:104A8000CB16D10440F0B282A38351834083D90175
:104A90006D937C930AC00E5F1F4FC301800F911F5F
:104AA000F90191838083EB2DFA2FE114F10431F0A9
:104AB000D7011396FC93EE93129744C0F093C1056F
:104AC000E093C0053FC08D919C91119748175907FD
:104AD00008F4AC017D0112960D90BC91A02DB3CFCE
:104AE0008091BE059091BF0588159905E1F44617A0
:104AF0005707C8F48091590190915A01009741F4E9
:104B00008DB79EB740915D0150915E01841B950B5E
:104B1000E817F907C8F4F093BF05E093BE05F90163
:104B2000718360830FC0CB010E94B4237C01009786
:104B300059F0A801BE010E94B025CE010E9449246F
:104B4000C70104C0CE0102C080E090E0CDB7DEB75F
:104B5000EEE00C94BE2281E090E0F8940C94D6250F
:104B6000FB01DC0102C001900D9241505040D8F78A
:104B70000895DC0101C06D9341505040E0F7089565
:104B8000FB01DC0101900D920020E1F70895FB018B
:104B9000DC014150504048F001900D920020C9F7CF
:104BA00001C01D9241505040E0F7089510E0C8EF59
:104BB000D0E004C0FE010E94AE232196C93FD10778
:064BC000C9F7F894FFCFD5
:104BC60000C090A2DA00E8E92A2A2A2A2A2A382CE2
:104BD60000000000000000000000000000000000CF
:104BE60000000000000000000000000000000000BF
:104BF60000000000000000000000000000000000AF
:104C06000000000000000000000000000CFFFFFF95
:104C1600FFFFFFFFFF010000000000C20580000D3E
:104C26000E131516191A1C232526292A2C32340090
:104C360000000023017701490123126A0150019EF9
:104C460012EB01F6044C019A1476141B124501432B
:104C5600011012390100000000C311241249011E7F
:104C660018D9110A195D187112E4195C12BD13DB0B
:104C76001274133319EB18F111E111DD1100000163
:104C8600000800400000010004050D000A0B0100A9
:104C96005E000000000000003616A315CE157D1636
:104CA600FF15DD15F11500000000A916A315490131
:104CB6004801A916A916A91600000000FA11E21467
:104CC60049014801051400000000A916A315490171
:104CD600480100000000850D00000000910D000055
:104CE6000000231700000000A9160D0A003A320042
:104CF600636F6E6E656374003E636F6E6E6563749C
:104D06006564003E563A003A31003E526561647968
:0E4D160020746F207472616E736D69740000FA
:107E0000112484B714BE81FFF0D085E080938100F7
:107E100082E08093C00088E18093C10086E0809377
:107E2000C20080E18093C4008EE0C9D0259A86E02C
:107E300020E33CEF91E0309385002093840096BBD3
:107E4000B09BFECF1D9AA8958150A9F7CC24DD24C4
:107E500088248394B5E0AB2EA1E19A2EF3E0BF2EE7
:107E6000A2D0813461F49FD0082FAFD0023811F036
:107E7000013811F484E001C083E08DD089C08234E0
:107E800011F484E103C0853419F485E0A6D080C0E4
:107E9000853579F488D0E82EFF2485D0082F10E0AE
:107EA000102F00270E291F29000F111F8ED06801E7
:107EB0006FC0863521F484E090D080E0DECF843638
:107EC00009F040C070D06FD0082F6DD080E0C81688
:107ED00080E7D80618F4F601B7BEE895C0E0D1E017
:107EE00062D089930C17E1F7F0E0CF16F0E7DF06D8
:107EF00018F0F601B7BEE89568D007B600FCFDCFD4
:107F0000A601A0E0B1E02C9130E011968C91119780
:107F100090E0982F8827822B932B1296FA010C0160
:107F200087BEE89511244E5F5F4FF1E0A038BF0790
:107F300051F7F601A7BEE89507B600FCFDCF97BE46
:107F4000E89526C08437B1F42ED02DD0F82E2BD052
:107F50003CD0F601EF2C8F010F5F1F4F84911BD097
:107F6000EA94F801C1F70894C11CD11CFA94CF0C13
:107F7000D11C0EC0853739F428D08EE10CD085E9AC
:107F80000AD08FE07ACF813511F488E018D01DD067
:107F900080E101D065CF982F8091C00085FFFCCF94
:107FA0009093C60008958091C00087FFFCCF809118
:107FB000C00084FD01C0A8958091C6000895E0E648
:107FC000F0E098E1908380830895EDDF803219F02E
:107FD00088E0F5DFFFCF84E1DECF1F93182FE3DFCA
:107FE0001150E9F7F2DF1F91089580E0E8DFEE27F6
:047FF000FF270994CA
:027FFE00040479
:0400000300007E007B
:00000001FF