:100000000C9463000C948B000C948B000C948B006C
:100010000C948B000C948B000C948B000C948B0034
:100020000C948B000C948B000C948B000C94BB03F1
:100030000C948B000C948B000C948B000C948B0014
:100040000C9471030C948B000C9490010C946A0135
:100050000C948B000C948B000C948B000C948B00F4
:100060000C948C050C948B000000000023002600EB
:10007000290000000000240027002A0000000000E2
:10008000250028002B0004040404040404040202D4
:100090000202020203030303030301020408102007
:1000A0004080010204081020010204081020000012
:1000B0000008000201000003040700000000000027
:1000C0000000C40CBC0C11241FBECFEFD8E0DEBF73
:1000D000CDBF23E0A2EAB1E001C01D92A335B20773
:1000E000E1F711E0A0E0B1E0E0E5F2E202C0059046
:1000F0000D92A23AB107D9F710E0C2E6D0E004C0F1
:100100002197FE010E94000FC136D107C9F70E9456
:10011000A5080C941B110C940000FC01538D448D18
:10012000252F30E0842F90E0821B930B541710F0A2
:10013000CF96089501970895FC01918D828D9817AF
:1001400061F0828DDF01A80FB11D5D968C91928DBB
:100150009F5F9F73928F90E008958FEF9FEF0895B8
:10016000FC01918D828D981731F0828DE80FF11D81
:10017000858D90E008958FEF9FEF0895FC01918D9C
:10018000228D892F90E0805C9F4F821B91098F7395
:10019000992708958EE892E00E94BE0021E0892B05
:1001A00009F420E0822F0895FC01848DDF01A80F5F
:1001B000B11DA35ABF4F2C91848D90E001968F738F
:1001C0009927848FA689B7892C93A089B1898C91AE
:1001D00080648C93938D848D981306C00288F38974
:1001E000E02D80818F7D80830895EF92FF920F93A1
:1001F0001F93CF93DF93EC0181E0888F9B8D8C8DD3
:10020000981305C0E889F989808185FD24C0F62E00
:100210000B8D10E00F5F1F4F0F731127E02E8C8D99
:10022000E8120CC00FB607FCFACFE889F989808183
:1002300085FFF5CFCE010E94D400F1CF8B8DFE015A
:10024000E80FF11DE35AFF4FF0820B8FEA89FB891B
:100250008081806207C0EE89FF896083E889F9891F
:1002600080818064808381E090E0DF91CF911F9155
:100270000F91FF90EF900895CF93DF93EC01888D5D
:100280008823C9F0EA89FB89808185FD05C0A8899A
:10029000B9898C9186FD0FC00FB607FCF5CF808120
:1002A00085FFF2CFA889B9898C9185FFEDCFCE016A
:1002B0000E94D400E7CFDF91CF91089580E090E0D5
:1002C000892B29F00E94CA0081110C940000089526
:1002D0000E94FD101F920F920FB60F9211242F93C0
:1002E0003F934F935F936F937F938F939F93AF93BE
:1002F000BF93EF93FF938EE892E00E94D400FF91AA
:10030000EF91BF91AF919F918F917F916F915F918D
:100310004F913F912F910F900FBE0F901F90189506
:100320001F920F920FB60F9211242F938F939F93CA
:10033000EF93FF93E0919E02F0919F028081E09104
:10034000A402F091A50282FD12C090818091A702C3
:100350008F5F8F732091A802821751F0E091A7025E
:10036000F0E0E257FD4F958F8093A70201C0808196
:10037000FF91EF919F918F912F910F900FBE0F9052
:100380001F901895833081F028F4813099F08230E5
:10039000A1F008958730A9F08830B9F08430D1F405
:1003A000809180008F7D03C0809180008F77809343
:1003B0008000089584B58F7702C084B58F7D84BD99
:1003C00008958091B0008F7703C08091B0008F7D39
:1003D0008093B00008953FB7F89480918A0290917D
:1003E0008B02A0918C02B0918D0226B5A89B05C00E
:1003F0002F3F19F00196A11DB11D3FBFBA2FA92FA4
:10040000982F8827820F911DA11DB11DBC01CD0120
:1004100042E0660F771F881F991F4A95D1F708950C
:1004200085ED8093BC008091BC0084FDFCCF1092D0
:10043000A401089540911002262F30E0240F311DB1
:1004400021323105DCF42091A4012430C9F4FC01EF
:1004500080E090E0861758F4309110022191DC0181
:10046000A251BE4FA30FB11D2C930196F3CF8091E3
:100470001002680F6093100280E0089581E00895F3
:1004800082E00895089581E090E03091A8012091E4
:10049000A701321710F480E090E0919581959109C1
:1004A00008958091A8019091A701891730F48F5F7A
:1004B0008093A80180E090E008958FEF9FEF08956A
:1004C0008091A70190E02091A801821B91090895D5
:1004D000CF92DF92EF92FF920F931F93CF93DF9310
:1004E0007C01262F972F8A0180915902882391F051
:1004F000C62FD72F6E01C40ED51ECC15DD0571F0A9
:100500006991D701ED91FC910190F081E02DC70137
:100510000995F3CF642F822F0E941A02C801DF9140
:10052000CF911F910F91FF90EF90DF90CF900895A2
:10053000CF93DF931F92CDB7DEB769832091590225
:100540002223D1F02091A501203240F021E030E0BB
:10055000FC013383228380E090E015C08091A601E6
:10056000E82FF0E0E65AFD4F998190838F5F8093EA
:10057000A6018093A50105C061E0CE0101960E940D
:100580001A0281E090E00F90DF91CF9108950895D5
:1005900080E090E008951F93CF93DF93282F30E001
:1005A000F901E255FF4F8491F901E656FF4FD491CE
:1005B000F901EA57FF4FC491CC23C9F0162F8111DE
:1005C0000E94C201EC2FF0E0EE0FFF1FE458FF4F36
:1005D000A591B4918FB7F894111105C09C91ED2F9E
:1005E000E095E92302C0EC91ED2BEC938FBFDF91F6
:1005F000CF911F910895CF93DF9390E0FC01E656D1
:10060000FF4F2491FC01EA57FF4F8491882361F149
:1006100090E0880F991FFC01EE58FF4FC591D491CF
:10062000FC01E458FF4FA591B491611109C09FB737
:10063000F8948881209582238883EC912E230BC027
:10064000623061F49FB7F8943881822F80958323BC
:100650008883EC912E2B2C939FBF06C08FB7F89404
:10066000E8812E2B28838FBFDF91CF9108958F9241
:100670009F92AF92BF92CF92DF92EF92FF926B0167
:100680007C010E94EB014B015C01C114D104E10427
:10069000F104F1F00E94EB01DC01CB01881999090A
:1006A000AA09BB09883E9340A105B10570F321E07A
:1006B000C21AD108E108F10888EE880E83E0981E7E
:1006C000A11CB11CC114D104E104F10419F7DDCF60
:1006D000FF90EF90DF90CF90BF90AF909F908F9062
:1006E00008951F920F920FB60F9211242F933F93EC
:1006F0008F939F93AF93BF938091AB019091AC0187
:10070000A091AD01B091AE013091890223E0230F99
:100710002D3720F40196A11DB11D05C026E8230F39
:100720000296A11DB11D209389028093AB01909385
:10073000AC01A093AD01B093AE0180918A0290917B
:100740008B02A0918C02B0918D020196A11DB11D6A
:1007500080938A0290938B02A0938C02B0938D02B7
:10076000BF91AF919F918F913F912F910F900FBEAD
:100770000F901F9018951F920F920FB60F92112491
:100780002F933F934F935F936F937F938F939F9399
:10079000AF93BF93CF93DF93EF93FF938091AA0121
:1007A000882331F180918802811122C020910001BB
:1007B00030E0F901E255FF4F8491F901E656FF4F11
:1007C000D491F901EA57FF4FC491CC2369F181110B
:1007D0000E94C201EC2FF0E0EE0FFF1FE859FF4F1F
:1007E000A591B491EC91ED2381E0F1F08093870223
:1007F00080918802882341F08091860291E0980FD1
:1008000090938602882391F080918602883010F0C0
:10081000109286028091AA01882309F4C5C04091F4
:1008200088024423B9F0C0C080E0E0CF60E08AE0F5
:100830000E94CB0260E08CE00E94CB021092880202
:100840008091840290918502019690938502809315
:100850008402DACF80918702882329F09091830265
:100860009F5F909383022091820290918102821770
:1008700059F0903510F02DE101C02BE0920F9093CC
:1008800081028093820203C09C5E909381029091CA
:100890008102903A08F488C020917F023091800252
:1008A000369527953093800220937F0280918302B2
:1008B000853028F038603093800220937F02905A70
:1008C00090938102109283028091A901882309F4F8
:1008D0005BC090917E029F5F90937E029C3008F4F3
:1008E00063C020917F0230918002822F8F73EAE1F2
:1008F000F1E0DF0190E05D91851721F09F5F90317D
:10090000D1F790E050E1959FC001112496E0369513
:1009100027959A95E1F730E05191251721F03F5F37
:100920003031D1F701C0432F842B9091CD0191112B
:100930000EC080937D029CEF980F9B3140F0109287
:10094000A90180917C028F5F80937C022DC0E09191
:10095000CD0191E09E0F9093CD01F0E0E155FE4F67
:1009600080839091CD0180917D02981750F0109274
:10097000A90180917B028F5F80937B0281E080934D
:10098000CE0110927E0210C080917F029091800271
:1009900088339B4049F481E08093A90110927E0244
:1009A0001092CD011092CE01FF91EF91DF91CF9186
:1009B000BF91AF919F918F917F916F915F914F9177
:1009C0003F912F910F900FBE0F901F901895CF93CE
:1009D000FC01C48121E020935902C0937A02109255
:1009E000A6011092A5018385682B8BE293E00E94FB
:1009F00098028091A501813208F046C09091A4012F
:100A00009111FCCF92E09093A40191E09093A30107
:100A10009FEF909358021092570280935602AAE5D6
:100A2000B2E026E332E0F9019E2F921B981718F4EA
:100A30009D919193F9CF1092350280913502CC0FA0
:100A4000C82BC09335028091A201813061F41092CD
:100A5000A201809135028093BB008091BC0083FD90
:100A6000F8CF85EC01C085EE8093BC008091A40195
:100A70008230E1F3809158028F3F31F0809158022B
:100A8000803211F0809158021092A6011092A501B7
:100A900010925902CF9108950F931F93CF938C0119
:100AA000C62F0E94E7046C2F6460C8010E94E7040F
:100AB0006C2F6B7FC8010E94E70483EC90E00197E4
:100AC000F1F7CF911F910F910895FF920F931F930C
:100AD000CF93DF931F92CDB7DEB78C01F62E962F02
:100AE000907F692F642BC80149830E944C0580E1E7
:100AF000F89EB00111244981642BC8010F90DF9149
:100B0000CF911F910F91FF900C944C0541E00E94F2
:100B1000650581E090E008951F920F920FB60F9245
:100B200011242F933F934F935F936F937F938F93F2
:100B30009F93AF93BF93EF93FF938091B900887F0A
:100B4000803609F49CC068F5883209F45BC090F4E3
:100B5000803109F454C038F4882309F4F6C0883091
:100B600009F44DC0F6C0883109F44CC0803209F454
:100B70005DC0EFC0803409F468C048F4803309F4E4
:100B800055C0883309F0E5C080935802D8C080353D
:100B900009F44FC0883509F45DC0883409F0D9C024
:100BA000D6C0883909F4C7C0A8F4883709F467C0EB
:100BB00038F4883609F463C0803709F460C0C9C0CE
:100BC000883809F4B8C0803909F45FC0803809F06A
:100BD000C0C05BC0803B09F486C038F4803A09F499
:100BE00066C0883A09F47FC0B4C0803C09F4A7C04D
:100BF000883C09F4A4C0883B09F48AC0AAC080914B
:100C0000350210C09091570280915602981770F5E6
:100C1000E091570281E08E0F80935702F0E0EA5C8A
:100C2000FD4F80818093BB0085EC86C08093580285
:100C30008EC0E091570281E08E0F80935702809121
:100C4000BB00F0E0EA5CFD4F8083909157028091F9
:100C500056026EC0E091570281E08E0F80935702DA
:100C60008091BB00F0E0EA5CFD4F80838091A3019E
:100C700081116DC081E08093A20184EA61C083E0AC
:100C80008093A40110923402CFCF8091340280323D
:100C900008F051C0E091340281E08E0F809334025D
:100CA0008091BB00F0E0EC5EFD4F8083BDCF85EC12
:100CB0008093BC001092A40180913402803230F401
:100CC000E0913402F0E0EC5EFD4F1082609134025E
:100CD00070E0E0911202F091130284E192E0099534
:100CE0001092340236C084E08093A4011092110265
:100CF00010921002E0910E02F0910F02099580917E
:100D00001002811105C081E0809310021092EE0163
:100D1000E091110281E08E0F80931102F0E0E25128
:100D2000FE4F80818093BB00909111028091100250
:100D3000981708F479CF85E88093BC000AC085EC49
:100D40008093BC001092A40104C0109258020E942B
:100D50001002FF91EF91BF91AF919F918F917F9181
:100D60006F915F914F913F912F910F900FBE0F9018
:100D70001F901895CF92DF92EF92FF920F931F93DF
:100D8000CF93DF936C017A018B01C0E0D0E0CE15E8
:100D9000DF0589F0D8016D918D01D601ED91FC91AF
:100DA0000190F081E02DC6010995892B11F47E0197
:100DB00002C02196ECCFC701DF91CF911F910F9117
:100DC000FF90EF90DF90CF9008950F931F93CF93F4
:100DD000DF93EC0188819981009729F02A813B817A
:100DE0002617370788F48B016F5F7F4F0E943310FF
:100DF000009761F0998388831B830A832C813D814E
:100E0000232B11F4FC01108281E001C080E0DF910E
:100E1000CF911F910F910895CF93DF93EC018881BB
:100E20009981009711F00E949B0F198218821D82F0
:100E30001C821B821A82DF91CF910895EF92FF925C
:100E40000F931F93CF93DF938C017B016115710585
:100E500069F0FB0101900020E9F73197EF01C61B13
:100E6000D70BBE010E94E506811104C0C8010E9493
:100E70000C0708C0F801D583C483B7018081918134
:100E80000E941411C801DF91CF911F910F91FF9023
:100E9000EF900895CF93DF93CDB7DEB728970FB6C5
:100EA000F894DEBF0FBECDBF98E0EAE2F1E0DE01CC
:100EB000119601900D929A95E1F790914503492F73
:100EC00050E0282F30E02417350714F08FEF890FFA
:100ED000FE013196E80FF11DE80FF11D6081606899
:100EE00040E08DE393E028960FB6F894DEBF0FBE86
:100EF000CDBFDF91CF910C946505009769F0FC019F
:100F000001900020E9F73197AF01481B590BBC0154
:100F10008DE393E00C94BA0680E090E0089540E001
:100F200061E08DE393E00E9465058BE39FE101970B
:100F3000F1F70895FC0180819181009711F00C94E4
:100F4000170D60E070E0CB010895EF92FF920F93D0
:100F50001F93CF93DF93EC01FB0184819581E080A7
:100F6000F1800C811D81E114F104B1F00097B9F01A
:100F7000080F191FB801CE010E94E506882361F011
:100F8000288139818C819D81B701820F931F0E9436
:100F900014111D830C8303C0CE010E940C07CE01E7
:100FA000DF91CF911F910F91FF90EF900895FC0179
:100FB000808191810C949B0F0F931F93CF93DF93AC
:100FC000CDB7DEB762970FB6F894DEBF0FBECDBFC8
:100FD0008C01CB01F80111821082138212821582DA
:100FE000148250E0BE016F5F7F4F0E943E0DBE0134
:100FF0006F5F7F4FC8010E941E0762960FB6F8947C
:10100000DEBF0FBECDBFDF91CF911F910F9108952D
:10101000EF92FF920F931F93CF93DF93EC0119820E
:1010200018821B821A821D821C826115710521F1B2
:101030008B01FB0101900020E9F731977F01E61A4F
:10104000F70AB7010E94E506811109C0CE01DF91C0
:10105000CF911F910F91FF90EF900C940C07FD82A0
:10106000EC82B80188819981DF91CF911F910F9116
:10107000FF90EF900C941411DF91CF911F910F917D
:10108000FF90EF900895BF92CF92DF92EF92FF9280
:101090000F931F93CF93DF937C016B018A01E901CA
:1010A0002417350720F4812F8901C42FD82F66E833
:1010B00071E0C7010E940808D60114968D919C9199
:1010C000159708171907D0F48C179D0708F4EC0141
:1010D000D601ED91FC911197EC0FFD1FB0801082AD
:1010E0004D915C91BA01600F711FC7010E941E07EC
:1010F000D601ED91FC91EC0FFD1FB082C701DF918D
:10110000CF911F910F91FF90EF90DF90CF90BF9004
:101110000895CF93DF93EC01FB012481358142E0F8
:1011200050E00E944308CE01DF91CF910895DC0189
:10113000ED91FC91DB0114964D915C9115976D91A9
:101140007C910280F381E02D0994CF93DF93CDB79A
:10115000DEB7A0970FB6F894DEBF0FBECDBF789470
:1011600084B5826084BD84B5816084BD85B58260AC
:1011700085BD85B5816085BD80916E00816080935D
:101180006E001092810080918100826080938100C6
:1011900080918100816080938100809180008160D6
:1011A000809380008091B10084608093B100809131
:1011B000B00081608093B00080917A008460809359
:1011C0007A0080917A00826080937A0080917A0020
:1011D000816080937A0080917A00806880937A00A1
:1011E0001092C10060E08EE00E94FB0260E08FE0A0
:1011F0000E94FB0261E086E00E94FB0261E087E062
:101200000E94FB0261E085E00E94FB0261E088E051
:101210000E94FB0261E089E00E94FB0261E086E03F
:101220000E94CB0261E087E00E94CB0261E085E092
:101230000E94CB0261E088E00E94CB0260E089E07E
:101240000E94CB02E0919E02F0919F0282E0808397
:10125000E0919A02F0919B021082E0919C02F09141
:101260009D028FEC80831092A602E091A202F09181
:10127000A30286E08083E091A002F091A102808128
:1012800080618083E091A002F091A102808188605A
:101290008083E091A002F091A10280818068808328
:1012A000E091A002F091A10280818F7D8083109255
:1012B000A8011092A7011092A6011092A501109208
:1012C000A40181E08093A3011092A20161E082E178
:1012D0000E94CB0261E083E10E94CB028091B900C1
:1012E0008E7F8093B9008091B9008D7F8093B90083
:1012F00088E48093B80085E48093BC001092420398
:1013000080914703823018F098E0909342038093D5
:10131000450362E370E080E090E00E943703609153
:1013200048038DE393E00E94E70468EE73E080E0F9
:1013300090E00E94370360E38DE393E00E944C0548
:101340000BE416E4C8010197F1F760E38DE393E045
:101350000E944C05C8010197F1F760E38DE393E02B
:101360000E944C0583E592E00197F1F760E28DE37E
:1013700093E00E944C0560914203606240E08DE37F
:1013800093E00E94650584E08093430340E06CE0B5
:101390008DE393E00E9465050E948F0712E0109391
:1013A000440340E066E08DE393E00E94650540E081
:1013B00062E08DE393E00E9465058BE39FE1019776
:1013C000F1F788E08093480360E08DE393E00E94AA
:1013D000E70480E00E944A0782E691E00E947D07D0
:1013E000109300018EE0E9E0F1E0DE01119601903A
:1013F0000D928A95E1F77E0123E0E20EF11C11E0E7
:10140000F701619171917F0180E090E00E94930D5E
:101410009B01AC0160E074E284E79BE40E94580EFB
:101420009B01AC0160E070E080E89FE30E94580EF1
:101430009B01AC016FE672E183E898E30E94580ECD
:101440000E94CA0E4B015C01F2E08F1A9108A108BC
:10145000B1082DEF82162FEF9206A104B10408F413
:1014600087C21F5F173061F66230710581059105F3
:1014700060F161157105E1E08E07910530F51123EA
:1014800021F11092800028E02093810020918100BA
:10149000122B1093810070938900609388008091D3
:1014A0006F00826080936F0061E08CE00E94FB021D
:1014B00060E0809100010E94FB0261E08AE00E94EE
:1014C000FB0260E08AE00E94CB028091AA018111B8
:1014D00005C081E08093AA011092A9010E948F07A4
:1014E00080E00E944A0760910101709102014AE088
:1014F000CE0101960E94DC076AE671E0CE010F96EC
:101500000E940808BE016F5F7F4FCE010F960E94B8
:10151000A507BC018DE393E00E949708CE010F96CA
:101520000E94D707CE0101960E94D7078FB7F89483
:10153000C090AB01D090AC01E090AD01F090AE0155
:101540008FBF80E4B82EAA24A39401E010E0F8EE47
:10155000CF0EF3E0DF1EE11CF11C9090CF01911043
:1015600072C0B0927C0080917A00806480937A008F
:1015700080917A0086FDFCCF8091780020917900DF
:1015800090E0922B893E93405CF00E948F0780E0B0
:101590000E944A078EE691E00E947D07A092CF014B
:1015A0002FB7F8948091AB019091AC01A091AD015F
:1015B000B091AE012FBFC816D906EA06FB0668F641
:1015C0008FB7F894C090AB01D090AC01E090AD0122
:1015D000F090AE018FBF80910101909102010196C0
:1015E0009093020180930101099724F01093020166
:1015F000009301010E948F0780E00E944A076091DA
:101600000101709102014AE0CE0101960E94DC07BF
:101610006AE671E0CE010F960E940808BE016F5F76
:101620007F4FCE010F960E94A507BC018DE393E08A
:101630000E949708CE010F960E94D707CE0101960F
:101640000E94D70784CF0E948F0780E00E944A073C
:1016500060910101709102014AE0CE0101960E9461
:10166000DC076CE771E0CE010F960E940808BE010E
:101670006F5F7F4FCE010F960E94A507BC018DE3DF
:1016800093E00E949708CE010F960E94D707CE01E3
:1016900001960E94D70761E08BE00E94CB0260E0D8
:1016A0008CE00E94CB0260E08DE00E94CB026AEFEA
:1016B00070E080E090E00E94370360E08BE00E94E1
:1016C000CB0261E08CE00E94CB0260E08DE00E94E2
:1016D000CB026AEF70E080E090E00E94370360E0A8
:1016E0008BE00E94CB0260E08CE00E94CB0261E0C4
:1016F0008DE00E94CB026AEF70E080E090E00E94F3
:1017000037038091CE01882309F42FC18091CE0147
:10171000811131C060ED71E0CE014B960E94080846
:10172000BE01655E7F4F8EE892E00E94970842E01E
:1017300050E064E871E08EE892E00E94BA066091A1
:101740000101709102014AE0CE0145960E94DC073A
:1017500021E030E040E050E0BE01655E7F4FCE0109
:101760000F960E9443082B893C89898D9A8D2817F2
:101770003907D1F517C08091CD01835090911E009B
:10178000891710F480931E0040911E0050E060EB1A
:1017900071E080ED91E00E9402111092CE018091E3
:1017A000CD01B8CF8F8598896D897E89009719F012
:1017B00061157105A9F46115710551F02115310507
:1017C00039F0FB01808190E09195819591090AC0E3
:1017D000009739F1232B29F1FC01808190E002C0B0
:1017E0000E940B11892BE9F021E030E040E050E04D
:1017F000BE01655E7F4FCE0101960E9443088D8138
:101800009E81892B41F0E981FA8111E08081882352
:1018100019F010E001C0192DCE0101960E94D707E2
:1018200001C0192DCE010F960E94D707CE01459613
:101830000E94D70780E0112309F48DC00E944A0757
:10184000BE01655E7F4FCE0101960E948908CE01E0
:1018500001960E949A076B017C01CE0101960E94BD
:10186000D707BE01655E7F4FCE0101961C141D0493
:101870001E041F040CF046C00E948908CE01019688
:101880000E949A076B017C01CE0101960E94D70746
:10189000CA94CD28CE28CF2819F487E891E05FC0FC
:1018A000BE01655E7F4FCE0101960E948908CE0180
:1018B00001960E949A076B017C01CE0101960E945D
:1018C000D70722E0C216D104E104F10419F480E93B
:1018D00091E045C0BE01655E7F4FCE0101960E943A
:1018E0008908CE0101960E949A076B017C01CE0106
:1018F00001960E94D70783E0C816D104E104F104E1
:1019000081F52BC00E948908CE0101960E949A079A
:101910006B017C01CE0101960E94D707CD28CE280D
:10192000CF28F9F481E00E944A07BE01655E7F4F2F
:10193000CE0101960E948908BE016F5F7F4F8DE343
:1019400093E00E949708CE0101960E94D70780E09D
:101950000E944A0706C00E944A0789E991E00E9456
:101960007D07CE014B960E94D7070E945E01C9CE2B
:10197000163009F084CDA9CD87E393E00E94D70704
:1019800089E493E00C94D707EEE8F2E01382128228
:1019900088EE93E0A0E0B0E084839583A683B783CC
:1019A00026E331E03183208325EC30E0358724873E
:1019B00024EC30E03787268720EC30E0318B208B19
:1019C00021EC30E0338B228B22EC30E0358B248B02
:1019D00026EC30E0378B268B118E128E138E148EF0
:1019E000EBE2F3E01382128284839583A683B783AC
:1019F00088E491E09183808366E871E089E493E074
:101A00000E940808EDE3F3E0138212828AE591E078
:101A10009183808387E2848380E1818782E082876B
:101A2000138666E871E087E393E00C9408081F933F
:101A3000FC0199278827BC01E89411911032E9F341
:101A4000193010F01E30C8F31B3251F01D3249F42A
:101A5000689406C00E94540D610F711D811D911D77
:101A6000119110531A30B0F33EF490958095709513
:101A700061957F4F8F4F9F4F1F91089545325105BC
:101A800020F4423010F00C94490DFB011082CB0180
:101A90000895BB274A3031F4992322F4BDE2909592
:101AA00081959F4F0C946A0D592F482F372F262F61
:101AB000660F771F881F991F660F771F881F991F52
:101AC000620F731F841F951F660F771F881F991F52
:101AD0000895BB27FB015527AA27880F991FAA1F26
:101AE000A41710F0A41B83955051B9F7A05DAA3339
:101AF00008F0A95DA193009779F7B111B193119204
:101B0000CB010C94830DDC01FC01672F71917723CD
:101B1000E1F7329704C07C916D9370836291AE17A8
:101B2000BF07C8F30895E89409C097FB3EF4909569
:101B30008095709561957F4F8F4F9F4F9923A9F0A6
:101B4000F92F96E9BB279395F69587957795679535
:101B5000B795F111F8CFFAF4BB0F11F460FF1BC079
:101B60006F5F7F4F8F4F9F4F16C0882311F096E90C
:101B700011C0772321F09EE8872F762F05C06623BA
:101B800071F096E8862F70E060E02AF09A95660F73
:101B9000771F881FDAF7880F9695879597F908952C
:101BA00097F99F6780E870E060E008959FEF80EC10
:101BB000089500240A9416161706180609060895B3
:101BC00000240A9412161306140605060895092E19
:101BD0000394000C11F4882352F0BB0F40F4BF2B88
:101BE00011F460FF04C06F5F7F4F8F4F9F4F0895C8
:101BF00057FD9058440F551F59F05F3F71F04795BE
:101C0000880F97FB991F61F09F3F79F087950895A2
:101C1000121613061406551FF2CF4695F1DF08C0C1
:101C2000161617061806991FF1CF869571056105DE
:101C300008940895E894BB2766277727CB0197F986
:101C400008952F923F924F925F926F927F928F9260
:101C50009F92AF92BF92CF92DF92EF92FF920F933B
:101C60001F93CF93DF93CDB7DEB7CA1BDB0B0FB645
:101C7000F894DEBF0FBECDBF09942A883988488802
:101C80005F846E847D848C849B84AA84B984C88498
:101C9000DF80EE80FD800C811B81AA81B981CE0F8F
:101CA000D11D0FB6F894DEBF0FBECDBFED01089574
:101CB0000E946C0E0C94E70D0E94E00D58F00E94FB
:101CC000D90D40F029F45F3F29F00C94D00D51114B
:101CD0000C941B0E0C94D60D0E94F80D68F39923FA
:101CE000B1F3552391F3951B550BBB27AA27621718
:101CF0007307840738F09F5F5F4F220F331F441F25
:101D0000AA1FA9F335D00E2E3AF0E0E832D0915058
:101D10005040E695001CCAF72BD0FE2F29D0660F45
:101D2000771F881FBB1F261737074807AB07B0E888
:101D300009F0BB0B802DBF01FF2793585F4F3AF08E
:101D40009E3F510578F00C94D00D0C941B0E5F3F14
:101D5000E4F3983ED4F3869577956795B795F79514
:101D60009F5FC9F7880F911D9695879597F90895FC
:101D7000E1E0660F771F881FBB1F62177307840798
:101D8000BA0720F0621B730B840BBA0BEE1F88F7A7
:101D9000E09508950E94D10E6894B1110C941B0E29
:101DA00008950E94000E88F09F5798F0B92F992748
:101DB000B751B0F0E1F0660F771F881F991F1AF036
:101DC000BA95C9F714C0B13091F00E941A0EB1E073
:101DD00008950C941A0E672F782F8827B85F39F072
:101DE000B93FCCF3869577956795B395D9F73EF4CF
:101DF00090958095709561957F4F8F4F9F4F089577
:101E0000EE0FFF1F0590F491E02D0994CF93DF931F
:101E10008230910510F482E090E0E0915103F0915E
:101E2000520320E030E0C0E0D0E0309711F1408173
:101E3000518148175907C0F04817590761F482814A
:101E40009381209719F09B838A832BC09093520330
:101E50008093510326C02115310519F0421753070D
:101E600018F49A01BE01DF01EF010280F381E02D39
:101E7000DCCF2115310509F1281B390B2430310540
:101E800090F412968D919C9113976115710521F034
:101E9000FB019383828304C0909352038093510388
:101EA000FD01329644C0FD01E20FF31F819391932F
:101EB000225031092D933C933AC020914F03309129
:101EC0005003232B41F420910501309106013093FA
:101ED000500320934F0320910301309104012115F9
:101EE000310541F42DB73EB74091070150910801EB
:101EF000241B350BE0914F03F0915003E217F307D9
:101F0000A0F42E1B3F0B2817390778F0AC014E5F69
:101F10005F4F2417350748F04E0F5F1F5093500353
:101F200040934F038193919302C0E0E0F0E0CF0132
:101F3000DF91CF9108950F931F93CF93DF93009775
:101F400009F48CC0FC013297138212820091510374
:101F5000109152030115110581F420813181820F06
:101F6000931F20914F03309150032817390779F5BB
:101F7000F0935003E0934F0371C0D80140E050E06C
:101F8000AE17BF0750F412962D913C911397AD01F7
:101F90002115310509F1D901F3CF9D01DA01338310
:101FA000228360817181860F971F8217930769F4DE
:101FB000EC0128813981260F371F2E5F3F4F318377
:101FC00020838A819B8193838283452B29F4F0931C
:101FD0005203E093510342C01396FC93EE93129781
:101FE000ED01499159919E01240F351FE217F30726
:101FF00071F480819181840F951F029611969C93B4
:102000008E938281938113969C938E931297E0E036
:10201000F0E0D80112968D919C911397009719F0DA
:10202000F8018C01F6CF8D919C9198012E5F3F4F66
:10203000820F931F20914F033091500328173907C7
:1020400069F4309729F4109252031092510302C0A0
:10205000138212821093500300934F03DF91CF91AC
:102060001F910F910895A0E0B0E0E9E3F0E10C9436
:10207000250EEC01009721F4CB010E94060FB8C099
:10208000FC01E60FF71F9C0122503109E217F3070C
:1020900008F4ACC0D9010D911C91119706171707D0
:1020A000B0F00530110508F49FC0C80104978617E9
:1020B000970708F499C002501109061B170B0193EA
:1020C00011936D937C93CF010E949B0F8DC05B0198
:1020D000A01AB10A4C01800E911EA0915103B0913B
:1020E000520340E050E0E12CF12C109709F44AC073
:1020F000A815B905D1F56D907C901197630182E028
:10210000C80ED11CCA14DB0480F1A3014A195B0973
:102110006A0182E0C80ED11C1296BC9012971396E9
:10212000AC91B5E0CB16D10440F0B282A3835183C9
:102130004083D9016D937C930AC00E5F1F4FC3018A
:10214000800F911FF90191838083EB2DFA2FE11409
:10215000F10431F0D7011396FC93EE93129744C02B
:10216000F0935203E09351033FC08D919C911197DE
:102170004817590708F4AC017D0112960D90BC91E7
:10218000A02DB3CF80914F039091500388159905EE
:10219000E1F446175707C8F48091030190910401B8
:1021A000009741F48DB79EB7409107015091080107
:1021B000841B950BE817F907C8F4F0935003E093DC
:1021C0004F03F901718360830FC0CB010E94060F9A
:1021D0007C01009759F0A801BE010E940211CE01B6
:1021E0000E949B0FC70104C0CE0102C080E090E0B6
:1021F000CDB7DEB7EEE00C94410E81E090E0F894AC
:102200000C941B11FB01DC0102C001900D924150A6
:102210005040D8F70895FB01DC018D9101908019A1
:102220000110D9F3990B0895FB01DC0101900D9287
:102230000020E1F7089510E0C2E6D0E004C0FE01FE
:102240000E94000F2196C336D107C9F7F894FFCF3B
:102250000B01000000530380000000010008004053
:102260000000010004050D000A0C0D0E13151619CF
:102270001A1C232526292A2C323400004000140081
:10228000540000000000F500BA068D003C01BE00BD
:102290009C00B0000000000098026802C8024202E0
:1022A000600251024302000000008605BA06C8021F
:1022B000C70277656C636F6D650049643A004465D9
:1022C000766963652049442073657400496420730E
:1022D00065743A000D0A0050524F4752414D20009C
:1022E00050524556494557200020202020202020CC
:0222F0002000CC
:00000001FF
