:100000000C9463000C948B000C948B000C948B006C
:100010000C948B000C948B000C948B000C948B0034
:100020000C948B000C948B000C948B000C94FB03B1
:100030000C948B000C948B000C948B000C948B0014
:100040000C94B1030C948B000C948B000C948B00DB
:100050000C948B000C948B000C948B000C948B00F4
:100060000C94AB050C948B000000000024002700CA
:100070002A0000000000250028002B0000000000DE
:1000800023002600290004040404040404040202DA
:100090000202020203030303030301020408102007
:1000A0004080010204081020010204081020000012
:1000B0000008000201000003040700000000000027
:1000C0000000D906900A11241FBECFEFD8E0DEBF92
:1000D000CDBF22E0A2E8B1E001C01D92A639B2076F
:1000E000E1F711E0A0E0B1E0E2EDFCE102C0059033
:1000F0000D92A238B107D9F710E0C2E6D0E004C0F3
:100100002197FE010E94410CC136D107C9F70E9418
:1001100004070C945C0E0C940000CF92DF92EF92D7
:10012000FF920F931F93CF93DF936C017A018B01A2
:10013000C0E0D0E0CE15DF0589F0D8016D918D01CA
:10014000D601ED91FC910190F081E02DC601099559
:10015000892B11F47E0102C02196ECCFC701DF91FB
:10016000CF911F910F91FF90EF90DF90CF90089566
:10017000CF93DF93CDB7DEB728970FB6F894DEBFE5
:100180000FBECDBF98E0E9E0F1E0DE0111960190ED
:100190000D929A95E1F79091C901492F50E0282FCF
:1001A00030E02417350714F08FEF890FFE013196E8
:1001B000E80FF11DE80FF11D6081606840E081ECFF
:1001C00091E028960FB6F894DEBF0FBECDBFDF9149
:1001D000CF910C948405009769F0FC0101900020F8
:1001E000E9F73197AF01481B590BBC0181EC91E055
:1001F0000C948D0080E090E00895FC018081918155
:10020000009711F00C94980A60E070E0CB0108951B
:10021000EF92FF920F931F93CF93DF93EC017B013B
:100220008A0188819981009729F02A813B812417CE
:100230003507F8F4B8016F5F7F4F0E94740D009787
:1002400059F0998388831B830A832C813D81232B5A
:1002500081F4FC0110820DC088819981009711F012
:100260000E94DC0C198218821D821C821B821A8259
:1002700007C01D830C83B701888199810E94550EA8
:10028000CE01DF91CF911F910F91FF90EF900895D4
:10029000CF93DF93EC016115710559F0FB010190DB
:1002A0000020E9F73197AF01461B570B0E94080168
:1002B0000CC088819981009711F00E94DC0C198292
:1002C00018821D821C821B821A82CE01DF91CF917F
:1002D0000895FC0111821082138212821582148209
:1002E0006115710551F0FB0101900020E9F731978C
:1002F000AF01461B570B0C9408010895BF92CF9293
:10030000DF92EF92FF920F931F93CF93DF937C01C5
:100310006B018A01E9012417350720F4812F890137
:10032000C42FD82F61E871E0C7010E946901D6018E
:1003300014968D919C91159708171907D0F48C1776
:100340009D0708F4EC01D601ED91FC911197EC0F9B
:10035000FD1FB08010824D915C91BA01600F711F3A
:10036000C7010E944801D601ED91FC91EC0FFD1FE1
:10037000B082C701DF91CF911F910F91FF90EF9055
:10038000DF90CF90BF900895CF93DF93EC01FB01F6
:100390002481358142E050E00E947E01CE01DF9150
:1003A000CF910895FC01808191810C94DC0C833005
:1003B00081F028F4813099F08230A1F008958730DF
:1003C000A9F08830B9F08430D1F4809180008F7D1D
:1003D00003C0809180008F7780938000089584B55A
:1003E0008F7702C084B58F7D84BD08958091B00061
:1003F0008F7703C08091B0008F7D8093B000089507
:100400003FB7F89480918E0290918F02A091900254
:10041000B091910226B5A89B05C02F3F19F0019617
:10042000A11DB11D3FBFBA2FA92F982F8827820F7A
:10043000911DA11DB11DBC01CD0142E0660F771FCA
:10044000881F991F4A95D1F7089585ED8093BC00C8
:100450008091BC0084FDFCCF1092860108954091EC
:100460001402262F30E0240F311D21323105DCF437
:10047000209186012430C9F4FC0180E090E08617C9
:1004800058F4309114022191DC01AE50BE4FA30FFD
:10049000B11D2C930196F3CF80911402680F6093E5
:1004A000140280E0089581E0089582E0089508959F
:1004B00081E090E030918A0120918901321710F497
:1004C00080E090E0919581959109089580918A014D
:1004D00090918901891730F48F5F80938A0180E0C1
:1004E00090E008958FEF9FEF08958091890190E04B
:1004F00020918A01821B91090895CF92DF92EF9299
:10050000FF920F931F93CF93DF937C01262F972F9A
:100510008A0180915D02882391F0C62FD72F6E014A
:10052000C40ED51ECC15DD0571F06991D701ED9192
:10053000FC910190F081E02DC7010995F3CF642F64
:10054000822F0E942F02C801DF91CF911F910F913E
:10055000FF90EF90DF90CF900895CF93DF931F929D
:10056000CDB7DEB7698320915D022223D1F02091BF
:100570008701203240F021E030E0FC013383228308
:1005800080E090E015C080918801E82FF0E0E25A09
:10059000FD4F998190838F5F8093880180938701BD
:1005A00005C061E0CE0101960E942F0281E090E03B
:1005B0000F90DF91CF910895089580E090E0089525
:1005C0000E943E0ECF93DF93282F30E0F901E255D1
:1005D000FF4F8491F901E656FF4FD491F901EA5794
:1005E000FF4FC491CC2391F081110E94D701EC2FD1
:1005F000F0E0EE0FFF1FE458FF4FA591B491EC918E
:10060000ED2381E090E021F480E002C080E090E002
:10061000DF91CF9108951F93CF93DF93282F30E080
:10062000F901E255FF4F8491F901E656FF4FD4914D
:10063000F901EA57FF4FC491CC23C9F0162F81115D
:100640000E94D701EC2FF0E0EE0FFF1FEE58FF4F96
:10065000A591B4918FB7F894111105C09C91ED2F1D
:10066000E095E92302C0EC91ED2BEC938FBFDF9175
:10067000CF911F910895CF93DF9390E0FC01E65650
:10068000FF4F2491FC01EA57FF4F8491882361F1C9
:1006900090E0880F991FFC01E859FF4FC591D49154
:1006A000FC01EE58FF4FA591B491611109C09FB7AD
:1006B000F8948881209582238883EC912E230BC0A7
:1006C000623061F49FB7F8943881822F809583233C
:1006D0008883EC912E2B2C939FBF06C08FB7F89484
:1006E000E8812E2B28838FBFDF91CF9108958F92C1
:1006F0009F92AF92BF92CF92DF92EF92FF926B01E7
:100700007C010E9400024B015C01C114D104E10490
:10071000F104F1F00E940002DC01CB018819990973
:10072000AA09BB09883E9340A105B10570F321E0F9
:10073000C21AD108E108F10888EE880E83E0981EFD
:10074000A11CB11CC114D104E104F10419F7DDCFDF
:10075000FF90EF90DF90CF90BF90AF909F908F90E1
:1007600008951F920F920FB60F9211242F933F936B
:100770008F939F93AF93BF9380918B0190918C0146
:10078000A0918D01B0918E0130918D0223E0230F55
:100790002D3720F40196A11DB11D05C026E8230FB9
:1007A0000296A11DB11D20938D0280938B01909321
:1007B0008C01A0938D01B0938E0180918E02909157
:1007C0008F02A0919002B09191020196A11DB11DDE
:1007D00080938E0290938F02A0939002B093910227
:1007E000BF91AF919F918F913F912F910F900FBE2D
:1007F0000F901F9018951F920F920FB60F92112411
:100800002F933F934F935F936F937F938F939F9318
:10081000AF93BF93EF93FF9380918301882321F0DF
:1008200080918C028823E1F080918C02882341F032
:1008300080918A0291E0980F90938A028823B9F000
:1008400080918A02883010F010928A028091830190
:10085000882309F4CAC040918C024423E1F0C5C04A
:10086000809100010E94E20280938B02DDCF60E064
:100870008AE00E940B0360E08CE00E940B03109260
:100880008C0280918802909189020196909389024E
:1008900080938802D5CF80918B02882329F0909194
:1008A00087029F5F90938702209186029091850234
:1008B000821759F0903510F02DE101C02BE0920F16
:1008C000909385028093860203C09C5E909385027C
:1008D00090918502903A08F488C02091830230916B
:1008E0008402369527953093840220938302809169
:1008F0008702853028F03860309384022093830289
:10090000905A9093850210928702809182018823E9
:1009100009F45BC0909182029F5F909382029C30A9
:1009200008F463C02091830230918402822F8F7378
:10093000E0E4F1E0DF0190E05D91851721F09F5F39
:100940009031D1F790E050E1959FC001112496E0DD
:10095000369527959A95E1F730E05191251721F0CA
:100960003F5F3031D1F701C0432F842B9091AD010F
:1009700091110EC0809381029CEF980F9B3140F043
:1009800010928201809180028F5F809380022DC03F
:10099000E091AD0191E09E0F9093AD01F0E0E15741
:1009A000FE4F80839091AD0180918102981750F0A5
:1009B0001092820180917F028F5F80937F0281E09D
:1009C0008093AE011092820210C0809183029091B8
:1009D000840288339B4049F481E080938201109225
:1009E00082021092AD011092AE01FF91EF91BF9182
:1009F000AF919F918F917F916F915F914F913F91B7
:100A00002F910F900FBE0F901F901895CF93FC0160
:100A1000C48121E020935D02C0937E021092880180
:100A2000109287018385682B8FEA91E00E94AD02C6
:100A300080918701813208F046C090918601911122
:100A4000FCCF92E09093860191E0909385019FEF17
:100A500090935C0210925B0280935A02AEE5B2E082
:100A60002AE332E0F9019E2F921B981718F49D910A
:100A70009193F9CF1092390280913902CC0FC82B93
:100A8000C093390280918401813061F41092840115
:100A9000809139028093BB008091BC0083FDF8CF28
:100AA00085EC01C085EE8093BC0080918601823088
:100AB000E1F380915C028F3F31F080915C028032E3
:100AC00011F080915C0210928801109287011092BF
:100AD0005D02CF9108950F931F93CF938C01C62F82
:100AE0000E9406056C2F6460C8010E9406056C2FE9
:100AF0006B7FC8010E94060583EC90E00197F1F737
:100B0000CF911F910F910895FF920F931F93CF9351
:100B1000DF931F92CDB7DEB78C01F62E962F907F14
:100B2000692F642BC80149830E946B0580E1F89E00
:100B3000B00111244981642BC8010F90DF91CF913E
:100B40001F910F91FF900C946B0541E00E9484056A
:100B500081E090E008951F920F920FB60F9211243A
:100B60002F933F934F935F936F937F938F939F93B5
:100B7000AF93BF93EF93FF938091B900887F803646
:100B800009F49CC068F5883209F45BC090F48031A8
:100B900009F454C038F4882309F4F6C0883009F405
:100BA0004DC0F6C0883109F44CC0803209F45DC0F4
:100BB000EFC0803409F468C048F4803309F455C0AC
:100BC000883309F0E5C080935C02D8C0803509F411
:100BD0004FC0883509F45DC0883409F0D9C0D6C04B
:100BE000883909F4C7C0A8F4883709F467C038F415
:100BF000883609F463C0803709F460C0C9C08838FA
:100C000009F4B8C0803909F45FC0803809F0C0C069
:100C10005BC0803B09F486C038F4803A09F466C0B2
:100C2000883A09F47FC0B4C0803C09F4A7C0883C6E
:100C300009F4A4C0883B09F48AC0AAC08091390293
:100C400010C090915B0280915A02981770F5E09164
:100C50005B0281E08E0F80935B02F0E0E65CFD4F6B
:100C600080818093BB0085EC86C080935C028EC03F
:100C7000E0915B0281E08E0F80935B028091BB006C
:100C8000F0E0E65CFD4F808390915B0280915A0218
:100C90006EC0E0915B0281E08E0F80935B028091D9
:100CA000BB00F0E0E65CFD4F8083809185018111FF
:100CB0006DC081E08093840184EA61C083E0809309
:100CC000860110923802CFCF80913802803208F02E
:100CD00051C0E091380281E08E0F809338028091FC
:100CE000BB00F0E0E85EFD4F8083BDCF85EC8093D4
:100CF000BC001092860180913802803230F4E0917D
:100D00003802F0E0E85EFD4F10826091380270E03A
:100D1000E0911602F091170288E192E00995109295
:100D2000380236C084E0809386011092150210923A
:100D30001402E0911202F0911302099580911402BD
:100D4000811105C081E0809314021092F201E091BC
:100D5000150281E08E0F80931502F0E0EE50FE4FF9
:100D600080818093BB0090911502809114029817A6
:100D700008F479CF85E88093BC000AC085EC8093A5
:100D8000BC001092860104C010925C020E942502F1
:100D9000FF91EF91BF91AF919F918F917F916F9153
:100DA0005F914F913F912F910F900FBE0F901F9029
:100DB0001895EFEAF1E01382128288EE93E0A0E04A
:100DC000B0E084839583A683B78386E291E0918324
:100DD000808361E871E08DEC91E00E946901E1ECB3
:100DE000F1E01382128288E391E09183808387E2AD
:100DF000848380E1818782E08287138661E871E0E5
:100E00008BEB91E00C946901CF93DF93CDB7DEB704
:100E10006A970FB6F894DEBF0FBECDBF789484B545
:100E2000826084BD84B5816084BD85B5826085BDE6
:100E300085B5816085BD80916E00816080936E0074
:100E40001092810080918100826080938100809166
:100E50008100816080938100809180008160809317
:100E600080008091B10084608093B1008091B000D7
:100E700081608093B00080917A00846080937A00D2
:100E800080917A00826080937A0080917A008160FC
:100E900080937A0080917A00806880937A00109223
:100EA000C10060E083E00E943B0360E084E00E94B8
:100EB0003B0361E08BE00E943B0361E08CE00E9419
:100EC0003B0361E08DE00E943B0360E08BE00E9409
:100ED0000B0360E08CE00E940B0361E08DE00E9458
:100EE0000B0382E0809300018EE0E1E1F1E0DE019E
:100EF000119601900D928A95E1F77E0123E0E20EB2
:100F0000F11C11E0F701619171917F0180E090E0A7
:100F10000E94D40A9B01AC0160E074E284E79BE488
:100F20000E94990B9B01AC0160E070E080E89FE3B8
:100F30000E94990B9B01AC016FE672E183E898E394
:100F40000E94990B0E940B0C2B013C01F2E04F1AFE
:100F50005108610871082DEF42162FEF5206610407
:100F6000710408F481C11F5F173061F662307105AA
:100F70008105910560F161157105E1E08E0791052C
:100F800030F5112321F11092800028E02093810098
:100F900020918100122B109381007093890060933F
:100FA000880080916F00826080936F0061E08CE028
:100FB0000E943B0360E0809100010E943B0361E0DE
:100FC0008AE00E943B0360E08AE00E940B0380916C
:100FD0008301811105C081E0809383011092820119
:100FE00010928A0110928901109288011092870153
:100FF0001092860181E0809385011092840161E066
:1010000082E10E940B0361E083E10E940B03809167
:10101000B9008E7F8093B9008091B9008D7F809355
:10102000B90088E48093B80085E48093BC001092F6
:10103000C6018091CB01823018F098E09093C601F0
:101040008093C90162E370E080E090E00E94770342
:101050006091CC0181EC91E00E94060568EE73E09E
:1010600080E090E00E94770360E381EC91E00E94D1
:101070006B050BE416E4C8010197F1F760E381EC1E
:1010800091E00E946B05C8010197F1F760E381ECE4
:1010900091E00E946B0583E592E00197F1F760E231
:1010A00081EC91E00E946B056091C601606240E0B6
:1010B00081EC91E00E94840584E08093C70140E0C8
:1010C0006CE081EC91E00E94840540E061E081ECFD
:1010D00091E00E9484050BE31FE1C8010197F1F73D
:1010E00082E08093C80140E066E081EC91E00E94DC
:1010F000840540E062E081EC91E00E948405C80133
:101100000197F1F788E08093CC0160E081EC91E0F9
:101110000E94060580E00E94B80080E591E00E94F0
:10112000EB0061E08BE00E940B0360E08CE00E942A
:101130000B0360E08DE00E940B036AEF70E080E03B
:1011400090E00E94770360E08BE00E940B0361E077
:101150008CE00E940B0360E08DE00E940B036AEFBD
:1011600070E080E090E00E94770360E08BE00E94F6
:101170000B0360E08CE00E940B0361E08DE00E94B5
:101180000B036AEF70E080E090E00E94770381E853
:1011900091E00E94EB008091010190910201885A38
:1011A0009E4F0E94EB0001E01091D301111130C05D
:1011B00083E00E94E20281309105D1F42091010187
:1011C000309102012F5F3F4F3093020120930101C4
:1011D0002930310524F09093020180930101809120
:1011E000010190910201885A9E4F0E94EB00DCCFD2
:1011F00083E00E94E2020197B9F681E891E00E9443
:10120000EB008CE591E00E94EB000093D301CCCF82
:101210008BE3C82E8FE1D82E90E0A92E90E0B92E56
:101220008FB7F89440918B0150918C0160918D01A2
:1012300070918E018FBF8091AE01811119C02FB7BF
:10124000F89480918B0190918C01A0918D01B091C7
:101250008E012FBF841B950BA60BB70B80369A4EC1
:10126000A105B10540F304C0163009F08ACEAFCE17
:101270008091AE018091AE01882309F44AC180912A
:10128000AE0181111AC064ED71E0CE0145960E9455
:101290006901E0900101F090020121E030E040E0BE
:1012A00050E0BE016B5E7F4FCE010F960E947E0123
:1012B0008B899C89892BC1F01FC08091AD0183501F
:1012C00090911E00891710F480931E0040911E001B
:1012D00050E060E971E084ED91E00E94430E1092CD
:1012E000AE018091AD01CFCFE114F10411F0F7010F
:1012F00009C011112DC00FC08F859889E114F10428
:1013000029F4FC018081882319F105C0B7010E94EE
:101310004C0E892BE9F021E030E040E050E0BE01C6
:101320006B5E7F4FCE0101960E947E018D819E8172
:10133000892B41F0E981FA8101E08081882319F04D
:1013400000E001C0012FCE0101960E94D20101C030
:10135000012FCE010F960E94D201002309F4D5C0BF
:10136000BE016B5E7F4FCE0101960E94C401CE018B
:1013700001960E94FD002B013C01CE0101960E94C6
:10138000D201BE016B5E7F4FCE010196141415048D
:10139000160417040CF07BC00E94C401CE01019614
:1013A0000E94FD002B013C01CE0101960E94D2015A
:1013B0004A94452846284728B9F480E00E94B8009E
:1013C0008AE691E00E94EB006AE671E08BEB91E027
:1013D0000E94480161E08BE00E940B0360E08DE019
:1013E0000E940B0360E02DC0BE016B5E7F4FCE01FB
:1013F00001960E94C401CE0101960E94FD002B01BE
:101400003C01CE0101960E94D20122E04216510415
:1014100061047104D1F480E00E94B80082E791E099
:101420000E94EB0062E771E08BEB91E00E944801C3
:1014300060E08BE00E940B0360E08DE00E940B03F4
:1014400061E08CE00E940B0360C0BE016B5E7F4FC9
:10145000CE0101960E94C401CE0101960E94FD00BA
:101460002B013C01CE0101960E94D20183E0481677
:1014700051046104710409F048C080E00E94B80082
:101480008AE791E00E94EB0061E871E0CDCF0E9415
:10149000C401CE0101960E94FD002B013C01CE014A
:1014A00001960E94D20145284628472871F580E020
:1014B0000E94B80040E061E081EC91E00E94840568
:1014C000C6010197F1F74091BF015091C0016091B1
:1014D000BB017091BC0181EC91E00E948D0081E024
:1014E0000E94B800BE016B5E7F4FCE0101960E9444
:1014F000C4014D815E8169817A8181EC91E00E9415
:101500008D00CE0101960E94D201CE0145960E9427
:10151000D201A114B10409F483CE0E94000080CE50
:101520008BEB91E00E94D2018DEC91E00C94D20102
:101530001F93FC0199278827BC01E8941191103270
:10154000E9F3193010F01E30C8F31B3251F01D3290
:1015500049F4689406C00E94BF0A610F711D811D85
:10156000911D119110531A30B0F33EF4909580956F
:10157000709561957F4F8F4F9F4F1F910895592F01
:10158000482F372F262F660F771F881F991F660F4A
:10159000771F881F991F620F731F841F951F660F87
:1015A000771F881F991F0895E89409C097FB3EF4A0
:1015B00090958095709561957F4F8F4F9F4F9923A0
:1015C000A9F0F92F96E9BB279395F695879577951E
:1015D0006795B795F111F8CFFAF4BB0F11F460FFDE
:1015E0001BC06F5F7F4F8F4F9F4F16C0882311F036
:1015F00096E911C0772321F09EE8872F762F05C04A
:10160000662371F096E8862F70E060E02AF09A95E4
:10161000660F771F881FDAF7880F9695879597F9D9
:10162000089597F99F6780E870E060E008959FEF64
:1016300080EC089500240A94161617061806090669
:10164000089500240A941216130614060506089538
:10165000092E0394000C11F4882352F0BB0F40F4C0
:10166000BF2B11F460FF04C06F5F7F4F8F4F9F4F00
:10167000089557FD9058440F551F59F05F3F71F082
:101680004795880F97FB991F61F09F3F79F08795E9
:101690000895121613061406551FF2CF4695F1DF72
:1016A00008C0161617061806991FF1CF8695710502
:1016B000610508940895E894BB2766277727CB0136
:1016C00097F908952F923F924F925F926F927F9277
:1016D0008F929F92AF92BF92CF92DF92EF92FF9242
:1016E0000F931F93CF93DF93CDB7DEB7CA1BDB0BEE
:1016F0000FB6F894DEBF0FBECDBF09942A88398893
:1017000048885F846E847D848C849B84AA84B98499
:10171000C884DF80EE80FD800C811B81AA81B981A5
:10172000CE0FD11D0FB6F894DEBF0FBECDBFED01B9
:1017300008950E94AD0B0C94280B0E94210B58F0C9
:101740000E941A0B40F029F45F3F29F00C94110B12
:1017500051110C945C0B0C94170B0E94390B68F31D
:101760009923B1F3552391F3951B550BBB27AA275A
:1017700062177307840738F09F5F5F4F220F331F94
:10178000441FAA1FA9F335D00E2E3AF0E0E832D05C
:1017900091505040E695001CCAF72BD0FE2F29D05F
:1017A000660F771F881FBB1F261737074807AB0731
:1017B000B0E809F0BB0B802DBF01FF2793585F4FA6
:1017C0003AF09E3F510578F00C94110B0C945C0B91
:1017D0005F3FE4F3983ED4F3869577956795B79588
:1017E000F7959F5FC9F7880F911D9695879597F993
:1017F0000895E1E0660F771F881FBB1F621773070C
:101800008407BA0720F0621B730B840BBA0BEE1F20
:1018100088F7E09508950E94120C6894B1110C9419
:101820005C0B08950E94410B88F09F5798F0B92FE8
:101830009927B751B0F0E1F0660F771F881F991F05
:101840001AF0BA95C9F714C0B13091F00E945B0B41
:10185000B1E008950C945B0B672F782F8827B85F51
:1018600039F0B93FCCF3869577956795B395D9F75D
:101870003EF490958095709561957F4F8F4F9F4F67
:101880000895EE0FFF1F0590F491E02D0994CF937A
:10189000DF938230910510F482E090E0E0919402B1
:1018A000F091950220E030E0C0E0D0E0309711F1F7
:1018B0004081518148175907C0F04817590761F412
:1018C00082819381209719F09B838A832BC0909308
:1018D00095028093940226C02115310519F0421714
:1018E000530718F49A01BE01DF01EF010280F38172
:1018F000E02DDCCF2115310509F1281B390B2430EF
:10190000310590F412968D919C9113976115710594
:1019100021F0FB019383828304C09093950280930E
:101920009402FD01329644C0FD01E20FF31F819342
:101930009193225031092D933C933AC02091920209
:1019400030919302232B41F420910501309106013F
:10195000309393022093920220910301309104016D
:101960002115310541F42DB73EB740910701509143
:101970000801241B350BE0919202F0919302E217CB
:10198000F307A0F42E1B3F0B2817390778F0AC01A2
:101990004E5F5F4F2417350748F04E0F5F1F50937F
:1019A0009302409392028193919302C0E0E0F0E0B1
:1019B000CF01DF91CF9108950F931F93CF93DF93C2
:1019C000009709F48CC0FC013297138212820091B7
:1019D0009402109195020115110581F42081318145
:1019E000820F931F2091920230919302281739079A
:1019F00079F5F0939302E093920271C0D80140E030
:101A000050E0AE17BF0750F412962D913C911397FA
:101A1000AD012115310509F1D901F3CF9D01DA019D
:101A20003383228360817181860F971F821793070A
:101A300069F4EC0128813981260F371F2E5F3F4F53
:101A4000318320838A819B8193838283452B29F470
:101A5000F0939502E093940242C01396FC93EE93A8
:101A60001297ED01499159919E01240F351FE217FC
:101A7000F30771F480819181840F951F029611966E
:101A80009C938E938281938113969C938E9312974D
:101A9000E0E0F0E0D80112968D919C9113970097A9
:101AA00019F0F8018C01F6CF8D919C9198012E5F71
:101AB0003F4F820F931F209192023091930228177B
:101AC000390769F4309729F4109295021092940224
:101AD00002C0138212821093930200939202DF914C
:101AE000CF911F910F910895A0E0B0E0EAE7FDE0EB
:101AF0000C94660BEC01009721F4CB010E94470C7B
:101B0000B8C0FC01E60FF71F9C0122503109E21713
:101B1000F30708F4ACC0D9010D911C911197061779
:101B20001707B0F00530110508F49FC0C8010497ED
:101B30008617970708F499C002501109061B170B66
:101B4000019311936D937C93CF010E94DC0C8DC0A7
:101B50005B01A01AB10A4C01800E911EA091940263
:101B6000B091950240E050E0E12CF12C109709F47F
:101B70004AC0A815B905D1F56D907C901197630105
:101B800082E0C80ED11CCA14DB0480F1A3014A19FB
:101B90005B096A0182E0C80ED11C1296BC901297B4
:101BA0001396AC91B5E0CB16D10440F0B282A3837A
:101BB00051834083D9016D937C930AC00E5F1F4F00
:101BC000C301800F911FF90191838083EB2DFA2FC0
:101BD000E114F10431F0D7011396FC93EE931297C0
:101BE00044C0F0939502E09394023FC08D919C9184
:101BF00011974817590708F4AC017D0112960D9012
:101C0000BC91A02DB3CF8091920290919302881540
:101C10009905E1F446175707C8F4809103019091A4
:101C20000401009741F48DB79EB740910701509190
:101C30000801841B950BE817F907C8F4F093930289
:101C4000E0939202F901718360830FC0CB010E947F
:101C5000470C7C01009759F0A801BE010E94430E79
:101C6000CE010E94DC0CC70104C0CE0102C080E09E
:101C700090E0CDB7DEB7EEE00C94820B81E090E00F
:101C8000F8940C945C0EFB01DC0102C001900D92F3
:101C900041505040D8F70895FB01DC018D9101902F
:101CA00080190110D9F3990B0895FB01DC01019013
:101CB0000D920020E1F7089510E0C2E6D0E004C0E4
:101CC000FE010E94410C2196C336D107C9F7F89452
:021CD000FFCF44
:101CD2000B01000000960280000000400014005436
:101CE20000000001000800400000010004050D0092
:101CF2000A0C00000000AD027D02DD0257027502EF
:101D02006602580200000000A5058D00DD02DC021B
:101D12000D0E131516191A1C232526292A2C3234C6
:101D220077656C636F6D650049643A004465766956
:101D32006365204944207365740050524F475241F5
:101D42004D00505245564945570020202020202062
:021D520020006F
:107E0000112484B714BE81FFF0D085E080938100F7
:107E100082E08093C00088E18093C10086E0809377
:107E2000C20080E18093C4008EE0C9D0259A86E02C
:107E300020E33CEF91E0309385002093840096BBD3
:107E4000B09BFECF1D9AA8958150A9F7CC24DD24C4
:107E500088248394B5E0AB2EA1E19A2EF3E0BF2EE7
:107E6000A2D0813461F49FD0082FAFD0023811F036
:107E7000013811F484E001C083E08DD089C08234E0
:107E800011F484E103C0853419F485E0A6D080C0E4
:107E9000853579F488D0E82EFF2485D0082F10E0AE
:107EA000102F00270E291F29000F111F8ED06801E7
:107EB0006FC0863521F484E090D080E0DECF843638
:107EC00009F040C070D06FD0082F6DD080E0C81688
:107ED00080E7D80618F4F601B7BEE895C0E0D1E017
:107EE00062D089930C17E1F7F0E0CF16F0E7DF06D8
:107EF00018F0F601B7BEE89568D007B600FCFDCFD4
:107F0000A601A0E0B1E02C9130E011968C91119780
:107F100090E0982F8827822B932B1296FA010C0160
:107F200087BEE89511244E5F5F4FF1E0A038BF0790
:107F300051F7F601A7BEE89507B600FCFDCF97BE46
:107F4000E89526C08437B1F42ED02DD0F82E2BD052
:107F50003CD0F601EF2C8F010F5F1F4F84911BD097
:107F6000EA94F801C1F70894C11CD11CFA94CF0C13
:107F7000D11C0EC0853739F428D08EE10CD085E9AC
:107F80000AD08FE07ACF813511F488E018D01DD067
:107F900080E101D065CF982F8091C00085FFFCCF94
:107FA0009093C60008958091C00087FFFCCF809118
:107FB000C00084FD01C0A8958091C6000895E0E648
:107FC000F0E098E1908380830895EDDF803219F02E
:107FD00088E0F5DFFFCF84E1DECF1F93182FE3DFCA
:107FE0001150E9F7F2DF1F91089580E0E8DFEE27F6
:047FF000FF270994CA
:027FFE00040479
:0400000300007E007B
:00000001FF