:100000000C9463000C948B000C948B000C948B006C
:100010000C948B000C948B000C948B000C948B0034
:100020000C948B000C948B000C948B000C9412039A
:100030000C948B000C948B000C948B000C948B0014
:100040000C94C8020C948B000C948B000C948B00C5
:100050000C948B000C948B000C948B000C948B00F4
:100060000C9465040C948B00000000002300260013
:10007000290000000000240027002A0000000000E2
:10008000250028002B0004040404040404040202D4
:100090000202020203030303030301020408102007
:1000A0004080010204081020010204081020000012
:1000B0000008000201000003040700000000000027
:1000C0000000920B8A0B11241FBECFEFD8E0DEBFD9
:1000D000CDBF22E0A8E8B1E001C01D92AC39B20763
:1000E000E1F711E0A0E0B1E0ECE9FFE102C005902A
:1000F0000D92A838B107D9F710E0C2E6D0E004C0ED
:100100002197FE010E94A60DC136D107C9F70E94B2
:1001100079070C94C10F0C940000833081F028F40F
:10012000813099F08230A1F008958730A9F08830AD
:10013000B9F08430D1F4809180008F7D03C080912C
:1001400080008F7780938000089584B58F7702C0F8
:1001500084B58F7D84BD08958091B0008F7703C0F2
:100160008091B0008F7D8093B00008951F93CF934E
:10017000DF93282F30E0F901E255FF4F8491F90118
:10018000E656FF4FD491F901EA57FF4FC491CC23B3
:10019000C9F0162F81110E948D00EC2FF0E0EE0FB8
:1001A000FF1FE458FF4FA591B4918FB7F894111138
:1001B00005C09C91ED2FE095E92302C0EC91ED2B59
:1001C000EC938FBFDF91CF911F910895CF93DF9371
:1001D00090E0FC01E656FF4F2491FC01EA57FF4FE7
:1001E0008491882361F190E0880F991FFC01EE58FB
:1001F000FF4FC591D491FC01E458FF4FA591B491F4
:10020000611109C09FB7F894888120958223888363
:10021000EC912E230BC0623061F49FB7F8943881C3
:10022000822F809583238883EC912E2B2C939FBF64
:1002300006C08FB7F894E8812E2B28838FBFDF91FB
:10024000CF9108953FB7F8948091280290912902A8
:10025000A0912A02B0912B0226B5A89B05C02F3F82
:1002600019F00196A11DB11D3FBFBA2FA92F982FDC
:100270008827820F911DA11DB11DBC01CD0142E057
:10028000660F771F881F991F4A95D1F708958F929F
:100290009F92AF92BF92CF92DF92EF92FF926B014B
:1002A0007C010E9422014B015C01C114D104E104D4
:1002B000F104F1F00E942201DC01CB0188199909B7
:1002C000AA09BB09883E9340A105B10570F321E05E
:1002D000C21AD108E108F10888EE880E83E0981E62
:1002E000A11CB11CC114D104E104F10419F7DDCF44
:1002F000FF90EF90DF90CF90BF90AF909F908F9046
:1003000008952FB7F894609124027091250280918E
:100310002602909127022FBF089585ED8093BC009F
:100320008091BC0084FDFCCF109230020895409172
:10033000AA01262F30E0240F311D21323105DCF4D3
:10034000209130022430C9F4FC0180E090E086174F
:1003500058F43091AA012191DC01A857BE4FA30F98
:10036000B11D2C930196F3CF8091AA01680F609381
:10037000AA0180E0089581E0089582E0089508953B
:1003800081E090E03091340220913302321710F472
:1003900080E090E0919581959109089580913402D3
:1003A00090913302891730F48F5F8093340280E09C
:1003B00090E008958FEF9FEF08958091330290E0D1
:1003C00020913402821B91090895CF92DF92EF921F
:1003D000FF920F931F93CF93DF937C01262F972FCC
:1003E0008A018091F301882391F0C62FD72F6E01E7
:1003F000C40ED51ECC15DD0571F06991D701ED91C4
:10040000FC910190F081E02DC7010995F3CF642F95
:10041000822F0E949701C801DF91CF911F910F9108
:10042000FF90EF90DF90CF900895CF93DF931F92CE
:10043000CDB7DEB769832091F3012223D1F020915B
:100440003102203240F021E030E0FC01338322838E
:1004500080E090E015C080913202E82FF0E0EC508F
:10046000FE4F998190838F5F809332028093310297
:1004700005C061E0CE0101960E94970181E090E005
:100480000F90DF91CF910895CF93FC01C48121E0BB
:100490002093F301C09314021092320210923102A1
:1004A0008385682B84E792E00E94150280913102D7
:1004B000813208F046C0909130029111FCCF92E059
:1004C0009093300291E090932F029FEF9093F2016E
:1004D0001092F1018093F001A4EFB1E020ED31E042
:1004E000F9019E2F921B981718F49D919193F9CFC3
:1004F0001092CF018091CF01CC0FC82BC093CF01B8
:1005000080912E02813061F410922E028091CF01F1
:100510008093BB008091BC0083FDF8CF85EC01C0C7
:1005200085EE8093BC00809130028230E1F38091AF
:10053000F2018F3F31F08091F201803211F0809111
:10054000F20110923202109231021092F301CF9117
:1005500008950F931F93CF938C01C62F0E944402DE
:100560006C2F6460C8010E9444026C2F6B7FC8012D
:100570000E94440283EC90E00197F1F7CF911F9124
:100580000F910895089580E090E008950E94A30FD0
:100590001F920F920FB60F9211242F933F938F93B8
:1005A0009F93AF93BF938091240290912502A091D5
:1005B0002602B09127023091230223E0230F2D372A
:1005C00020F40196A11DB11D05C026E8230F029657
:1005D000A11DB11D20932302809324029093250234
:1005E000A0932602B09327028091280290912902BD
:1005F000A0912A02B0912B020196A11DB11D8093FA
:10060000280290932902A0932A02B0932B02BF9153
:10061000AF919F918F913F912F910F900FBE0F90AF
:100620001F9018951F920F920FB60F9211241F93CF
:100630002F933F934F935F936F937F938F939F93EA
:10064000AF93BF93CF93DF93EF93FF9310912D025E
:10065000112331F180912202811122C020910001E9
:1006600030E0F901E255FF4F8491F901E656FF4F62
:10067000D491F901EA57FF4FC491CC2359F181116C
:100680000E948D00EC2FF0E0EE0FFF1FE859FF4FA6
:10069000A591B491EC91ED2381E0E1F080932102EA
:1006A00080912202882341F08091200291E0980FEE
:1006B00090932002882381F080912002883010F0EE
:1006C00010922002112309F4C5C040912202442354
:1006D000B9F0C0C080E0E2CF60E08AE00E94B600DE
:1006E00060E08CE00E94B6001092220280911E020F
:1006F00090911F02019690931F0280931E02DCCFFF
:1007000080912102882329F090911D029F5F909390
:100710001D0220911C0290911B02821759F0903506
:1007200010F02DE101C02BE0920F90931B028093FB
:100730001C0203C09C5E90931B0290911B02903A96
:1007400008F488C02091190230911A023695279535
:1007500030931A022093190280911D02853028F0EF
:10076000386030931A0220931902905A90931B021A
:1007700010921D0280912C02882309F45BC0909195
:1007800018029F5F909318029C3008F463C0209178
:10079000190230911A02822F8F73E7E1F1E0DF0135
:1007A00090E05D91851721F09F5F9031D1F790E047
:1007B00050E1959FC001112496E0369527959A95B2
:1007C000E1F730E05191251721F03F5F3031D1F74B
:1007D00001C0432F842B9091540291110EC080933D
:1007E00017029CEF980F9B3140F010922C028091E1
:1007F00016028F5F809316022DC0E091540291E0A3
:100800009E0F90935402F0E0EA5CFD4F808390913C
:10081000540280911702981750F010922C02809188
:1008200015028F5F8093150281E08093550210922C
:10083000180210C08091190290911A0288339B40CF
:1008400049F481E080932C02109218021092540215
:1008500010925502FF91EF91DF91CF91BF91AF912F
:100860009F918F917F916F915F914F913F912F91C8
:100870001F910F900FBE0F901F901895FF920F932E
:100880001F93CF93DF931F92CDB7DEB78C01F62E67
:10089000962F907F692F642BC80149830E94A9027B
:1008A00080E1F89EB00111244981642BC8010F90AA
:1008B000DF91CF911F910F91FF900C94A90241E01D
:1008C0000E943E0481E090E008951F920F920FB6BF
:1008D0000F9211242F933F934F935F936F937F93C6
:1008E0008F939F93AF93BF93EF93FF938091B90042
:1008F000887F803609F49CC068F5883209F45BC0B3
:1009000090F4803109F454C038F4882309F4F6C017
:10091000883009F44DC0F6C0883109F44CC08032EB
:1009200009F45DC0EFC0803409F468C048F4803336
:1009300009F455C0883309F0E5C08093F201D8C0AE
:10094000803509F44FC0883509F45DC0883409F05A
:10095000D9C0D6C0883909F4C7C0A8F4883709F4CB
:1009600067C038F4883609F463C0803709F460C082
:10097000C9C0883809F4B8C0803909F45FC080382C
:1009800009F0C0C05BC0803B09F486C038F4803AEF
:1009900009F466C0883A09F47FC0B4C0803C09F409
:1009A000A7C0883C09F4A4C0883B09F48AC0AAC047
:1009B0008091CF0110C09091F1018091F0019817C2
:1009C00070F5E091F10181E08E0F8093F101F0E08C
:1009D000E053FE4F80818093BB0085EC86C08093FE
:1009E000F2018EC0E091F10181E08E0F8093F10160
:1009F0008091BB00F0E0E053FE4F80839091F101C5
:100A00008091F0016EC0E091F10181E08E0F809342
:100A1000F1018091BB00F0E0E053FE4F80838091B4
:100A20002F0281116DC081E080932E0284EA61C0A3
:100A300083E0809330021092CE01CFCF8091CE011F
:100A4000803208F051C0E091CE0181E08E0F80939A
:100A5000CE018091BB00F0E0E255FE4F8083BDCF18
:100A600085EC8093BC00109230028091CE018032E0
:100A700030F4E091CE01F0E0E255FE4F108260913B
:100A8000CE0170E0E091AC01F091AD018EEA91E011
:100A900009951092CE0136C084E080933002109206
:100AA000AB011092AA01E091A801F091A90109956A
:100AB0008091AA01811105C081E08093AA01109262
:100AC0008801E091AB0181E08E0F8093AB01F0E0F3
:100AD000E857FE4F80818093BB009091AB018091DD
:100AE000AA01981708F479CF85E88093BC000AC062
:100AF00085EC8093BC001092300204C01092F20189
:100B00000E948D01FF91EF91BF91AF919F918F91C5
:100B10007F916F915F914F913F912F910F900FBEF9
:100B20000F901F901895CF92DF92EF92FF920F9344
:100B30001F93CF93DF936C017A018B01C0E0D0E06B
:100B4000CE15DF0589F0D8016D918D01D601ED91AB
:100B5000FC910190F081E02DC6010995892B11F4DB
:100B60007E0102C02196ECCFC701DF91CF911F918A
:100B70000F91FF90EF90DF90CF9008950F931F9308
:100B8000CF93DF93EC0188819981009729F02A8126
:100B90003B812617370788F48B016F5F7F4F0E94D8
:100BA000D90E009761F0998388831B830A832C8177
:100BB0003D81232B11F4FC01108281E001C080E013
:100BC000DF91CF911F910F910895CF93DF93EC01A7
:100BD00088819981009711F00E94410E1982188234
:100BE0001D821C821B821A82DF91CF910895CF93C0
:100BF000DF93CDB7DEB728970FB6F894DEBF0FBEF0
:100C0000CDBF98E0E7E2F1E0DE01119601900D9290
:100C10009A95E1F790918E02492F50E0282F30E00D
:100C20002417350714F08FEF890FFE013196E80F76
:100C3000F11DE80FF11D6081606840E086E892E0F8
:100C400028960FB6F894DEBF0FBECDBFDF91CF91CF
:100C50000C943E04009769F0FC0101900020E9F734
:100C60003197AF01481B590BBC0186E892E00C9408
:100C7000930580E090E0089540E061E086E892E02E
:100C80000E943E048BE39FE10197F1F70895FC0178
:100C9000448155816081718186E892E00C949305CE
:100CA000FC0180819181009711F00C94BD0B60E0F4
:100CB00070E0CB010895EF92FF920F931F93CF93B3
:100CC000DF93EC01FB0184819581E080F1800C8150
:100CD0001D81E114F104B1F00097B9F0080F191F5C
:100CE000B801CE010E94BE05882361F028813981B8
:100CF0008C819D81B701820F931F0E94BA0F1D83C3
:100D00000C8303C0CE010E94E505CE01DF91CF9197
:100D10001F910F91FF90EF900895EF92FF920F9324
:100D20001F93CF93DF938C017B016115710569F0EF
:100D3000FB0101900020E9F73197EF01C61BD70BAB
:100D4000BE010E94BE05811104C0C8010E94E505D4
:100D500008C0F801D583C483B701808191810E94C6
:100D6000BA0FC801DF91CF911F910F91FF90EF90C3
:100D70000895FC01808191810C94410E0F931F9383
:100D8000CF93DF93CDB7DEB762970FB6F894DEBF8F
:100D90000FBECDBF8C01CB01F801118210821382EE
:100DA00012821582148250E0BE016F5F7F4F0E9455
:100DB000E40BBE016F5F7F4FC8010E948D066296F3
:100DC0000FB6F894DEBF0FBECDBFDF91CF911F915C
:100DD0000F910895EF92FF920F931F93CF93DF939C
:100DE000EC01198218821B821A821D821C826115F5
:100DF000710521F18B01FB0101900020E9F731978A
:100E00007F01E61AF70AB7010E94BE05811109C0E9
:100E1000CE01DF91CF911F910F91FF90EF900C9435
:100E2000E505FD82EC82B80188819981DF91CF913F
:100E30001F910F91FF90EF900C94BA0FDF91CF911B
:100E40001F910F91FF90EF900895BF92CF92DF9284
:100E5000EF92FF920F931F93CF93DF937C016B016F
:100E60008A01E9012417350720F4812F8901C42F55
:100E7000D82F66E871E0C7010E94EA06D6011496F1
:100E80008D919C91159708171907D0F48C179D0721
:100E900008F4EC01D601ED91FC911197EC0FFD1FC8
:100EA000B08010824D915C91BA01600F711FC70133
:100EB0000E948D06D601ED91FC91EC0FFD1FB082D2
:100EC000C701DF91CF911F910F91FF90EF90DF90BD
:100ED000CF90BF900895CF93DF93EC01FB01248165
:100EE000358142E050E00E942507CE01DF91CF918D
:100EF0000895CF93DF93CDB7DEB7A0970FB6F894E0
:100F0000DEBF0FBECDBF789484B5826084BD84B54A
:100F1000816084BD85B5826085BD85B5816085BDF4
:100F200080916E00816080936E00109281008091AC
:100F30008100826080938100809181008160809334
:100F40008100809180008160809380008091B10059
:100F500084608093B1008091B00081608093B00084
:100F600080917A00846080937A0080917A00826018
:100F700080937A0080917A00816080937A008091DA
:100F80007A00806880937A001092C10060E08EE061
:100F90000E94E60060E08FE00E94E60061E086E0EB
:100FA0000E94E60061E087E00E94E60061E085E0E3
:100FB0000E94E60061E088E00E94E60061E086E0D1
:100FC0000E94B60061E087E00E94B60061E085E023
:100FD0000E94B60061E088E00E94B60061E08BE00C
:100FE0000E94E60061E08CE00E94E60061E08DE096
:100FF0000E94E60060E08BE00E94B60060E08CE0BA
:101000000E94B60061E08DE00E94B60082E080930D
:1010100000018EE0E9E0F1E0DE01119601900D9211
:101020008A95E1F77E0123E0E20EF11C11E0F70161
:10103000619171917F0180E090E00E94390C9B01E9
:10104000AC0160E074E284E79BE40E94FE0C9B012B
:10105000AC0160E070E080E89FE30E94FE0C9B0121
:10106000AC016FE672E183E898E30E94FE0C0E94F7
:10107000700D4B015C01F2E08F1A9108A108B108D4
:101080002DEF82162FEF9206A104B10408F4E3C1FC
:101090001F5F173061F6623071058105910560F1BF
:1010A00061157105E1E08E07910530F5112321F1FD
:1010B0001092800028E02093810020918100122B63
:1010C00010938100709389006093880080916F0075
:1010D000826080936F0061E08CE00E94E60060E037
:1010E000809100010E94E60061E08AE00E94E60033
:1010F00060E08AE00E94B60080912D02811105C057
:1011000081E080932D0210922C02109234021092F2
:10111000330210923202109231021092300281E0BA
:1011200080932F0210922E0261E082E10E94B600AD
:1011300061E083E10E94B6008091B9008E7F8093C8
:10114000B9008091B9008D7F8093B90088E48093C5
:10115000B80085E48093BC0010928B0280919002CD
:10116000823018F098E090938B0280938E0262E3B5
:1011700070E080E090E00E9447016091910286E873
:1011800092E00E94440268EE73E080E090E00E94EA
:10119000470160E386E892E00E94A9020BE416E4AE
:1011A000C8010197F1F760E386E892E00E94A90286
:1011B000C8010197F1F760E386E892E00E94A90276
:1011C00083E592E00197F1F760E286E892E00E9401
:1011D000A90260918B02606240E086E892E00E9482
:1011E0003E0484E080938C0240E06CE086E892E06C
:1011F0000E943E040E943C0682E080938D0240E003
:1012000066E086E892E00E943E0440E062E086E804
:1012100092E00E943E048BE39FE10197F1F788E0A2
:101220008093910260E086E892E00E94440280E0B0
:101230000E94F7058DE491E00E942A060E943C0678
:1012400080E00E94F70560910101709102014AE07F
:10125000CE0101960E94BE0665E571E0CE010F96B3
:101260000E94EA06BE016F5F7F4FCE010F960E947B
:101270005B060E944706CE010F960E94B906CE017A
:1012800001960E94B9060E9481014B015C0110E4A5
:10129000DD24D394EE24E394F12CF8EE8F0EF3E0EA
:1012A0009F1EA11CB11C0091350201115FC010935B
:1012B0007C0080917A00806480937A0080917A002B
:1012C00086FDFCCF809178002091790090E0922BF0
:1012D000893E93405CF00E943C0680E00E94F70546
:1012E00089E591E00E942A06D09235020E94810190
:1012F00086169706A806B906B0F60E9481014B0132
:101300005C0180910101909102010196909302018C
:1013100080930101099724F0F0920201E09201010B
:101320000E943C0680E00E94F705609101017091E7
:1013300002014AE0CE0101960E94BE0665E571E019
:10134000CE010F960E94EA06BE016F5F7F4FCE016D
:101350000F960E945B060E944706CE010F960E94E0
:10136000B906CE0101960E94B90697CF0E943C06AD
:1013700080E00E94F70560910101709102014AE04E
:10138000CE0101960E94BE0667E671E0CE010F967F
:101390000E94EA06BE016F5F7F4FCE010F960E944A
:1013A0005B060E944706CE010F960E94B906CE0149
:1013B00001960E94B90661E08BE00E94B60060E0F1
:1013C0008CE00E94B60060E08DE00E94B6006AEFFB
:1013D00070E080E090E00E94470160E08BE00E94B6
:1013E000B60061E08CE00E94B60060E08DE00E94F3
:1013F000B6006AEF70E080E090E00E94470160E094
:101400008BE00E94B60060E08CE00E94B60061E0D4
:101410008DE00E94B6006AEF70E080E090E00E94EC
:10142000470180E0E82E80E0F82E0E9481014B0108
:101430005C0180915502811112C00E948101DC0182
:10144000CB0188199909AA09BB0980369A4EA105D2
:10145000B10578F304C0163009F028CE4DCE809146
:10146000550280915502882309F44DC1809155029F
:10147000811122C066E572E0CE014B960E94EA0619
:1014800060910101709102014AE0CE0145960E94EF
:10149000BE0621E030E040E050E0BE01655E7F4FD7
:1014A000CE010F960E9425072B893C89898D9A8D44
:1014B00028173907D1F517C08091540283509091B5
:1014C0001E00891710F480931E0040911E0050E00A
:1014D00067E372E086E592E00E94A80F1092550241
:1014E00080915402C7CF8F8598896D897E89009736
:1014F00019F061157105A9F46115710551F02115F7
:10150000310539F0FB01808190E091958195910939
:101510000AC0009739F1232B29F1FC01808190E06A
:1015200002C00E94B10F892BE9F021E030E040E0D9
:1015300050E0BE01655E7F4FCE0101960E942507F7
:101540008D819E81892B41F0E981FA8111E08081B2
:10155000882319F010E001C0102FCE0101960E94DF
:10156000B90601C0102FCE010F960E94B906CE0118
:1015700045960E94B906112309F4C1C0BE01655EFB
:101580007F4FCE0101960E946B07CE0101960E940B
:1015900050064B015C01CE0101960E94B906BE01C6
:1015A000655E7F4FCE010196181419041A041B04BE
:1015B0000CF07AC00E946B07CE0101960E94500683
:1015C0004B015C01CE0101960E94B9068A948928DC
:1015D0008A288B28B9F480E00E94F7058FE691E015
:1015E0000E942A066FE671E080E892E00E948D0674
:1015F00061E08BE00E94B60060E08DE00E94B600E2
:1016000060E02DC0BE01655E7F4FCE0101960E9455
:101610006B07CE0101960E9450064B015C01CE0182
:1016200001960E94B90622E082169104A104B10439
:10163000D1F480E00E94F70587E791E00E942A0636
:1016400067E771E080E892E00E948D0660E08BE041
:101650000E94B60060E08DE00E94B60061E08CE080
:101660000E94B6004CC0BE01655E7F4FCE01019660
:101670000E946B07CE0101960E9450064B015C014F
:10168000CE0101960E94B90683E088169104A10458
:10169000B104A9F580E00E94F7058FE791E00E9470
:1016A0002A0666E871E0CECF0E946B07CE01019654
:1016B0000E9450064B015C01CE0101960E94B906C2
:1016C00089288A288B28D9F480E00E94F7050E9497
:1016D0003C0680E892E00E94470681E00E94F70500
:1016E000BE01655E7F4FCE0101960E946B07CE0161
:1016F00001960E944706CE0101960E94B906CE01CE
:101700004B960E94B906E114F10409F48ECE0E94B2
:1017100000008BCE80E892E00E94B90682E992E058
:101720000C94B906E4E7F2E01382128288EE93E0AB
:10173000A0E0B0E084839583A683B78383E391E040
:101740009183808366E871E082E992E00E94EA0674
:10175000E6E8F2E01382128285E491E091838083CF
:1017600087E2848380E1818782E08287138666E84E
:1017700071E080E892E00C94EA061F93FC0199273F
:101780008827BC01E89411911032E9F3193010F068
:101790001E30C8F31B3251F01D3249F4689406C064
:1017A0000E94FA0B610F711D811D911D1191105343
:1017B0001A30B0F33EF490958095709561957F4F07
:1017C0008F4F9F4F1F9108954532510520F44230AD
:1017D00010F00C94EF0BFB011082CB010895BB2796
:1017E0004A3031F4992322F4BDE2909581959F4FC0
:1017F0000C94100C592F482F372F262F660F771F68
:10180000881F991F660F771F881F991F620F731F0C
:10181000841F951F660F771F881F991F0895BB2788
:10182000FB015527AA27880F991FAA1FA41710F09C
:10183000A41B83955051B9F7A05DAA3308F0A95DA8
:10184000A193009779F7B111B1931192CB010C9448
:10185000290CDC01FC01672F71917723E1F73297A6
:1018600004C07C916D9370836291AE17BF07C8F37B
:101870000895E89409C097FB3EF490958095709583
:1018800061957F4F8F4F9F4F9923A9F0F92F96E9CC
:10189000BB279395F695879577956795B795F11141
:1018A000F8CFFAF4BB0F11F460FF1BC06F5F7F4FDE
:1018B0008F4F9F4F16C0882311F096E911C07723F0
:1018C00021F09EE8872F762F05C0662371F096E8F9
:1018D000862F70E060E02AF09A95660F771F881FC8
:1018E000DAF7880F9695879597F9089597F99F6786
:1018F00080E870E060E008959FEF80EC0895002498
:101900000A941616170618060906089500240A9464
:1019100012161306140605060895092E0394000CEA
:1019200011F4882352F0BB0F40F4BF2B11F460FF79
:1019300004C06F5F7F4F8F4F9F4F089557FD9058A2
:10194000440F551F59F05F3F71F04795880F97FB83
:10195000991F61F09F3F79F087950895121613063D
:101960001406551FF2CF4695F1DF08C0161617066C
:101970001806991FF1CF86957105610508940895A1
:10198000E894BB2766277727CB0197F908952F9214
:101990003F924F925F926F927F928F929F92AF92FF
:1019A000BF92CF92DF92EF92FF920F931F93CF934C
:1019B000DF93CDB7DEB7CA1BDB0B0FB6F894DEBFE3
:1019C0000FBECDBF09942A88398848885F846E8409
:1019D0007D848C849B84AA84B984C884DF80EE8053
:1019E000FD800C811B81AA81B981CE0FD11D0FB65C
:1019F000F894DEBF0FBECDBFED0108950E94120D19
:101A00000C948D0C0E94860C58F00E947F0C40F0C4
:101A100029F45F3F29F00C94760C51110C94C10C01
:101A20000C947C0C0E949E0C68F39923B1F355230F
:101A300091F3951B550BBB27AA27621773078407E1
:101A400038F09F5F5F4F220F331F441FAA1FA9F377
:101A500035D00E2E3AF0E0E832D091505040E69565
:101A6000001CCAF72BD0FE2F29D0660F771F881FC6
:101A7000BB1F261737074807AB07B0E809F0BB0BB9
:101A8000802DBF01FF2793585F4F3AF09E3F5105CD
:101A900078F00C94760C0C94C10C5F3FE4F3983E04
:101AA000D4F3869577956795B795F7959F5FC9F7B6
:101AB000880F911D9695879597F90895E1E0660F37
:101AC000771F881FBB1F621773078407BA0720F0B0
:101AD000621B730B840BBA0BEE1F88F7E095089519
:101AE0000E94770D6894B1110C94C10C08950E9466
:101AF000A60C88F09F5798F0B92F9927B751B0F0EE
:101B0000E1F0660F771F881F991F1AF0BA95C9F781
:101B100014C0B13091F00E94C00CB1E008950C9453
:101B2000C00C672F782F8827B85F39F0B93FCCF306
:101B3000869577956795B395D9F73EF490958095FE
:101B4000709561957F4F8F4F9F4F0895EE0FFF1F48
:101B50000590F491E02D0994CF93DF9382309105A5
:101B600010F482E090E0E0919A02F0919B0220E074
:101B700030E0C0E0D0E0309711F14081518148174A
:101B80005907C0F04817590761F482819381209763
:101B900019F09B838A832BC090939B0280939A02B7
:101BA00026C02115310519F04217530718F49A0180
:101BB000BE01DF01EF010280F381E02DDCCF2115B2
:101BC000310509F1281B390B2430310590F41296A8
:101BD0008D919C9113976115710521F0FB01938301
:101BE000828304C090939B0280939A02FD013296F7
:101BF00044C0FD01E20FF31F8193919322503109FC
:101C00002D933C933AC02091980230919902232B56
:101C100041F42091050130910601309399022093FF
:101C2000980220910301309104012115310541F4FE
:101C30002DB73EB74091070150910801241B350B89
:101C4000E0919802F0919902E217F307A0F42E1B9D
:101C50003F0B2817390778F0AC014E5F5F4F241710
:101C6000350748F04E0F5F1F50939902409398023A
:101C70008193919302C0E0E0F0E0CF01DF91CF913A
:101C800008950F931F93CF93DF93009709F48CC0AF
:101C9000FC0132971382128200919A0210919B02EA
:101CA0000115110581F420813181820F931F20914C
:101CB0009802309199022817390779F5F093990223
:101CC000E093980271C0D80140E050E0AE17BF0722
:101CD00050F412962D913C911397AD0121153105C9
:101CE00009F1D901F3CF9D01DA01338322836081A9
:101CF0007181860F971F8217930769F4EC01288181
:101D00003981260F371F2E5F3F4F318320838A8111
:101D10009B8193838283452B29F4F0939B02E0936C
:101D20009A0242C01396FC93EE931297ED014991EB
:101D300059919E01240F351FE217F30771F480813A
:101D40009181840F951F029611969C938E938281A8
:101D5000938113969C938E931297E0E0F0E0D80164
:101D600012968D919C911397009719F0F8018C01B0
:101D7000F6CF8D919C9198012E5F3F4F820F931F5C
:101D800020919802309199022817390769F4309709
:101D900029F410929B0210929A0202C013821282BE
:101DA0001093990200939802DF91CF911F910F91A8
:101DB0000895A0E0B0E0EFEDFEE00C94CB0CEC0158
:101DC000009721F4CB010E94AC0DB8C0FC01E60FD6
:101DD000F71F9C0122503109E217F30708F4ACC049
:101DE000D9010D911C91119706171707B0F0053016
:101DF000110508F49FC0C80104978617970708F4D7
:101E000099C002501109061B170B019311936D9392
:101E10007C93CF010E94410E8DC05B01A01AB10AD4
:101E20004C01800E911EA0919A02B0919B0240E05D
:101E300050E0E12CF12C109709F44AC0A815B9051F
:101E4000D1F56D907C901197630182E0C80ED11C92
:101E5000CA14DB0480F1A3014A195B096A0182E01C
:101E6000C80ED11C1296BC9012971396AC91B5E097
:101E7000CB16D10440F0B282A38351834083D901B1
:101E80006D937C930AC00E5F1F4FC301800F911F9B
:101E9000F90191838083EB2DFA2FE114F10431F0E5
:101EA000D7011396FC93EE93129744C0F0939B02D4
:101EB000E0939A023FC08D919C9111974817590762
:101EC00008F4AC017D0112960D90BC91A02DB3CF0A
:101ED000809198029091990288159905E1F446172E
:101EE0005707C8F48091030190910401009741F4D1
:101EF0008DB79EB74091070150910801841B950B47
:101F0000E817F907C8F4F0939902E0939802F901F1
:101F1000718360830FC0CB010E94AC0D7C010097E0
:101F200059F0A801BE010E94A80FCE010E94410EE7
:101F3000C70104C0CE0102C080E090E0CDB7DEB79B
:101F4000EEE00C94E70C81E090E0F8940C94C10F63
:101F5000FB01DC0102C001900D9241505040D8F7C6
:101F60000895FB01DC018D91019080190110D9F3D6
:101F7000990B0895FB01DC0101900D920020E1F71F
:101F8000089510E0C2E6D0E004C0FE010E94A60D54
:0C1F90002196C336D107C9F7F894FFCFA3
:101F9C000B010000009C02800000000100080040C2
:101FAC000000010004050D0D0E131516191A1C2343
:101FBC002526292A2C32340000400014005400003D
:101FCC000000001502E501C302BF01DD01CE01C016
:101FDC0001000000005F049305C302C20277656C28
:101FEC00636F6D650049643A0044657669636520EA
:101FFC00494420736574004964207365743A005039
:10200C00524F4752414D00505245564945570020BA
:08201C002020202020200000FC
:107E0000112484B714BE81FFF0D085E080938100F7
:107E100082E08093C00088E18093C10086E0809377
:107E2000C20080E18093C4008EE0C9D0259A86E02C
:107E300020E33CEF91E0309385002093840096BBD3
:107E4000B09BFECF1D9AA8958150A9F7CC24DD24C4
:107E500088248394B5E0AB2EA1E19A2EF3E0BF2EE7
:107E6000A2D0813461F49FD0082FAFD0023811F036
:107E7000013811F484E001C083E08DD089C08234E0
:107E800011F484E103C0853419F485E0A6D080C0E4
:107E9000853579F488D0E82EFF2485D0082F10E0AE
:107EA000102F00270E291F29000F111F8ED06801E7
:107EB0006FC0863521F484E090D080E0DECF843638
:107EC00009F040C070D06FD0082F6DD080E0C81688
:107ED00080E7D80618F4F601B7BEE895C0E0D1E017
:107EE00062D089930C17E1F7F0E0CF16F0E7DF06D8
:107EF00018F0F601B7BEE89568D007B600FCFDCFD4
:107F0000A601A0E0B1E02C9130E011968C91119780
:107F100090E0982F8827822B932B1296FA010C0160
:107F200087BEE89511244E5F5F4FF1E0A038BF0790
:107F300051F7F601A7BEE89507B600FCFDCF97BE46
:107F4000E89526C08437B1F42ED02DD0F82E2BD052
:107F50003CD0F601EF2C8F010F5F1F4F84911BD097
:107F6000EA94F801C1F70894C11CD11CFA94CF0C13
:107F7000D11C0EC0853739F428D08EE10CD085E9AC
:107F80000AD08FE07ACF813511F488E018D01DD067
:107F900080E101D065CF982F8091C00085FFFCCF94
:107FA0009093C60008958091C00087FFFCCF809118
:107FB000C00084FD01C0A8958091C6000895E0E648
:107FC000F0E098E1908380830895EDDF803219F02E
:107FD00088E0F5DFFFCF84E1DECF1F93182FE3DFCA
:107FE0001150E9F7F2DF1F91089580E0E8DFEE27F6
:047FF000FF270994CA
:027FFE00040479
:0400000300007E007B
:00000001FF