:100000000C9463000C948B000C948B000C948B006C
:100010000C948B000C948B000C948B000C948B0034
:100020000C948B000C948B000C948B000C942F037D
:100030000C948B000C948B000C948B000C948B0014
:100040000C94E5020C948B000C948B000C948B00A8
:100050000C948B000C948B000C948B000C948B00F4
:100060000C9461040C948B00000000002400270015
:100070002A0000000000250028002B0000000000DE
:1000800023002600290004040404040404040202DA
:100090000202020203030303030301020408102007
:1000A0004080010204081020010204081020000012
:1000B0000008000201000003040700000000000027
:1000C0000000910A890A11241FBECFEFD8E0DEBFDD
:1000D000CDBF22E0A0E8B1E001C01D92A439B20773
:1000E000E1F711E0A0E0B1E0E4E8FDE102C0059035
:1000F0000D92A038B107D9F710E0C2E6D0E004C0F5
:100100002197FE010E949A0CC136D107C9F70E94BF
:10011000D9060C94B50E0C940000833081F028F4BD
:10012000813099F08230A1F008958730A9F08830AD
:10013000B9F08430D1F4809180008F7D03C080912C
:1001400080008F7780938000089584B58F7702C0F8
:1001500084B58F7D84BD08958091B0008F7703C0F2
:100160008091B0008F7D8093B0000895CF93DF938E
:10017000282F30E0F901E255FF4F8491F901E6564E
:10018000FF4FD491F901EA57FF4FC491CC2391F06E
:1001900081110E948D00EC2FF0E0EE0FFF1FE4585C
:1001A000FF4FA591B491EC91ED2381E090E021F413
:1001B00080E002C080E090E0DF91CF9108951F932E
:1001C000CF93DF93282F30E0F901E255FF4F849160
:1001D000F901E656FF4FD491F901EA57FF4FC49158
:1001E000CC23C9F0162F81110E948D00EC2FF0E076
:1001F000EE0FFF1FEE58FF4FA591B4918FB7F89403
:10020000111105C09C91ED2FE095E92302C0EC91FE
:10021000ED2BEC938FBFDF91CF911F910895CF937A
:10022000DF9390E0FC01E656FF4F2491FC01EA5772
:10023000FF4F8491882361F190E0880F991FFC01A2
:10024000E859FF4FC591D491FC01EE58FF4FA5919D
:10025000B491611109C09FB7F894888120958223D9
:100260008883EC912E230BC0623061F49FB7F89421
:100270003881822F809583238883EC912E2B2C93B9
:100280009FBF06C08FB7F894E8812E2B28838FBFBD
:10029000DF91CF9108953FB7F89480911C0290911F
:1002A0001D02A0911E02B0911F0226B5A89B05C099
:1002B0002F3F19F00196A11DB11D3FBFBA2FA92FE5
:1002C000982F8827820F911DA11DB11DBC01CD0162
:1002D00042E0660F771F881F991F4A95D1F708954E
:1002E0008F929F92AF92BF92CF92DF92EF92FF9246
:1002F0006B017C010E944B014B015C01C114D104D4
:10030000E104F104F1F00E944B01DC01CB018819FA
:100310009909AA09BB09883E9340A105B10570F36C
:1003200021E0C21AD108E108F10888EE880E83E0C6
:10033000981EA11CB11CC114D104E104F10419F7E9
:10034000DDCFFF90EF90DF90CF90BF90AF909F9068
:100350008F90089585ED8093BC008091BC0084FD52
:10036000FCCF1092240208954091A201262F30E084
:10037000240F311D21323105DCF420912402243078
:10038000C9F4FC0180E090E0861758F43091A20196
:100390002191DC01A058BE4FA30FB11D2C930196F3
:1003A000F3CF8091A201680F6093A20180E00895CD
:1003B00081E0089582E00895089581E090E0309111
:1003C000280220912702321710F480E090E09195E6
:1003D00081959109089580912802909127028917AB
:1003E00030F48F5F8093280280E090E008958FEFD3
:1003F0009FEF08958091270290E020912802821BB0
:1004000091090895CF92DF92EF92FF920F931F937D
:10041000CF93DF937C01262F972F8A018091EB01E8
:10042000882391F0C62FD72F6E01C40ED51ECC1590
:10043000DD0571F06991D701ED91FC910190F0819A
:10044000E02DC7010995F3CF642F822F0E94B401DC
:10045000C801DF91CF911F910F91FF90EF90DF9036
:10046000CF900895CF93DF931F92CDB7DEB7698306
:100470002091EB012223D1F020912502203240F07F
:1004800021E030E0FC013383228380E090E015C05E
:1004900080912602E82FF0E0E451FE4F998190838D
:1004A0008F5F809326028093250205C061E0CE0114
:1004B00001960E94B40181E090E00F90DF91CF910E
:1004C0000895CF93FC01C48121E02093EB01C093F8
:1004D0000C0210922602109225028385682B8CE66E
:1004E00092E00E94320280912502813208F046C0DB
:1004F000909124029111FCCF92E09093240291E01C
:10050000909323029FEF9093EA011092E901809368
:10051000E801ACEEB1E028EC31E0F9019E2F921B2E
:10052000981718F49D919193F9CF1092C70180917B
:10053000C701CC0FC82BC093C70180912202813024
:1005400061F4109222028091C7018093BB008091D8
:10055000BC0083FDF8CF85EC01C085EE8093BC0024
:10056000809124028230E1F38091EA018F3F31F0E3
:100570008091EA01803211F08091EA011092260206
:10058000109225021092EB01CF9108950F931F93C3
:10059000CF938C01C62F0E9461026C2F6460C8014A
:1005A0000E9461026C2F6B7FC8010E94610283EC84
:1005B00090E00197F1F7CF911F910F910895089561
:1005C00080E090E008950E94970E1F920F920FB660
:1005D0000F9211242F933F938F939F93AF93BF93C9
:1005E00080912A0290912B02A0912C02B0912D02B1
:1005F00030911B0223E0230F2D3720F40196A11D1B
:10060000B11D05C026E8230F0296A11DB11D209340
:100610001B0280932A0290932B02A0932C02B0938A
:100620002D0280911C0290911D02A0911E02B0919A
:100630001F020196A11DB11D80931C0290931D0203
:10064000A0931E02B0931F02BF91AF919F918F9113
:100650003F912F910F900FBE0F901F9018951F92F2
:100660000F920FB60F9211242F933F934F935F93E6
:100670006F937F938F939F93AF93BF93CF93EF939A
:10068000FF93C0912102CC2321F080911A0288238C
:10069000D1F080911A02882341F08091180291E0F4
:1006A000980F909318028823A9F08091180288303F
:1006B00010F010921802CC2309F4CAC040911A021B
:1006C0004423E1F0C5C0809100010E94B6008093F0
:1006D0001902DFCF60E08AE00E94DF0060E08CE07A
:1006E0000E94DF0010921A02809116029091170268
:1006F00001969093170280931602D7CF809119022A
:10070000882329F0909115029F5F90931502209104
:10071000140290911302821759F0903510F02DE1D8
:1007200001C02BE0920F909313028093140203C038
:100730009C5E9093130290911302903A08F488C043
:1007400020911102309112023695279530931202B2
:100750002093110280911502853028F03860309383
:10076000120220931102905A9093130210921502D4
:1007700080912002882309F45BC0909110029F5F52
:10078000909310029C3008F463C0209111023091C4
:100790001202822F8F73E7E1F1E0DF0190E05D91BB
:1007A000851721F09F5F9031D1F790E050E1959F40
:1007B000C001112496E0369527959A95E1F730E02F
:1007C0005191251721F03F5F3031D1F701C0432F00
:1007D000842B90914C0291110EC080930F029CEFDC
:1007E000980F9B3140F01092200280910E028F5F93
:1007F00080930E022DC0E0914C0291E09E0F9093E9
:100800004C02F0E0E25DFD4F808390914C028091BC
:100810000F02981750F01092200280910D028F5F06
:1008200080930D0281E080934D021092100210C05F
:10083000809111029091120288339B4049F481E02B
:10084000809320021092100210924C0210924D02DE
:10085000FF91EF91CF91BF91AF919F918F917F9138
:100860006F915F914F913F912F910F900FBE0F901D
:100870001F901895FF920F931F93CF93DF931F92B2
:10088000CDB7DEB78C01F62E962F907F692F642BA3
:10089000C80149830E94C60280E1F89EB00111247C
:1008A0004981642BC8010F90DF91CF911F910F9167
:1008B000FF900C94C60241E00E943A0481E090E06F
:1008C00008951F920F920FB60F9211242F933F930A
:1008D0004F935F936F937F938F939F93AF93BF9348
:1008E000EF93FF938091B900887F803609F49CC014
:1008F00068F5883209F45BC090F4803109F454C083
:1009000038F4882309F4F6C0883009F44DC0F6C0E5
:10091000883109F44CC0803209F45DC0EFC08034E6
:1009200009F468C048F4803309F455C0883309F0ED
:10093000E5C08093EA01D8C0803509F44FC08835FE
:1009400009F45DC0883409F0D9C0D6C0883909F4EB
:10095000C7C0A8F4883709F467C038F4883609F4AA
:1009600063C0803709F460C0C9C0883809F4B8C0D2
:10097000803909F45FC0803809F0C0C05BC0803B9B
:1009800009F486C038F4803A09F466C0883A09F45C
:100990007FC0B4C0803C09F4A7C0883C09F4A4C05F
:1009A000883B09F48AC0AAC08091C70110C0909109
:1009B000E9018091E801981770F5E091E90181E083
:1009C0008E0F8093E901F0E0E853FE4F8081809321
:1009D000BB0085EC86C08093EA018EC0E091E901FE
:1009E00081E08E0F8093E9018091BB00F0E0E85335
:1009F000FE4F80839091E9018091E8016EC0E09103
:100A0000E90181E08E0F8093E9018091BB00F0E065
:100A1000E853FE4F80838091230281116DC081E0F5
:100A20008093220284EA61C083E0809324021092C2
:100A3000C601CFCF8091C601803208F051C0E0914D
:100A4000C60181E08E0F8093C6018091BB00F0E06B
:100A5000EA55FE4F8083BDCF85EC8093BC00109299
:100A600024028091C601803230F4E091C601F0E0AA
:100A7000EA55FE4F10826091C60170E0E091A4013A
:100A8000F091A50186EA91E009951092C60136C061
:100A900084E0809324021092A3011092A201E091BD
:100AA000A001F091A10109958091A201811105C0D9
:100AB00081E08093A20110928001E091A30181E086
:100AC0008E0F8093A301F0E0E058FE4F8081809369
:100AD000BB009091A3018091A201981708F479CFEF
:100AE00085E88093BC000AC085EC8093BC0010921E
:100AF000240204C01092EA010E94AA01FF91EF9122
:100B0000BF91AF919F918F917F916F915F914F9125
:100B10003F912F910F900FBE0F901F901895CF927D
:100B2000DF92EF92FF920F931F93CF93DF936C01AD
:100B30007A018B01C0E0D0E0CE15DF0589F0D80145
:100B40006D918D01D601ED91FC910190F081E02D28
:100B5000C6010995892B11F47E0102C02196ECCFC4
:100B6000C701DF91CF911F910F91FF90EF90DF9020
:100B7000CF900895EF92FF920F931F93CF93DF933F
:100B8000EC017B018A0188819981009729F02A81F3
:100B90003B8124173507F8F4B8016F5F7F4F0E943F
:100BA000CD0D009759F0998388831B830A832C818C
:100BB0003D81232B81F4FC0110820DC08881998135
:100BC000009711F00E94350D198218821D821C8237
:100BD0001B821A8207C01D830C83B701888199810B
:100BE0000E94AE0ECE01DF91CF911F910F91FF9029
:100BF000EF900895CF93DF93CDB7DEB728970FB668
:100C0000F894DEBF0FBECDBF98E0E7E2F1E0DE0171
:100C1000119601900D929A95E1F790918602492FD5
:100C200050E0282F30E02417350714F08FEF890F9C
:100C3000FE013196E80FF11DE80FF11D608160683B
:100C400040E08EE792E028960FB6F894DEBF0FBE24
:100C5000CDBFDF91CF910C943A04009769F0FC016D
:100C600001900020E9F73197AF01481B590BBC01F7
:100C70008EE792E00C948F0580E090E00895FC01EF
:100C800080819181009711F00C94BC0A60E070E0C3
:100C9000CB010895CF93DF93EC016115710559F0F5
:100CA000FB0101900020E9F73197AF01461B570B7C
:100CB0000E94BA050CC088819981009711F00E94AA
:100CC000350D198218821D821C821B821A82CE0168
:100CD000DF91CF910895FC01808191810C94350DB5
:100CE000FC01118210821382128215821482611516
:100CF000710551F0FB0101900020E9F73197AF0138
:100D0000461B570B0C94BA050895BF92CF92DF9201
:100D1000EF92FF920F931F93CF93DF937C016B01B0
:100D20008A01E9012417350720F4812F8901C42F96
:100D3000D82F6EE771E0C7010E947006D6011496A5
:100D40008D919C91159708171907D0F48C179D0762
:100D500008F4EC01D601ED91FC911197EC0FFD1F09
:100D6000B08010824D915C91BA01600F711FC70174
:100D70000E944A06D601ED91FC91EC0FFD1FB08256
:100D8000C701DF91CF911F910F91FF90EF90DF90FE
:100D9000CF90BF900895CF93DF93EC01FB012481A6
:100DA000358142E050E00E948506CE01DF91CF916F
:100DB0000895CF93DF93CDB7DEB7A4970FB6F8941D
:100DC000DEBF0FBECDBF789484B5826084BD84B58C
:100DD000816084BD85B5826085BD85B5816085BD36
:100DE00080916E00816080936E00109281008091EE
:100DF0008100826080938100809181008160809376
:100E00008100809180008160809380008091B1009A
:100E100084608093B1008091B00081608093B000C5
:100E200080917A00846080937A0080917A00826059
:100E300080937A0080917A00816080937A0080911B
:100E40007A00806880937A001092C10060E083E0AD
:100E50000E940F0160E084E00E940F0161E08BE0DE
:100E60000E940F0161E08CE00E940F0161E08DE0C3
:100E70000E940F0160E08BE00E94DF0060E08CE0E8
:100E80000E94DF0061E08DE00E94DF0082E080933D
:100E900000018EE0E9E0F1E0DE01119601900D9293
:100EA0008A95E1F77E0123E0E20EF11C11E0F701E3
:100EB000619171917F0180E090E00E942D0B9B0178
:100EC000AC0160E074E284E79BE40E94F20B9B01BA
:100ED000AC0160E070E080E89FE30E94F20B9B01B0
:100EE000AC016FE672E183E898E30E94F20B0E9486
:100EF000640C4B015C01F2E08F1A9108A108B10863
:100F00002DEF82162FEF9206A104B10408F47FC1E1
:100F10001F5F173061F6623071058105910560F140
:100F200061157105E1E08E07910530F5112321F17E
:100F30001092800028E02093810020918100122BE4
:100F400010938100709389006093880080916F00F6
:100F5000826080936F0061E08CE00E940F0160E08E
:100F6000809100010E940F0161E08AE00E940F0160
:100F700060E08AE00E94DF0080912102811105C0BB
:100F800081E0809321021092200210922802109298
:100F9000270210922602109225021092240281E06C
:100FA000809323021092220261E082E10E94DF001E
:100FB00061E083E10E94DF008091B9008E7F809321
:100FC000B9008091B9008D7F8093B90088E4809347
:100FD000B80085E48093BC0010928302809188025F
:100FE000823018F098E0909383028093860262E347
:100FF00070E080E090E00E947001609189028EE7CD
:1010000092E00E94610268EE73E080E090E00E944E
:10101000700160E38EE792E00E94C6020BE416E4E2
:10102000C8010197F1F760E38EE792E00E94C602E3
:10103000C8010197F1F760E38EE792E00E94C602D3
:1010400083E592E00197F1F760E28EE792E00E947B
:10105000C60260918302606240E08EE792E00E94E7
:101060003A0484E08093840240E06CE08EE792E0F2
:101070000E943A0440E061E08EE792E00E943A0468
:101080000BE31FE1C8010197F1F782E0809385022D
:1010900040E066E08EE792E00E943A0440E062E0C1
:1010A0008EE792E00E943A04C8010197F1F788E0C8
:1010B0008093890260E08EE792E00E94610280E006
:1010C0000E94FA058DE491E00E942D068EE791E0E2
:1010D0000E942D0680910101909102018B5A9E4F32
:1010E0000E942D0611E0C0902902C11030C083E09B
:1010F0000E94B60081309105D1F420910101309118
:1011000002012F5F3F4F30930201209301012930EC
:10111000310524F090930201809301018091010137
:10112000909102018B5A9E4F0E942D06DCCF83E0E6
:101130000E94B6000197B9F68EE791E00E942D0655
:1011400089E591E00E942D0610932902CCCF61E041
:101150008BE00E94DF0060E08CE00E94DF0060E036
:101160008DE00E94DF006AEF70E080E090E00E9476
:10117000700160E08BE00E94DF0061E08CE00E9483
:10118000DF0060E08DE00E94DF006AEF70E080E049
:1011900090E00E94700160E08BE00E94DF0060E060
:1011A0008CE00E94DF0061E08DE00E94DF006AEFCA
:1011B00070E080E090E00E9470010BE31FE180E0AE
:1011C000E82E80E0F82E8FB7F89440912A025091D3
:1011D0002B0260912C0270912D028FBF80914D02E5
:1011E000811119C02FB7F89480912A0290912B0297
:1011F000A0912C02B0912D022FBF841B950BA60B42
:10120000B70B80369A4EA105B10540F304C01630E5
:1012100009F08CCEB1CE80914D0280914D02882391
:1012200009F470C180914D02811130C06EE472E00A
:10123000CE014F960E9470068091010190910201AB
:101240001A8E198E1C8E1B8E1E8E1D8E4AE0BE01BC
:101250006F5F7F4F0E94E30ABE016F5F7F4FCE0139
:1012600049960E944A0621E030E040E050E0BE018D
:10127000615E7F4FCE0143960E9485062F89388D8F
:101280008D8D9E8D28173907D1F517C080914C029E
:10129000835090911E00891710F480931E00409196
:1012A0001E0050E06FE272E08EE492E00E949C0E1D
:1012B00010924D0280914C02B9CF8B899C89698D27
:1012C0007A8D009719F061157105A9F46115710502
:1012D00051F02115310539F0FB01808190E09195A5
:1012E000819591090AC0009741F1232B31F1FC014E
:1012F000808190E002C00E94A50E892BF1F021E0D0
:1013000030E040E050E0BE01615E7F4FCE010196CB
:101310000E9485068D819E81892B49F0E981FA81A1
:10132000DD24D3948081882319F0D12C01C0DC2CDA
:10133000CE0101960E946B0601C0DC2CCE014396C3
:101340000E946B06CE0149960E946B06DD2009F4CF
:10135000D5C0BE01615E7F4FCE0101960E94CB06D3
:10136000CE0101960E943F064B015C01CE01019621
:101370000E946B06BE01615E7F4FCE01019618147C
:1013800019041A041B040CF07BC00E94CB06CE018A
:1013900001960E943F064B015C01CE0101960E941E
:1013A0006B068A9489288A288B28B9F480E00E94E9
:1013B000FA0587E691E00E942D0667E671E088E76E
:1013C00092E00E944A0661E08BE00E94DF0060E04C
:1013D0008DE00E94DF0060E02DC0BE01615E7F4FA6
:1013E000CE0101960E94CB06CE0101960E943F06D7
:1013F0004B015C01CE0101960E946B0622E0821631
:101400009104A104B104D1F480E00E94FA058FE6B2
:1014100091E00E942D066FE671E088E792E00E945D
:101420004A0660E08BE00E94DF0060E08DE00E94F1
:10143000DF0061E08CE00E94DF0060C0BE01615E01
:101440007F4FCE0101960E94CB06CE0101960E94ED
:101450003F064B015C01CE0101960E946B0683E0C2
:1014600088169104A104B10409F048C080E00E94EC
:10147000FA0587E791E00E942D066EE771E0CDCF77
:101480000E94CB06CE0101960E943F064B015C01F3
:10149000CE0101960E946B0689288A288B2871F557
:1014A00080E00E94FA0540E061E08EE792E00E9451
:1014B0003A04C8010197F1F740917C0250917D02F6
:1014C00060917802709179028EE792E00E948F0518
:1014D00081E00E94FA05BE01615E7F4FCE01019658
:1014E0000E94CB064D815E8169817A818EE792E010
:1014F0000E948F05CE0101960E946B06CE014F9689
:101500000E946B06E114F10409F45DCE0E94000014
:101510005ACE88E792E00E946B068AE892E00C942B
:101520006B06ECE6F2E01382128288EE93E0A0E014
:10153000B0E084839583A683B78383E391E09183AE
:1015400080836EE771E08AE892E00E947006EEE721
:10155000F2E01382128285E491E09183808387E236
:10156000848380E1818782E0828713866EE771E061
:1015700088E792E00C9470061F93FC019927882756
:10158000BC01E89411911032E9F3193010F01E30CB
:10159000C8F31B3251F01D3249F4689406C00E9412
:1015A000EE0A610F711D811D911D119110531A30AA
:1015B000B0F33EF490958095709561957F4F8F4F75
:1015C0009F4F1F910895BB274A3031F4992322F48D
:1015D000BDE2909581959F4F0C94040B592F482F95
:1015E000372F262F660F771F881F991F660F771FCB
:1015F000881F991F620F731F841F951F660F771F27
:10160000881F991F0895BB27FB015527AA27880F1C
:10161000991FAA1FA41710F0A41B83955051B9F766
:10162000A05DAA3308F0A95DA193009779F7B111E5
:10163000B1931192CB010C941D0BDC01FC01672FBF
:1016400071917723E1F7329704C07C916D93708399
:101650006291AE17BF07C8F30895E89409C097FBDD
:101660003EF490958095709561957F4F8F4F9F4F79
:101670009923A9F0F92F96E9BB279395F6958795BD
:1016800077956795B795F111F8CFFAF4BB0F11F480
:1016900060FF1BC06F5F7F4F8F4F9F4F16C0882327
:1016A00011F096E911C0772321F09EE8872F762F5D
:1016B00005C0662371F096E8862F70E060E02AF09E
:1016C0009A95660F771F881FDAF7880F969587958A
:1016D00097F9089597F99F6780E870E060E00895B2
:1016E0009FEF80EC089500240A941616170618063A
:1016F0000906089500240A94121613061406050616
:101700000895092E0394000C11F4882352F0BB0FA6
:1017100040F4BF2B11F460FF04C06F5F7F4F8F4F09
:101720009F4F089557FD9058440F551F59F05F3F44
:1017300071F04795880F97FB991F61F09F3F79F0F3
:1017400087950895121613061406551FF2CF469575
:10175000F1DF08C0161617061806991FF1CF8695F7
:101760007105610508940895E894BB2766277727DB
:10177000CB0197F908952F923F924F925F926F920B
:101780007F928F929F92AF92BF92CF92DF92EF9211
:10179000FF920F931F93CF93DF93CDB7DEB7CA1B92
:1017A000DB0B0FB6F894DEBF0FBECDBF09942A88BD
:1017B000398848885F846E847D848C849B84AA8465
:1017C000B984C884DF80EE80FD800C811B81AA81F2
:1017D000B981CE0FD11D0FB6F894DEBF0FBECDBFBD
:1017E000ED0108950E94060C0C94810B0E947A0B67
:1017F00058F00E94730B40F029F45F3F29F00C94DD
:101800006A0B51110C94B50B0C94700B0E94920B47
:1018100068F39923B1F3552391F3951B550BBB271F
:10182000AA2762177307840738F09F5F5F4F220F64
:10183000331F441FAA1FA9F335D00E2E3AF0E0E85B
:1018400032D091505040E695001CCAF72BD0FE2FA5
:1018500029D0660F771F881FBB1F26173707480739
:10186000AB07B0E809F0BB0B802DBF01FF279358F1
:101870005F4F3AF09E3F510578F00C946A0B0C9440
:10188000B50B5F3FE4F3983ED4F386957795679563
:10189000B795F7959F5FC9F7880F911D9695879526
:1018A00097F90895E1E0660F771F881FBB1F621745
:1018B00073078407BA0720F0621B730B840BBA0B03
:1018C000EE1F88F7E09508950E946B0C6894B111A3
:1018D0000C94B50B08950E949A0B88F09F5798F0CE
:1018E000B92F9927B751B0F0E1F0660F771F881F25
:1018F000991F1AF0BA95C9F714C0B13091F00E943F
:10190000B40BB1E008950C94B40B672F782F88279F
:10191000B85F39F0B93FCCF3869577956795B39565
:10192000D9F73EF490958095709561957F4F8F4FD4
:101930009F4F0895EE0FFF1F0590F491E02D09943D
:10194000CF93DF938230910510F482E090E0E09134
:101950009202F091930220E030E0C0E0D0E03097B6
:1019600011F14081518148175907C0F048175907B4
:1019700061F482819381209719F09B838A832BC025
:10198000909393028093920226C02115310519F09D
:101990004217530718F49A01BE01DF01EF010280DC
:1019A000F381E02DDCCF2115310509F1281B390B1E
:1019B0002430310590F412968D919C911397611506
:1019C000710521F0FB019383828304C090939302FD
:1019D00080939202FD01329644C0FD01E20FF31F95
:1019E00081939193225031092D933C933AC02091D9
:1019F000900230919102232B41F420910501309106
:101A000006013093910220939002209103013091BE
:101A100004012115310541F42DB73EB7409107016E
:101A200050910801241B350BE0919002F091910236
:101A3000E217F307A0F42E1B3F0B2817390778F0A5
:101A4000AC014E5F5F4F2417350748F04E0F5F1F04
:101A500050939102409390028193919302C0E0E0F1
:101A6000F0E0CF01DF91CF9108950F931F93CF93B3
:101A7000DF93009709F48CC0FC0132971382128225
:101A800000919202109193020115110581F42081B9
:101A90003181820F931F209190023091910228177B
:101AA000390779F5F0939102E093900271C0D80163
:101AB00040E050E0AE17BF0750F412962D913C91D4
:101AC0001397AD012115310509F1D901F3CF9D011E
:101AD000DA013383228360817181860F971F821719
:101AE000930769F4EC0128813981260F371F2E5F97
:101AF0003F4F318320838A819B8193838283452B4F
:101B000029F4F0939302E093920242C01396FC935F
:101B1000EE931297ED01499159919E01240F351FC3
:101B2000E217F30771F480819181840F951F02966B
:101B300011969C938E938281938113969C938E939E
:101B40001297E0E0F0E0D80112968D919C911397E6
:101B5000009719F0F8018C01F6CF8D919C919801B6
:101B60002E5F3F4F820F931F209190023091910280
:101B70002817390769F4309729F4109293021092CC
:101B8000920202C01382128210939102009390027B
:101B9000DF91CF911F910F910895A0E0B0E0E3EDA8
:101BA000FDE00C94BF0BEC01009721F4CB010E94E7
:101BB000A00CB8C0FC01E60FF71F9C0122503109B0
:101BC000E217F30708F4ACC0D9010D911C911197ED
:101BD00006171707B0F00530110508F49FC0C801BB
:101BE00004978617970708F499C002501109061B3D
:101BF000170B019311936D937C93CF010E94350DC8
:101C00008DC05B01A01AB10A4C01800E911EA091FB
:101C10009202B091930240E050E0E12CF12C109739
:101C200009F44AC0A815B905D1F56D907C901197BB
:101C3000630182E0C80ED11CCA14DB0480F1A30149
:101C40004A195B096A0182E0C80ED11C1296BC9049
:101C500012971396AC91B5E0CB16D10440F0B28246
:101C6000A38351834083D9016D937C930AC00E5F97
:101C70001F4FC301800F911FF90191838083EB2DCA
:101C8000FA2FE114F10431F0D7011396FC93EE938F
:101C9000129744C0F0939302E09392023FC08D915B
:101CA0009C9111974817590708F4AC017D011296D1
:101CB0000D90BC91A02DB3CF809190029091910294
:101CC00088159905E1F446175707C8F48091030178
:101CD00090910401009741F48DB79EB740910701A0
:101CE00050910801841B950BE817F907C8F4F0938D
:101CF0009102E0939002F901718360830FC0CB01E0
:101D00000E94A00C7C01009759F0A801BE010E941E
:101D10009C0ECE010E94350DC70104C0CE0102C049
:101D200080E090E0CDB7DEB7EEE00C94DB0B81E015
:101D300090E0F8940C94B50EFB01DC0102C0019018
:101D40000D9241505040D8F70895FB01DC018D9170
:101D5000019080190110D9F3990B0895FB01DC0162
:101D600001900D920020E1F7089510E0C2E6D0E066
:101D700004C0FE010E949A0C2196C336D107C9F710
:041D8000F894FFCF05
:101D84000B010000009402800000000100080040E4
:101D94000000010004050D0D0E131516191A1C235D
:101DA4002526292A2C323400004000140054000057
:101DB40000000032020202E002DC01FA01EB01DD64
:101DC40001000000005B048F05E002DF0277656C10
:101DD400636F6D650049643A004465766963652004
:101DE4004944207365740050524F4752414D00508E
:101DF400524556494557002020202020202000002D
:00000001FF
